:020000040000fa
:080000000002040000000000f2
:020000040000fa
:040008005e0700008f
:020000040000fa
:04000c00a007000049
:020000040000fa
:04001000e007000005
:020000040000fa
:040014007e07000063
:020000040000fa
:04001800c00700001d
:020000040000fa
:04001c004a0800008e
:020000040000fa
:0400200000080000d4
:020000040000fa
:040024004a08000086
:020000040000fa
:040028004a08000082
:020000040000fa
:04002c0002060000c8
:020000040000fa
:040030004a0800007a
:020000040000fa
:040034004a08000076
:020000040000fa
:040038004a08000072
:020000040000fa
:04003c004a0800006e
:020000040000fa
:040040004a0800006a
:020000040000fa
:040044004a08000066
:020000040000fa
:040048004a08000062
:020000040000fa
:04004c004a0800005e
:020000040000fa
:040050004a0800005a
:020000040000fa
:040054008e04000016
:020000040000fa
:040058002e04000072
:020000040000fa
:04005c004a0800004e
:020000040000fa
:040060004a0800004a
:020000040000fa
:040064004a08000046
:020000040000fa
:040068004a08000042
:020000040000fa
:04006c004a0800003e
:020000040000fa
:040070004a0800003a
:020000040000fa
:040074004a08000036
:020000040000fa
:040078004a08000032
:020000040000fa
:04007c004a0800002e
:020000040000fa
:040080004a0800002a
:020000040000fa
:040084004a08000026
:020000040000fa
:040088004a08000022
:020000040000fa
:04008c004a0800001e
:020000040000fa
:040090004a0800001a
:020000040000fa
:0400940078050000eb
:020000040000fa
:040098001805000047
:020000040000fa
:04009c004a0800000e
:020000040000fa
:0400a0004a0800000a
:020000040000fa
:0400a4004a08000006
:020000040000fa
:0400a8004a08000002
:020000040000fa
:0400ac004a080000fe
:020000040000fa
:0400b0004a080000fa
:020000040000fa
:0400b4004a080000f6
:020000040000fa
:0400b8004a080000f2
:020000040000fa
:0400bc004a080000ee
:020000040000fa
:0400c0004a080000ea
:020000040000fa
:0400c4004a080000e6
:020000040000fa
:0400c8004a080000e2
:020000040000fa
:0400cc004a080000de
:020000040000fa
:0400d0004a080000da
:020000040000fa
:0400d4004a080000d6
:020000040000fa
:0400d8004a080000d2
:020000040000fa
:0400dc004a080000ce
:020000040000fa
:0400e0004a080000ca
:020000040000fa
:0400e4004a080000c6
:020000040000fa
:0400e8004a080000c2
:020000040000fa
:0400ec00fa04000012
:020000040000fa
:0400f000e405000023
:020000040000fa
:0400f4004a080000b6
:020000040000fa
:0400f8004a080000b2
:020000040000fa
:0400fc004a080000ae
:020000040000fa
:040100004a080000a9
:020000040000fa
:040104004a080000a5
:020000040000fa
:040108004a080000a1
:020000040000fa
:04010c004a0800009d
:020000040000fa
:040110004a08000099
:020000040000fa
:040114004a08000095
:020000040000fa
:040118004a08000091
:020000040000fa
:04011c004a0800008d
:020000040000fa
:040120004a08000089
:020000040000fa
:040124004a08000085
:020000040000fa
:040128004a08000081
:020000040000fa
:04012c004a0800007d
:020000040000fa
:040130004a08000079
:020000040000fa
:040134004a08000075
:020000040000fa
:040138004a08000071
:020000040000fa
:04013c004a0800006d
:020000040000fa
:040140004a08000069
:020000040000fa
:040144004a08000065
:020000040000fa
:040148004a08000061
:020000040000fa
:04014c004a0800005d
:020000040000fa
:040150004a08000059
:020000040000fa
:040154004a08000055
:020000040000fa
:040158004a08000051
:020000040000fa
:04015c004a0800004d
:020000040000fa
:040160004a08000049
:020000040000fa
:040164004a08000045
:020000040000fa
:040168004a08000041
:020000040000fa
:04016c004a0800003d
:020000040000fa
:040170004a08000039
:020000040000fa
:040174004a08000035
:020000040000fa
:040178004a08000031
:020000040000fa
:04017c004a0800002d
:020000040000fa
:040180004a08000029
:020000040000fa
:040184004a08000025
:020000040000fa
:040188004a08000021
:020000040000fa
:04018c004a0800001d
:020000040000fa
:040190004a08000019
:020000040000fa
:040194004a08000015
:020000040000fa
:040198004a08000011
:020000040000fa
:04019c004a0800000d
:020000040000fa
:0401a0004a08000009
:020000040000fa
:0401a4004a08000005
:020000040000fa
:0401a8004a08000001
:020000040000fa
:0401ac004a080000fd
:020000040000fa
:0401b0004a080000f9
:020000040000fa
:0401b4004a080000f5
:020000040000fa
:0401b8004a080000f1
:020000040000fa
:0401bc004a080000ed
:020000040000fa
:0401c0004a080000e9
:020000040000fa
:0401c4004a080000e5
:020000040000fa
:0401c8004a080000e1
:020000040000fa
:0401cc004a080000dd
:020000040000fa
:0401d0004a080000d9
:020000040000fa
:0401d40032060000ef
:020000040000fa
:0401d8006e060000af
:020000040000fa
:0401dc00aa0600006f
:020000040000fa
:0401e000e60600002f
:020000040000fa
:0401e40022070000ee
:020000040000fa
:0401e8004a080000c1
:020000040000fa
:0401ec004a080000bd
:020000040000fa
:0401f0004a080000b9
:020000040000fa
:0401f4004a080000b5
:020000040000fa
:0401f8004a080000b1
:020000040000fa
:0401fc004a080000ad
:020000040000fa
:040200004a080000a8
:020000040000fa
:040204004a080000a4
:020000040000fa
:040208004a080000a0
:020000040000fa
:04020c004a0800009c
:020000040000fa
:040210004a08000098
:020000040000fa
:040214004a08000094
:020000040000fa
:040218004a08000090
:020000040000fa
:04021c004a0800008c
:020000040000fa
:040220004a08000088
:020000040000fa
:040224004a08000084
:020000040000fa
:040228004a08000080
:020000040000fa
:04022c004a0800007c
:020000040000fa
:040230004a08000078
:020000040000fa
:040234004a08000074
:020000040000fa
:040238004a08000070
:020000040000fa
:04023c004a0800006c
:020000040000fa
:040240004a08000068
:020000040000fa
:040244004a08000064
:020000040000fa
:040248004a08000060
:020000040000fa
:04024c004a0800005c
:020000040000fa
:040250004a08000058
:020000040000fa
:040254004a08000054
:020000040000fa
:040258004a08000050
:020000040000fa
:04025c004a0800004c
:020000040000fa
:040260004a08000048
:020000040000fa
:040264004a08000044
:020000040000fa
:040268004a08000040
:020000040000fa
:04026c004a0800003c
:020000040000fa
:040270004a08000038
:020000040000fa
:040274004a08000034
:020000040000fa
:040278004a08000030
:020000040000fa
:04027c004a0800002c
:020000040000fa
:040280004a08000028
:020000040000fa
:040284004a08000024
:020000040000fa
:040288004a08000020
:020000040000fa
:04028c004a0800001c
:020000040000fa
:040290004a08000018
:020000040000fa
:040294004a08000014
:020000040000fa
:040298004a08000010
:020000040000fa
:04029c004a0800000c
:020000040000fa
:0402a0004a08000008
:020000040000fa
:0402a4004a08000004
:020000040000fa
:0402a8004a08000000
:020000040000fa
:0402ac004a080000fc
:020000040000fa
:0402b0004a080000f8
:020000040000fa
:0402b4004a080000f4
:020000040000fa
:0402b8004a080000f0
:020000040000fa
:0402bc004a080000ec
:020000040000fa
:0402c0004a080000e8
:020000040000fa
:0402c4004a080000e4
:020000040000fa
:0402c8004a080000e0
:020000040000fa
:0402cc004a080000dc
:020000040000fa
:0402d0004a080000d8
:020000040000fa
:0402d4004a080000d4
:020000040000fa
:0402d8004a080000d0
:020000040000fa
:0402dc004a080000cc
:020000040000fa
:0402e0004a080000c8
:020000040000fa
:0402e4004a080000c4
:020000040000fa
:0402e8004a080000c0
:020000040000fa
:0402ec004a080000bc
:020000040000fa
:0402f0004a080000b8
:020000040000fa
:0402f4004a080000b4
:020000040000fa
:0402f8004a080000b0
:020000040000fa
:0402fc004a080000ac
:020000040000fa
:040300004a080000a7
:020000040000fa
:040304004a080000a3
:020000040000fa
:040308004a0800009f
:020000040000fa
:04030c004a0800009b
:020000040000fa
:040310004a08000097
:020000040000fa
:040314004a08000093
:020000040000fa
:040318004a0800008f
:020000040000fa
:04031c0010050000c8
:020000040000fa
:04032000fa050000da
:020000040000fa
:100400000f3821000eff24000e018800000020009c
:100410000000e000020032000001200020028800fd
:1004200014000700420307000000e00003003a0048
:1004300000532500010020000200370000002000ca
:1004400001002000810f70004220ae000f00070065
:10045000000020000000e0004220ae00000002008a
:10046000000000004c0c0200000000000040da0018
:100470000000fe00000220000000e0000200320048
:10048000002020009001880000000600a1028800e2
:10049000800478000000eb001f003700e284440075
:1004a00054a0b4009905ba00e284440054a0b400fa
:1004b0009906ba00e284440054a0b4000006eb00a0
:1004c000476fde00fd07b200ae018800636ce100fb
:1004d00003003a000ad801000000eb000e003700cc
:1004e000606ce10008003a00004deb000a05e800ee
:1004f000020039003420ec000af0a0008b05e9006e
:10050000f9ff3e00040037006168e100010032009d
:100510000086eb000b00070019c7ba001905ba00e6
:100520000e04e00003003a000a00e000dbff3a009e
:1005300000000600fe07b200ae0288008a047800c0
:10054000f5ff37000cd0a300e20f4d001c003b006c
:1005500089027800354dba000a05e800020039002a
:100560003420ec000af0a0008b05e9000f003200f7
:10057000254dba000a05e800020039003420ec00dd
:100580000af0a0008b05e900080032000c00e00032
:100590000600320015cdba000a05e8000200390055
:1005a0003420ec000af0a0008b05e9008984e80003
:1005b00054a0b4000b00e000e2ff3a000000060087
:1005c0009902ba00055d78008b05e900f7ff32005b
:1005d000c82ade00055d78008b05e900f3ff3200d4
:1005e0000c00e000f1ff320019ddba00eeff370029
:1005f0006100e10001003200100005005400f80025
:1006000010102000a002880000f925001000ba0098
:100610005400f9000700220000f0a6008703d10073
:100620000703780001c4fe000003eb000120200056
:1006300091018800a1612d00111303008703e900d7
:10064000fdff3a0000f0a7000000050000f0a00048
:1006500080c4fe0086037800f3ff37000408200002
:10066000010037000002eb006100e10001003200f0
:10067000100005003200f8003400f8008102780014
:10068000930188003200be000100e0000c0032003f
:100690000470a70000f0a00032037800c733de002a
:1006a000848343004220af008703e800a70188004d
:1006b000f607b2007f30e100040032002000200085
:1006c0003400f9003200f900000006008100e90062
:1006d0000500e00003003a00018009003210030029
:1006e000e8ff37000180090032900300d561ae00b9
:1006f000e4ff370030002000f1ff370050052000f4
:10070000b00e8800a00a2000b00e8800d3e1a80037
:100710000000060050052000b00e8800a00a20004e
:10072000b00e8800d3e1a900000006003a4304009f
:10073000000000006643040000000000a64304001f
:10074000000000009043040000000000224204006a
:10075000000000004042040000000000e2430400ea
:1007600000000000d2410400000000009c4704008b
:1007700000000000c8470400000000000848040012
:1007800000000000f2470400000000008a46040058
:1007900000000000a84604000000000044480400d7
:1007a000000000003a460400000000003a42040045
:1007b000000000005842040000000000a2460400af
:1007c00000000000c04604000000000028510400a2
:1007d00000000000de380400000000000c390400b6
:1007e000000000003e3904000000000070390400e1
:1007f00000000000a239040000000000d439040009
:1008000000000000063a0400000000003a3a04002c
:10081000000000006e3a040000000000a23a04004c
:1008200000000000d63a0400000000000a3b04006b
:10083000000000003e3b040000000000523b0400aa
:1008400000000000663b0400000000007a3b04004a
:10085000000000008e3b0400000000003600f8009d
:10086000809fbe00829fbe00849fbe00869fbe0008
:100870000000fa00309980000000e0000200320021
:1008800030998000000001008198800070988000fd
:10089000808f500002003a002188a900180037001c
:1008a0000188a900100037008098800090407800ef
:1008b0008180fb00411288000000e80080988800d9
:1008c00081988000c0312100808f500002003a00e2
:1008d00030312100809888008198800070988000d5
:1008e000808f500005003200f01180007000600021
:1008f0000000e000ecff32000100370000000000c3
:100900000080fa004f03be004f02be004f01be0040
:100910004f00be003600f900004006003600f80027
:10092000809fbe00829fbe00849fbe00869fbe0047
:100930000000fa001e00370051988000201280004d
:1009400000407800804878005198800040322100b3
:10095000808f500009003200509880000000e800ad
:1009600061988000810f5000040032005098800090
:100970000000e800509888000d0037005198800072
:1009800040322100808f500007003a0061988000bb
:10099000c0312100808f500003003200c03121009f
:1009a000509888000200370010c0b30012f3b7005f
:1009b000f0118000620060000000e000deff320005
:1009c000409980000000e000020032004099800061
:1009d000000001000168a9000080fa004f03be007a
:1009e0004f02be004f01be004f00be003600f900ae
:1009f00000400600801f78000000fa00e01180002f
:100a0000620060000000e000010032003c22a9000a
:100a10000628a9000080fa004f0078000040060078
:100a20000000fa0017a8a9000080fa0000400600a4
:100a30003600f800809fbe00829fbe00849fbe00eb
:100a4000869fbe000000fa00309a80000000e0009f
:100a500002003200309a800000000100819980007d
:100a600070998000808f500002003a002388a9000e
:100a7000180037000388a900100037008099800013
:100a8000904078008180fb00811388000000e8001e
:100a90008099880081998000c0332100808f5000a8
:100aa00002003a003033210080998800819980004b
:100ab00070998000808f5000050032003013800054
:100ac000700060000000e000ecff32000100370021
:100ad000000000000080fa004f03be004f02be007d
:100ae0004f01be004f00be003600f9000040060076
:100af0003600f800809fbe00829fbe00849fbe002b
:100b0000869fbe000000fa000368a9001e0037009f
:100b10005199800060138000004078008048780080
:100b20005199800040342100808f5000090032002c
:100b3000509980000000e80061998000810f50000a
:100b400004003200509980000000e80050998800ad
:100b50000d0037005199800040342100808f5000f3
:100b600007003a0061998000c0332100808f500057
:100b700003003200c0332100509988000200370082
:100b800010c0b30032f3b700301380006200600081
:100b90000000e000deff3200409a80000000e0002c
:100ba00002003200409a8000000001000080fa003c
:100bb0004f03be004f02be004f01be004f00be00fb
:100bc0003600f90000400600801f78000000fa009f
:100bd00020138000620060000000e000010032008d
:100be0006422a9000648a9000080fa004f0078009e
:100bf000004006000000fa0017c8a9000080fa00b3
:100c0000004006003600f800809fbe00829fbe00b4
:100c1000849fbe00869fbe000000fa00509b8000ab
:100c20000000e00002003200509b80000000010044
:100c300071d3bf000040e80071f3b70010c0b300eb
:100c400070f3b7000028a9000080fa004f03be002f
:100c50004f02be004f01be004f00be003600f9003b
:100c6000004006003600f800809fbe00829fbe0054
:100c7000849fbe00869fbe003200f8003400f8005a
:100c800010002000a00188000020200000d0fe00fd
:100c90000200fa0061618000010f78007095800009
:100ca0000000e00003003200719580001e00780013
:100cb000010001000d68a9000080fa003400f9006d
:100cc0003200f9004f03be004f02be004f01be00cc
:100cd0004f00be003600f900004006003600f80064
:100ce000809fbe00829fbe00849fbe00869fbe0084
:100cf0003200f8003400f80010002000a001880045
:100d00000020200000d0fe000200fa007161800087
:100d1000010f7800809580000000e00003003200a1
:100d2000819580001e007800010001000d88a90057
:100d30000080fa003400f9003200f9004f03be00d1
:100d40004f02be004f01be004f00be003600f9004a
:100d5000004006003600f800809fbe00829fbe0063
:100d6000849fbe00869fbe003200f8003400f80069
:100d700010002000a00188000020200000d0fe000c
:100d80000200fa0081618000010f780090958000d8
:100d90000000e00003003200919580001e00780002
:100da000010001000da8a9000080fa003400f9003c
:100db0003200f9004f03be004f02be004f01be00db
:100dc0004f00be003600f900004006003600f80073
:100dd000809fbe00829fbe00849fbe00869fbe0093
:100de0003200f8003400f80010002000a001880054
:100df0000020200000d0fe000200fa009161800077
:100e0000010f7800a09580000000e0000300320090
:100e1000a19580001e007800010001000dc8a90006
:100e20000080fa003400f9003200f9004f03be00e0
:100e30004f02be004f01be004f00be003600f90059
:100e4000004006003600f800809fbe00829fbe0072
:100e5000849fbe00869fbe003200f8003400f80078
:100e600010002000a00188000020200000d0fe001b
:100e70000200fa00a1618000010f7800b0958000a7
:100e80000000e00003003200b19580001e007800f1
:100e9000010001000de8a9000080fa003400f9000b
:100ea0003200f9004f03be004f02be004f01be00ea
:100eb0004f00be003600f900004006003600f80082
:100ec000809fbe00829fbe00849fbe00869fbe00a2
:100ed0000000fa00c028a9000000eb004927070025
:100ee0000080fa004f03be004f02be004f01be005b
:100ef0004f00be003600f900004006003600f80042
:100f0000809fbe00829fbe00849fbe00869fbe0061
:100f10000000fa0040270700c048a9001000200088
:100f2000382707000080fa004f03be004f02be00c2
:100f30004f01be004f00be003600f9000040060021
:100f40003600f800809fbe00829fbe00849fbe00d6
:100f5000869fbe000000fa00c068a90020002000a3
:100f6000282707000080fa004f03be004f02be0092
:100f70004f01be004f00be003600f90000400600e1
:100f80003600f800809fbe00829fbe00849fbe0096
:100f9000869fbe000000fa00c088a9003000200033
:100fa000182707000080fa004f03be004f02be0062
:100fb0004f01be004f00be003600f90000400600a1
:100fc0003600f800809fbe00829fbe00849fbe0056
:100fd000869fbe000000fa00c608a900700020002d
:100fe000082707000080fa004f03be004f02be0032
:100ff0004f01be004f00be003600f9000040060061
:101000003600f800809fbe00829fbe00849fbe0015
:10101000869fbe000000fa002146800000102000dc
:10102000008060000000e00003003200c508a90055
:10103000c0002000f32607002146800000022000a7
:10104000008060000000e00003003200c4a8a90096
:1010500090002000eb260700204680007000600012
:101060000000e00003003200c488a900a0002000b6
:10107000e426070020468000610060000000e000d8
:1010800003003200c408a900b0002000dd260700dc
:10109000ffff37000040da000000fe000a00fa00ff
:1010a000e4014700800978006600470001087800e5
:1010b00068004700020878000e80e800e60047005c
:1010c000110878000000eb00000f78000f003700d7
:1010d000000000009d1d07000004a2000004e000c5
:1010e000fcff3a000e80e800100078001040780005
:1010f0008e80e800910078000101e8008e80e80011
:1011000082087800711d07001e0fe8006800470084
:10111000100078009e007800808f5000ecff3900ae
:1011200068004700100078000080fa000000060008
:1011300000000500140020003f013700f4ff2f00dd
:101140003d0137000001be00240007000470a70025
:1011500003f0a1006509b100160032000d00350052
:101160006828e10006003500f0ff2f00f1ff27009e
:101170000300e00013003b00010028000000050010
:1011800000004000818048008502e900fcff3a0031
:1011900008003700f88f420002003c008000eb009e
:1011a000000005008100d1000080d3008502e80026
:1011b000fcff3a000300e00002003b00600010006a
:1011c000e0801800000006004f89de0082017800f0
:1011d000340137006011b80042013700c70ade0051
:1011e000f107b200f50fb20008003200e1cf420073
:1011f000020032000170a00024000500810f700081
:10120000010032000408050044000500810f700051
:1012100002003a00140005008502e90000004000c9
:1012200081c04800fcff3b000170a00024000500c5
:10123000038368000700280007036300470ade00f5
:101240000480a100c71ade000580a100f70f20006e
:101250000720e100420032000728e1004000320090
:10126000889fbe008a9fbe008c1f7800f107b200e5
:10127000f307b2000400e000640032000170a00037
:101280000500e000680032000370a0008505420000
:10129000eb07b1000204b8000302b80084844400e4
:1012a00060854a00020ab800848444000a854a0026
:1012b000030ab80004054500040033000804d00008
:1012c0008984d2000a85d2008b05e9006158e100cb
:1012d0003d003500021020000901610003082000d4
:1012e00089816100f7072000878364000886730006
:1012f000c84cde00c853dd00878474004855de000a
:101300000300e00006003200820376000400320091
:101310008904e80060054d000a88a3000c003a002b
:10132000f70f20000758e10044003d000a70a100bb
:10133000c75ddd000a8575008a007300090078002a
:101340004f0678004f05be004f04be0000000600a7
:101350000a05d1008984d3008b05e800f0ff37002f
:10136000881f7800060478009000070007027800c4
:101370000001fd008101fd008c000700870278005c
:10138000850372000778a300050032000001fd000c
:101390008101fd009f0007004f0478000000060057
:1013a000850372000748a30003003200f0ff2f00fe
:1013b000f1ff2700f8ff37000000200001f82700a8
:1013c00088807000f4ff3700880178004848dd000d
:1013d000808171004848de00c850dd0001007000c7
:1013e000c850de00060478000b01780016000700e4
:1013f00088807000d2ff37000500e0000500320051
:10140000170020003a0007009dff3700810370009d
:10141000f9ff3a00860078004f0678004f05be00bd
:101420004f04be000000050083037100f9ff320085
:10143000270020002e00070094ff370001f8270046
:1014400086807000f4ff37000100e00026003200c3
:10145000610111007810e10023003c006022b80017
:101460007010e1000400350080027800010078006f
:101470008000eb00700151000200e0000900340020
:1014800070031100062add00822ade008603dd00db
:10149000878272000200de00860bdd00070070000c
:1014a0008208de0084817100f4ff2700048262005c
:1014b000848171000400280084826200610260005f
:1014c00005f0a6000000060004827100070032004b
:1014d0000000e800e0804800000006000002be00b6
:1014e0006000b800efff37006000b80000000600a1
:1014f000889fbe000004eb006138e10016003a004e
:101500000100e00008003a00c800de004800dd00ed
:10151000880020000100e00003003a00c800de005f
:101520004800dd00680444008184cf00e984540051
:10153000060034008908dd00f08314008703de0014
:10154000878070000900dd00090444006102140076
:101550004f04be00000006000300e00008003a004f
:10156000c811de004811dd00880020000300e00003
:1015700003003a00c811de004811dd006804440091
:101580008384cf00e9845400060034008919dd000b
:10159000f08314008713de00878171000911dd00dc
:1015a00009044400e1021400e9ff3700270020008d
:1015b00001f0a70017002000470bde00f60fb20075
:1015c000040032000643e8000a0032004702b3007c
:1015d0000000060001037800f607b2000603700061
:1015e00002003a000703b300000006008702b300c0
:1015f0000000060001037800f607b2000603700041
:10160000020032000770a000000006000760a00082
:10161000000006000478a300040032000578a3004f
:10162000030032000168a30001003a000200be007e
:101630000160a00000000600889fbe008a9fbe00d7
:10164000841f78007c0007004f00780011003300f1
:10165000f0ff2f00838f6c0006003b00040565003f
:101660000a00a7000800370009f0a60010002000bb
:1016700008003700820f5400838f5c00030039009c
:101680001000200001003e000000200009f0a7002b
:101690000000ea004f05be004f04be000000e0005d
:1016a00000000600881f7800030478000300e000b3
:1016b00007003d0060001000e08018006001190084
:1016c000e081190002003b0001f02d00030037000b
:1016d0000400070008f0a70001f0a0004f04780004
:1016e00000000600889fbe008a9fbe000082700036
:1016f0000402710004827100260032000004be0062
:101700000200be006011b8006b09200095022000a5
:101710000182cf000a0039000541b1000082cf00ec
:10172000070039000541b1000982cf0004003900eb
:101730000541b1000882cf00010039000541b10028
:1017400005425200120032000a003b008281710003
:10175000610164008100d1000080d3008984d3003e
:101760000884d3008b05e8000442e800f7ff3a0044
:10177000070037000804440089844c00000048003a
:10178000818048008b05e9000442e900f9ff3a0036
:10179000030007004f05be004f04be000000060016
:1017a00081002000618055000b003d000b002000ef
:1017b00061fe2f000100e1001d00340082817100f4
:1017c000610164008904d1000884d3000000e800ae
:1017d000faff3a007100200061006400030070000d
:1017e000020060000900320061044400e0844c0003
:1017f0000988a500050032008b05e8006808e100b3
:1018000002003a008904d1000884d300f20f2000be
:101810000258e10005003d00c75ddd00f907b20098
:101820008980750008007800000006000bf827008a
:101830008b007800000005000004be0067fe070072
:101840000003be000405be000200be0063fe0700e8
:08185000844f75000000060042
:020000040000fa
:101858003a43000066430000a6430000904300009e
:101868002242000040420000e2430000d241000052
:101878009c470000c847000008480000f2470000e5
:101888008a460000a8460000444800003a46000086
:020000040000fa
:101898000000fa00b12407003a2407009700070067
:1018a8003eaea90001003700000000000080800063
:1018b800e10f5000160036000030ef00fed0bf00e8
:1018c800e14f50000f003a00e7d2bf000004e000eb
:1018d8000d003200e8d2bf000004e0000a00320028
:1018e800e772ef00e872ef0010c0b30077f3b700bb
:1018f8003eaea8001830ef00770107003eaea90001
:10190800010037000a1f07008f000700a500070025
:1019180011808000703e2000808f50000400360047
:101928000230ef00a09b80000000e800a09b880028
:1019380020808000fd0f5000040036000430ef00c6
:10194800c3170700fd120700c51307003180800088
:1019580030062000808f5000450036000630ef002a
:10196800e09680000000e800e0968800f09680008d
:10197800e10f50003e003a00e1968000200320006d
:10198800808f50003a003600de32ef00e8d2bf0008
:10199800e14f50001a003a0011878000000820002b
:1019a800008060000000e00015003a0010c0b3009d
:1019b80077f3b70020c0b300e8f2b7003eaea80046
:1019c8001830ef00440107003eaea900e2f0a9007c
:1019d800e4f0a80010c0b300e8f2b70072d3bf006b
:1019e800e34f50002200360040c0b30072f3b70046
:1019f8007673ef0020c0b300e8f2b7001c00370090
:101a0800e8d2bf00e24f500019003a002187800059
:101a180000082000008060000000e00014003a0088
:101a280010c0b30077f3b70010c0b300e8f2b700f6
:101a38003eaea8001830ef00270107003eaea9000f
:101a4800e2f0a900e4f0a80020c0b300e8f2b70073
:101a580072d3bf00e34f50000500360040c0b3000a
:101a680072f3b7007673ef0010c0b300e8f2b70066
:101a780041808000f07c2000808f500001003600fb
:101a88000830ef0051808000b0122000808f500095
:101a98000b0036000a30ef00c4d2bf000040e80057
:101aa800c4f2b700c4d2bf00ea4f500004003600a9
:101ab800c472ef00009680000000e80000968800dd
:101ac8008180800070a92300808f500003003600b9
:101ad80080a9230080808800e2f0a900918080001e
:101ae80070a92300808f50006fff360080a9230063
:101af80090808800e4f0a9006cff37000000fa002d
:101b08000000eb00b923070051c5b300814f500016
:101b18000800320051c5b3000000eb009d23070008
:101b280036d2bf00804078001000200099230700bb
:101b38000300370010002000ac23070036f2b7007e
:101b48000080fa00000006000000fa0069d1bf001a
:101b58000004e000080032006ad1bf000004e00081
:101b680005003200b180800030062000808f5000d0
:101b7800010036003b00070010d1bf000004e00060
:101b88000600320011d1bf000004e000030032005b
:101b98001071ef001171ef001271ef000080fa0070
:101ba800000006000000fa0022d0bf000004e00098
:101bb8000400320023d0bf000004e000010032001e
:101bc8004d00070077d3bf00e14f500011003a00e5
:101bd8001430ef001830ef00bf000700e8d2bf0054
:101be800e14f500003003a00e2f0a800e4f0a90039
:101bf80005003700e8d2bf00e24f500002003a006b
:101c0800e2f0a900e4f0a8007273ef007673ef0029
:101c180012003700a1808000703e2000808f5000a5
:101c28000e0036001430ef00e6d2bf00e14f50003e
:101c380003003a0020c0b300e6f2b7000500370001
:101c4800e6d2bf00e24f500002003a0010c0b300d5
:101c5800e6f2b700550007001830ef000080fa00e0
:101c6800000006000000fa006ed1bf008080fb0073
:101c780040042000808f500019003a006fd1bf0047
:101c88008080fb0000032000808f5000010032009c
:101c98001200370070d1bf000080fb003104200023
:101ca800810f50000900320031052000810f5000db
:101cb800010032000800370026060700cb0807009d
:101cc80010c0b30077f3b7000300370068090700b6
:101cd8007773ef00000000000000000001003700eb
:101ce800000000006971ef006a71ef006b71ef008e
:101cf8000080fa00000006000000fa0027d0bf00ac
:101d08008080fb00d0042000808f500020003a0023
:101d180028d0bf000080fb0011032000810f500075
:101d28000400320021032000810f50000c00320013
:101d38001600370029d0bf008080fb003004200047
:101d4800808f500001003200040037001030ef008f
:101d580010c0b30025010700000000000b00370089
:101d680029d0bf008080fb0030042000808f500005
:101d780001003200040037001230ef0020c0b30029
:101d88001a010700000000000000000001003700f1
:101d9800000000002270ef002370ef002470ef00b5
:101da8001830ef000080fa00000006000400fa0076
:101db8000040eb00004f78008000eb000e80e80048
:101dc80001087800b0c5b3004af0b70050c5b300a9
:101dd8004bf0b700e6d2bf000043b0004cf0b700ac
:101de80030c4b3004df0b70000c3b3004ef0b700e5
:101df80000c3b3004ff0b70000c3b30050f0b70002
:101e08000040eb00004f78000b0037009e80fb007d
:101e1800a004210000804000104078000000fb0072
:101e28008e80e80091007800808068000e80e800cd
:101e3800010878001e4fe8001e407800e64f500069
:101e4800f2ff36000e80e80090007800000f2000b6
:101e5800008060004400de00004078000043b000cd
:101e680051f0b7000e80e8001000780000407800bc
:101e78006f4060000043b00052f0b700d0c5b30017
:101e880053f0b7003eaea8000040eb00004f7800ca
:101e9800060037009e80fb00a0042100008040005f
:101ea80010407800381c07001e4fe8001e407800dc
:101eb800e94f5000f7ff360000000000701c0700d3
:101ec8000004a2000004e000fcff3a003eaea900b6
:101ed8000080fa00000006000400fa000040eb0051
:101ee800004f78008000eb000e80e80001087800c1
:101ef800b0c5b3004af0b70050c5b3004bf0b70007
:101f080000c3b3004cf0b70030c5b3004df0b700c4
:101f1800e7d2bf000043b0004ef0b700e8d2bf00e0
:101f28000043b0004ff0b700fed0bf000043b00040
:101f380050f0b7000040eb00004f78000b0037006e
:101f48009e80fb00a0042100008040001040780023
:101f58000000fb008e80e800910078008080680017
:101f68000e80e800010878001e4fe8001e40780047
:101f7800e64f5000f2ff36000e80e800900078002f
:101f8800000f2000008060004400de000040780060
:101f98000043b00051f0b7000e80e8001000780050
:101fa800004078006f4060000043b00052f0b70076
:101fb800d0c5b30053f0b70000000000c180800016
:101fc800301f2000808f5000fcff36001830ef00d3
:101fd8003eaea80080842e0011002000ec220700ed
:101fe8000040eb00004f7800060037009e80fb00a1
:101ff800a00421000080400010407800e21b070088
:102008001e4fe8001e407800e94f5000f7ff3600e9
:10201800000000001a1c07000004a2000004e000f1
:10202800fcff3a0080842e0011002000d82207000f
:102038000040eb00004f7800060037009e80fb0050
:10204800a00421000080400010407800ce1b07004b
:102058001e4fe8001e407800e94f5000f7ff360099
:1020680000000000061c07000004a2000004e000b5
:10207800fcff3a003eaea9007773ef001430ef0082
:102088000080fa00000006000400fa000040eb009f
:10209800004f78008000eb000e80e800010878000f
:1020a800b0c5b3004af0b70050c5b3004bf0b70055
:1020b80000c3b3004cf0b70030c5b3004df0b70013
:1020c800e7d2bf000043b0004ef0b700d0968000c2
:1020d800004078000043b0004ff0b700fed0bf00ca
:1020e8000043b00050f0b7000040eb00004f78000c
:1020f8000b0037009e80fb00a004210000804000f8
:10210800104078000000fb008e80e8009100780005
:10211800808068000e80e800010878001e4fe80003
:102128001e407800e64f5000f2ff36000e80e800af
:1021380090007800000f2000008060004400de005e
:10214800004078000043b00051f0b7000e80e8006e
:1021580010007800004078006f4060000043b00035
:1021680052f0b700d0c5b30053f0b700000000002c
:10217800c1808000301f2000808f5000fcff360097
:102188001830ef003eaea80080842e001100200019
:102198007f2207000040eb00004f78000600370060
:1021a8009e80fb00a00421000080400010407800c1
:1021b800751b07001e4fe8001e407800e94f5000cd
:1021c800f7ff360000000000ad1b07000004a20066
:1021d8000004e000fcff3a003eaea9007773ef0070
:1021e8001430ef000080fa00000006000800fa0032
:1021f800881f7800e6004700804878000000eb0060
:10220800000f78008040eb000e80e800014878005d
:102218008040eb0063004700014878008040eb00f5
:1022280064004700014878008040eb0065004700e3
:10223800014878000e80e800a10221009140780052
:102248000148780063004700b102210091407800fe
:102258000148780064004700c102210091407800dd
:102268000148780065004700d102210091407800bc
:10227800014878000e80e80090407800f0c2b30072
:1022880080cf50004b0036000e80e8009040780068
:1022980090c3b30080cf500046003e006300470063
:1022a80090407800f0c2b30080cf50004100360063
:1022b800630047009040780090c3b30080cf50007f
:1022c8003c003e006400470090407800f0c2b30034
:1022d80080cf5000370036006400470090407800f7
:1022e80090c3b30080cf500032003e006500470025
:1022f80090407800f0c2b30080cf50002d00360027
:10230800650047009040780090c3b30080cf50002c
:1023180028003e0063004700104078008080fb00e2
:10232800400620008088b900800078000e80e80010
:10233800104078000080fb0002fd2f0000014100e2
:10234800803e20008090b9008080400000d42e009c
:102358008080400064004700104078000080fb0047
:10236800ea00b900001eb100808040006500470007
:10237800104078000080fb000003b100008f40008f
:1023880066004700104078000084fb001e007800bb
:10239800cf80de008afb0700d2cc2c00c3dc2300f0
:1023a800a1fb0700c241dd000207210002814100b4
:1023b8000089be000e80e800e1022100914078000b
:1023c8000148780063004700f1022100914078003d
:1023d800014878006400470001032100914078001b
:1023e80001487800650047001103210091407800fa
:1023f800014878000e80e80090407800f0c2b300f1
:1024080080cf50004b0036000e80e80090407800e6
:1024180090c3b30080cf500046003e0063004700e1
:1024280090407800f0c2b30080cf500041003600e1
:10243800630047009040780090c3b30080cf5000fd
:102448003c003e006400470090407800f0c2b300b2
:1024580080cf500037003600640047009040780075
:1024680090c3b30080cf500032003e0065004700a3
:1024780090407800f0c2b30080cf50002d003600a5
:10248800650047009040780090c3b30080cf5000ab
:1024980028003e0063004700104078008080fb0061
:1024a800400620008088b900800078000e80e8008f
:1024b800104078000080fb0002fd2f000001410061
:1024c800803e20008090b9008080400000d42e001b
:1024d8008080400064004700104078000080fb00c6
:1024e800ea00b900001eb100808040006500470086
:1024f800104078000080fb000003b100008f40000e
:1025080066004700104078000084fb001e00780039
:10251800cf80de002afb0700d2cc2c00c3dc2300ce
:1025280041fb0700c241dd00020821000281410091
:102538000089be000e80e800210321009140780048
:10254800014878006300470031032100914078007a
:102558000148780064004700410321009140780059
:102568000148780065004700510321009140780038
:10257800014878000e80e80090407800f0c2b3006f
:1025880080cf50004b0036000e80e8009040780065
:1025980090c3b30080cf500046003e006300470060
:1025a80090407800f0c2b30080cf50004100360060
:1025b800630047009040780090c3b30080cf50007c
:1025c8003c003e006400470090407800f0c2b30031
:1025d80080cf5000370036006400470090407800f4
:1025e80090c3b30080cf500032003e006500470022
:1025f80090407800f0c2b30080cf50002d00360024
:10260800650047009040780090c3b30080cf500029
:1026180028003e0063004700104078008080fb00df
:10262800400620008088b900800078000e80e8000d
:10263800104078000080fb0002fd2f0000014100df
:10264800803e20008090b9008080400000d42e0099
:102658008080400064004700104078000080fb0044
:10266800ea00b900001eb100808040006500470004
:10267800104078000080fb000003b100008f40008c
:1026880066004700104078000084fb001e007800b8
:10269800cf80de00cafa0700d2cc2c00c3dc2300ae
:1026a800e1fa0700c241dd00020921000281410070
:1026b8000089be000e80e800610321009140780087
:1026c80001487800630047007103210091407800b9
:1026d8000148780064004700810321009140780098
:1026e8000148780065004700910321009140780077
:1026f800014878000e80e80090407800f0c2b300ee
:1027080080cf50004b0036000e80e80090407800e3
:1027180090c3b30080cf500046003e0063004700de
:1027280090407800f0c2b30080cf500041003600de
:10273800630047009040780090c3b30080cf5000fa
:102748003c003e006400470090407800f0c2b300af
:1027580080cf500037003600640047009040780072
:1027680090c3b30080cf500032003e0065004700a0
:1027780090407800f0c2b30080cf50002d003600a2
:10278800650047009040780090c3b30080cf5000a8
:1027980028003e0063004700104078008080fb005e
:1027a800400620008088b900800078000e80e8008c
:1027b800104078000080fb0002fd2f00000141005e
:1027c800803e20008090b9008080400000d42e0018
:1027d8008080400064004700104078000080fb00c3
:1027e800ea00b900001eb100808040006500470083
:1027f800104078000080fb000003b100008f40000b
:1028080066004700104078000084fb001e00780036
:10281800cf80de006afa0700d2cc2c00c3dc23008c
:1028280081fa0700c241dd00020a2100028141004d
:102838000089be000e80e800a103210091407800c5
:102848000148780063004700b103210091407800f7
:102858000148780064004700c103210091407800d6
:102868000148780065004700d103210091407800b5
:10287800014878000e80e80090407800f0c2b3006c
:1028880080cf50004b0036000e80e8009040780062
:1028980090c3b30080cf500046003e00630047005d
:1028a80090407800f0c2b30080cf5000410036005d
:1028b800630047009040780090c3b30080cf500079
:1028c8003c003e006400470090407800f0c2b3002e
:1028d80080cf5000370036006400470090407800f1
:1028e80090c3b30080cf500032003e00650047001f
:1028f80090407800f0c2b30080cf50002d00360021
:10290800650047009040780090c3b30080cf500026
:1029180028003e0063004700104078008080fb00dc
:10292800400620008088b900800078000e80e8000a
:10293800104078000080fb0002fd2f0000014100dc
:10294800803e20008090b9008080400000d42e0096
:102958008080400064004700104078000080fb0041
:10296800ea00b900001eb100808040006500470001
:10297800104078000080fb000003b100008f400089
:1029880066004700104078000084fb001e007800b5
:10299800cf80de000afa0700d2cc2c00c3dc23006b
:1029a80021fa0700c241dd00020b2100028141002b
:1029b8000089be000e80e800e10321009140780004
:1029c8000148780063004700f10321009140780036
:1029d8000148780064004700010421009140780014
:1029e80001487800650047001104210091407800f3
:1029f800014878000e80e80090407800f0c2b300eb
:102a080080cf50004b0036000e80e80090407800e0
:102a180090c3b30080cf500046003e0063004700db
:102a280090407800f0c2b30080cf500041003600db
:102a3800630047009040780090c3b30080cf5000f7
:102a48003c003e006400470090407800f0c2b300ac
:102a580080cf50003700360064004700904078006f
:102a680090c3b30080cf500032003e00650047009d
:102a780090407800f0c2b30080cf50002d0036009f
:102a8800650047009040780090c3b30080cf5000a5
:102a980028003e0063004700104078008080fb005b
:102aa800400620008088b900800078000e80e80089
:102ab800104078000080fb0002fd2f00000141005b
:102ac800803e20008090b9008080400000d42e0015
:102ad8008080400064004700104078000080fb00c0
:102ae800ea00b900001eb100808040006500470080
:102af800104078000080fb000003b100008f400008
:102b080066004700104078000084fb001e00780033
:102b1800cf80de00aaf90700d2cc2c00c3dc23004a
:102b2800c1f90700c241dd00020c21000281410009
:102b38000089be0066004700104078000081fb0055
:102b48002104210091407800000d2100000041007f
:102b58000148780066004700104078008080fb003c
:102b680066004700104078000081fb00000d21003e
:102b78000000410010407800614060006140600042
:102b88006140600001814000010e21008100410088
:102b98000080fb0061006000110178000200a100c4
:102ba8000200700080087800660047001040780036
:102bb8000080fb00e6004700914078000181fb009f
:102bc800010d210081004100914078008180fb00c7
:102bd800e28060008180d10081407800e1c060001f
:102be80000014000000e2100000041008180fb0030
:102bf800e180600081804000100178000210a1008f
:102c08008280700001087800660047001040780054
:102c18000080fb00e6004700914078000181fb003e
:102c2800010d210081004100914078008180fb0066
:102c3800e4806000c288de0081407800e1c0600066
:102c480000014000000e2100000041008180fb00cf
:102c5800e1806000c208dd00100178000220a100b8
:102c680082807000010878006600470010407800f4
:102c78000080fb00e6004700914078000181fb00de
:102c8800010d210081004100914078008180fb0006
:102c9800e8806000c388de0081407800e1c0600001
:102ca80000014000000e2100000041008180fb006f
:102cb800e1806000c308dd00100178000230a10047
:102cc8008280700001087800660047001040780094
:102cd8000080fb00e6004700914078000181fb007e
:102ce800010d210081004100914078008180fb00a6
:102cf800f0806000c488de0081407800e1c0600098
:102d080000014000000e2100000041008180fb000e
:102d1800e1806000c408dd00100178000240a100d5
:102d28008280700001087800660047001040780033
:102d38000080fb00e6004700914078000181fb001d
:102d4800010d210081004100914078000181fb00c4
:102d58000102200081006100c588de008140780002
:102d6800e1c0600000014000000e210000004100a9
:102d78008180fb00e1806000c508dd00100178005b
:102d88000250a100828070000108780066004700a8
:102d9800104078000080fb00e60047009140780072
:102da8000181fb00010d2100810041009140780064
:102db8000181fb000104200081006100c688de005b
:102dc80081407800e1c0600000014000000e210051
:102dd800000041008180fb00e1806000c608dd0042
:102de800100178000260a10082807000010878005c
:102df80066004700104078000080fb00e6004700ae
:102e0800914078000181fb00010d21008100410003
:102e1800914078008180fb00c708de00814078007f
:102e2800e1c0600000014000000e210000004100e8
:102e38008180fb00e1806000c708dd001001780098
:102e48000270a100828070000108780066004700c7
:102e5800104078000081fb00310421009140780087
:102e6800400d21000000410001487800660047003d
:102e7800104078008080fb00660047001040780012
:102e88000081fb00400d2100000041001040780047
:102e98006140600061406000614060000181400065
:102ea800a10e2100810041000080fb00610060004c
:102eb800110178000200a10002007000800878006b
:102ec80066004700104078000080fb00e6004700dd
:102ed800914078000181fb00410d210081004100f3
:102ee800914078008180fb00e28060008180d10001
:102ef80081407800e1c0600000014000a00e210080
:102f0800000041008180fb00e1806000818040007a
:102f1800100178000210a10082807000010878007a
:102f280066004700104078000080fb00e60047007c
:102f3800914078000181fb00410d21008100410092
:102f4800914078008180fb00e4806000c288de0048
:102f580081407800e1c0600000014000a00e21001f
:102f6800000041008180fb00e1806000c208dd00b4
:102f7800100178000220a10082807000010878000a
:102f880066004700104078000080fb00e60047001c
:102f9800914078000181fb00410d21008100410032
:102fa800914078008180fb00e8806000c388de00e3
:102fb80081407800e1c0600000014000a00e2100bf
:102fc800000041008180fb00e1806000c308dd0053
:102fd800100178000230a10082807000010878009a
:102fe80066004700104078000080fb00e6004700bc
:102ff800914078000181fb00410d210081004100d2
:10300800914078008180fb00f0806000c488de0079
:1030180081407800e1c0600000014000a00e21005e
:10302800000041008180fb00e1806000c408dd00f1
:10303800100178000240a100828070000108780029
:1030480066004700104078000080fb00e60047005b
:10305800914078000181fb00410d21008100410071
:10306800914078000181fb0001022000810061008d
:10307800c588de0081407800e1c0600000014000a2
:10308800a00e2100000041008180fb00e18060006b
:10309800c508dd00100178000250a1008280700090
:1030a8000108780066004700104078000080fb00a7
:1030b800e6004700914078000181fb00410d2100a6
:1030c80081004100914078000181fb00010420004b
:1030d80081006100c688de0081407800e1c06000a0
:1030e80000014000a00e2100000041008180fb008b
:1030f800e1806000c608dd00100178000260a100d0
:10310800828070000108780066004700104078004f
:103118000080fb00e6004700914078000181fb0039
:10312800410d210081004100914078008180fb0021
:10313800c708de0081407800e1c06000000140005f
:10314800a00e2100000041008180fb00e1806000aa
:10315800c708dd00100178000270a10082807000ad
:103168000108780066004700104078000081fb00e5
:103178004104210091407800800d210000004100a9
:103188000148780066004700104078008080fb0006
:1031980066004700104078000081fb00800d210088
:1031a800000041001040780061406000614060000c
:1031b8006140600001814000410f21008100410011
:1031c8000080fb0061006000110178000200a1008e
:1031d8000200700080087800660047001040780000
:1031e8000080fb00e6004700914078000181fb0069
:1031f800810d210081004100914078008180fb0011
:10320800e28060008180d10081407800e1c06000e8
:1032180000014000400f2100000041008180fb00b8
:10322800e180600081804000100178000210a10058
:10323800828070000108780066004700104078001e
:103248000080fb00e6004700914078000181fb0008
:10325800810d210081004100914078008180fb00b0
:10326800e4806000c288de0081407800e1c0600030
:1032780000014000400f2100000041008180fb0058
:10328800e1806000c208dd00100178000220a10082
:1032980082807000010878006600470010407800be
:1032a8000080fb00e6004700914078000181fb00a8
:1032b800810d210081004100914078008180fb0050
:1032c800e8806000c388de0081407800e1c06000cb
:1032d80000014000400f2100000041008180fb00f8
:1032e800e1806000c308dd00100178000230a10011
:1032f800828070000108780066004700104078005e
:103308000080fb00e6004700914078000181fb0047
:10331800810d210081004100914078008180fb00ef
:10332800f0806000c488de0081407800e1c0600061
:1033380000014000400f2100000041008180fb0097
:10334800e1806000c408dd00100178000240a1009f
:1033580082807000010878006600470010407800fd
:103368000080fb00e6004700914078000181fb00e7
:10337800810d210081004100914078000181fb000e
:103388000102200081006100c588de0081407800cc
:10339800e1c0600000014000400f21000000410032
:1033a8008180fb00e1806000c508dd001001780025
:1033b8000250a10082807000010878006600470072
:1033c800104078000080fb00e6004700914078003c
:1033d8000181fb00810d21008100410091407800ae
:1033e8000181fb000104200081006100c688de0025
:1033f80081407800e1c0600000014000400f2100da
:10340800000041008180fb00e1806000c608dd000b
:10341800100178000260a100828070000108780025
:1034280066004700104078000080fb00e600470077
:10343800914078000181fb00810d2100810041004d
:10344800914078008180fb00c708de008140780049
:10345800e1c0600000014000400f21000000410071
:103468008180fb00e1806000c708dd001001780062
:103478000270a10082807000010878006600470091
:10348800104078000081fb00510421009140780031
:10349800c00d210000004100014878006600470087
:1034a800104078008080fb00800d21008080400063
:1034b8000e80e80011487800660047001040780048
:1034c8008080fb00c00d2100808040006300470021
:1034d800114878006600470010407800e14f50001e
:1034e8000b003a000e80e800104078000080fb00d6
:1034f80063006000c800dd006300470010407800ea
:103508000080fb0001007000c09588000e003700a5
:103518006600470010407800e24f50000a003a0069
:103528000e80e800104078000080fb006300600017
:10353800c800dd0063004700104078000080fb00f1
:1035480001007000d09588004f0478000080fa00d0
:10355800000006000600fa00881f78000000eb0053
:10356800000f78008040eb000e80e80001487800ea
:103578008040eb0063004700014878008040eb0082
:1035880064004700014878008040eb006500470070
:10359800014878000e80e80011172100914078005a
:1035a8000148780063004700211721009140780006
:1035b80001487800640047003117210091407800e5
:1035c80001487800650047004117210091407800c4
:1035d800014878000e80e80090407800f0c2b300ff
:1035e80080cf5000650036000e80e80090407800db
:1035f80090c3b30080cf500060003e0063004700d6
:1036080090407800f0c2b30080cf50005b003600d5
:10361800630047009040780090c3b30080cf50000b
:1036280056003e006400470090407800f0c2b300a6
:1036380080cf500051003600640047009040780069
:1036480090c3b30080cf50004c003e006500470097
:1036580090407800f0c2b30080cf50004700360099
:10366800650047009040780090c3b30080cf5000b9
:1036780042003e0063004700104078008080fb0055
:10368800400620008088b900800078000e80e8009d
:10369800104078000080fb0002fd2f00000141006f
:1036a800803e20008090b9008080400000d42e0029
:1036b8008080400064004700104078000080fb00d4
:1036c800ea00b900001eb100808040006500470094
:1036d800104078000080fb000003b100008f40001c
:1036e8001e007800cf80de00b5f60700d2cc2c0093
:1036f800c3dc2300ccf60700d0978800e197880048
:10370800d0978000e197800018c0b3000200200025
:10371800032c240087f607000000e00001003c00ad
:103728000044eb000804e00010003200d09780004d
:10373800e197800018c0b300020020006331240024
:103748007af607000000e000010034000044eb00b6
:103758000804e00005003200d0978000e19780005f
:10376800109888002198880004003700109880007d
:1037780021988000d0978800e19788000e80e800a3
:1037880051172100914078000148780063004700f4
:1037980061172100914078000148780064004700d3
:1037a80071172100914078000148780065004700b2
:1037b8008117210091407800014878000e80e800c8
:1037c80090407800f0c2b30080cf5000650036000a
:1037d8000e80e8009040780090c3b30080cf50007e
:1037e80060003e006300470090407800f0c2b300dc
:1037f80080cf50005b00360063004700904078009f
:1038080090c3b30080cf500056003e0064004700cc
:1038180090407800f0c2b30080cf500051003600cd
:10382800640047009040780090c3b30080cf5000f8
:103838004c003e006500470090407800f0c2b3009d
:1038480080cf500047003600650047009040780060
:1038580090c3b30080cf500042003e006300470091
:10386800104078008080fb00400620008088b90066
:10387800800078000e80e800104078000080fb008f
:1038880002fd2f0000014100803e20008090b90019
:103898008080400000d42e008080400064004700f3
:1038a800104078000080fb00ea00b900001eb1005b
:1038b8008080400065004700104078000080fb00d1
:1038c8000003b100008f40001e007800cf80de00aa
:1038d8003bf60700d2cc2c00c3dc230052f60700cd
:1038e800f097880001988800f09780000198800080
:1038f80018c0b30002002000032c24000df60700b6
:103908000000e00001003d000044eb000804e00076
:1039180010003200f09780000198800018c0b300b2
:10392800020020006331240000f607000000e000d8
:10393800010035000044eb000804e00005003200f7
:10394800f09780000198800030988800419888009e
:10395800040037003098800041988000f097880074
:10396800019888000e80e8009117210091407800a6
:103978000148780063004700a117210091407800b2
:103988000148780064004700b11721009140780091
:103998000148780065004700c11721009140780070
:1039a800014878000e80e80090407800f0c2b3002b
:1039b80080cf5000640036000e80e8009040780008
:1039c80090c3b30080cf50005f003e006300470003
:1039d80090407800f0c2b30080cf50005a00360003
:1039e800630047009040780090c3b30080cf500038
:1039f80055003e006400470090407800f0c2b300d4
:103a080080cf500050003600640047009040780096
:103a180090c3b30080cf50004b003e0065004700c4
:103a280090407800f0c2b30080cf500046003600c6
:103a3800650047009040780090c3b30080cf5000e5
:103a480041003e0063004700104078008080fb0082
:103a5800400620008088b900800078000e80e800c9
:103a6800104078000080fb0002fd2f00000141009b
:103a7800803e20008090b9008080400000d42e0055
:103a88008080400064004700104078000080fb0000
:103a9800ea00b900001eb1008080400065004700c0
:103aa800104078000080fb000003b100008f400048
:103ab8001e007800cf80de00c1f50700d2cc2c00b4
:103ac800c3dc2300d8f50700b0908800c1908800b7
:103ad800b0908000c190800018c0b3006011b80099
:103ae80094f507000000e00001003d000044eb00f1
:103af8000804e00010003200b0908000c1908000ff
:103b080018c0b300020020000327240087f507002f
:103b18000000e000010034000044eb000804e0006d
:103b280005003200b0908000c1908000309188007c
:103b38004191880004003700309180004191800055
:103b4800b0908800c19088000e80e800d11721004d
:103b5800914078000148780063004700e117210090
:103b6800914078000148780064004700f11721006f
:103b7800914078000148780065004700011821004d
:103b880091407800014878000e80e8009040780065
:103b9800f0c2b30080cf5000460036000e80e80027
:103ba8009040780090c3b30080cf500041003e00a1
:103bb8006300470090407800f0c2b30080cf500007
:103bc8003c003600630047009040780090c3b30083
:103bd80080cf500037003e006400470090407800d6
:103be800f0c2b30080cf50003200360064004700b6
:103bf8009040780090c3b30080cf50002d003e0065
:103c08006500470090407800f0c2b30080cf5000b4
:103c180028003600650047009040780090c3b30044
:103c280080cf500023003e0063004700104078001a
:103c38008080fb00400620008088b9008000780062
:103c48000e80e800104078000080fb0002fd2f0085
:103c580000014100803e20008090b9008080400033
:103c680000d42e0080804000640047001040780097
:103c78000080fb00ea00b900001eb100808040000f
:103c880065004700104078000080fb000003b10089
:103c9800008f40001e007800cf80de0048f5070046
:103ca800d2cc2c00c3dc23005ff50700d09088003d
:103cb800e19088000e80e8001118210091407800fa
:103cc80001487800630047002118210091407800de
:103cd80001487800640047003118210091407800bd
:103ce800014878006500470041182100914078009c
:103cf800014878000e80e80090407800f0c2b300d8
:103d080080cf5000460036000e80e80090407800d2
:103d180090c3b30080cf500041003e0063004700cd
:103d280090407800f0c2b30080cf50003c003600cd
:103d3800630047009040780090c3b30080cf5000e4
:103d480037003e006400470090407800f0c2b3009e
:103d580080cf500032003600640047009040780061
:103d680090c3b30080cf50002d003e00650047008f
:103d780090407800f0c2b30080cf50002800360091
:103d8800650047009040780090c3b30080cf500092
:103d980023003e0063004700104078008080fb004d
:103da800400620008088b900800078000e80e80076
:103db800104078000080fb0002fd2f000001410048
:103dc800803e20008090b9008080400000d42e0002
:103dd8008080400064004700104078000080fb00ad
:103de800ea00b900001eb10080804000650047006d
:103df800104078000080fb000003b100008f4000f5
:103e08001e007800cf80de00edf40700d2cc2c0035
:103e1800c3dc230004f50700f090880001918800b6
:103e28000e80e80051182100914078000148780080
:103e3800630047006118210091407800014878002c
:103e4800640047007118210091407800014878000b
:103e580065004700811821009140780001487800ea
:103e68000e80e80090407800f0c2b30080cf500088
:103e7800460036000e80e8009040780090c3b300fa
:103e880080cf500041003e0063004700904078001a
:103e9800f0c2b30080cf50003c00360063004700fa
:103ea8009040780090c3b30080cf500037003e00a8
:103eb8006400470090407800f0c2b30080cf500003
:103ec80032003600640047009040780090c3b30089
:103ed80080cf50002d003e006500470090407800dc
:103ee800f0c2b30080cf50002800360065004700bc
:103ef8009040780090c3b30080cf500023003e006c
:103f080063004700104078008080fb0040062000d6
:103f18008088b900800078000e80e80010407800a2
:103f28000080fb0002fd2f0000014100803e2000c0
:103f38008090b9008080400000d42e00808040002e
:103f480064004700104078000080fb00ea00b900d8
:103f5800001eb100808040006500470010407800d6
:103f68000080fb000003b100008f40001e007800b5
:103f7800cf80de0092f40700d2cc2c00c3dc2300f3
:103f8800a9f4070010918800219188009118210058
:103f98009140780000cdb30000c04000e7f2b700c0
:103fa800a11821009140780000cdb30000c0400066
:103fb800e8f2b700b11821009140780000cdb300b5
:103fc80000c04000fef0b700c11821009140780001
:103fd80000cdb30000c0400036f2b700fd1a07005c
:103fe8004f0478000080fa00000006000600fa007e
:103ff8000040eb00004f78008000eb000e80e800e6
:10400800010878008000eb00640047000108780090
:10401800c0c3b30091f1b70050c5b30092f1b70027
:1040280000c3b30093f1b70020c5b30094f1b70003
:10403800d0978000e197800002002000031224003e
:1040480079f407003df4070064014700000978008f
:10405800640047001000780022c5b30011c0b30007
:1040680010010700f09780000198800002002000ee
:10407800031224006cf4070030f4070064014700c1
:1040880000097800640047001000780022c5b300da
:1040980021c0b30003010700b0908000c1908000e8
:1040a80002002000031224005ff4070023f4070035
:1040b8006401470000097800640047001000780098
:1040c80022c5b30031c0b300f6000700d0908000cd
:1040d800e1908000020020000312240052f407003f
:1040e80016f40700640147000009780064004700df
:1040f8001000780022c5b30041c0b300e9000700f2
:10410800f09080000191800002002000031224003a
:1041180045f4070009f40700640147000009780026
:10412800640047001000780022c5b30051c0b300f6
:10413800dc0007001091800021918000020020001f
:104148000312240038f40700fcf307006401470059
:1041580000097800640047001000780022c5b30009
:1041680061c0b300cf000700e7d2bf000043b00032
:10417800adf1b700e8d2bf000043b000aef1b70020
:10418800fed0bf000043b000aff1b70036d2bf0089
:104198000043b000b0f1b7000040eb00004f7800da
:1041a8000b0037009e80fb001019210000804000a2
:1041b800104078000000fb008e80e8009100780035
:1041c800808068000e80e800010878001e4fe80033
:1041d8001e407800ff4f5000f2ff36000e80e800c6
:1041e80090007800000f2000008060004400de008e
:1041f800004078000043b000b1f1b7000e80e8003d
:1042080010007800004078006f4060000043b00064
:10421800b2f1b700e0c3b300b3f1b7000040eb0060
:10422800004f78000c0037009e80fb001019210019
:1042380000804000104078002211070000000000b4
:10424800e111800000082000008060000000e0000c
:10425800fbff32001e4fe80020c2b3009e407800ea
:1042680080cf5000f0ff36000080fa000000060002
:104278000600fa000040eb00004f78008000eb00d9
:104288000e80e800010878008000eb006400470019
:1042980001087800c0c3b30091f1b70050c5b3005e
:1042a80092f1b70000c3b30093f1b70030c4b30074
:1042b80094f1b700108e8000218e8000020020004b
:1042c80003122400d8f307009cf307006401470099
:1042d80000097800640047001000780032c4b30079
:1042e80011c0b3006f000700308e8000418e80003f
:1042f8000200200003122400cbf307008ff307000d
:104308006401470000097800640047001000780045
:1043180032c4b30021c0b30062000700508e800091
:10432800618e80000200200003122400bef3070003
:1043380082f3070064014700000978006400470021
:104348001000780032c4b30031c0b3005500070034
:10435800708e8000818e80000200200003122400ed
:10436800b1f3070075f307006401470000097800fe
:10437800640047001000780032c4b30041c0b300a5
:10438800480007009f0107000040eb00004f78003d
:104398000b0037001e80fb00740140009e80fb006c
:1043a800501b2100008040001040780080407800b9
:1043b8001019210000004100014878001e4fe80054
:1043c8001e407800eb4f5000f2ff36000040eb0033
:1043d800004f78000b0037009e80fb001019210069
:1043e80000804000104078000000fb008e80e8004c
:1043f80091007800808068000e80e800010878004d
:104408001e4fe8001e407800ff4f5000f2ff3600b4
:104418000e80e80090007800000f20000080600007
:104428004400de00004078000043b000b1f1b7005e
:104438000e80e80010007800004078006f406000af
:104448000043b000b2f1b700e0c3b300b3f1b70066
:104458000040eb00004f78000c0037009e80fb0006
:1044680010192100008040001040780095100700c6
:1044780000000000e11180000008200000806000ba
:104488000000e000fbff32001e4fe80020c2b3002e
:104498009e40780080cf5000f0ff36000080fa0080
:1044a800000006001000fa00e801470080097800c3
:1044b8006a004700014878006b004700024878000e
:1044c8000000eb00000f78008040eb000e80e80051
:1044d800014878008040eb006300470001487800fd
:1044e8008040eb0064004700014878008040eb0002
:1044f80065004700014878008040eb0066004700ef
:104508000148780068004700100f78001e00780006
:104518006101b800620798007307980002712200d1
:104528006e029000fe0290000500090042aad80021
:10453800800078000e80e800014878001e007800ae
:104548006101b8000e80e800104078000080fb0090
:10455800017122000100b800000251008182590057
:104568006407980075079800823e20006e0290004c
:10457800fe0290000500090042aad80080007800d9
:1045880063004700014878001e0078006101b80008
:104598000e80e800104078000080fb0001712200c6
:1045a8000102b80063004700104078000080fb005b
:1045b800813e20000100b8000400400085804800ca
:1045c800000251008182590064079800750798001d
:1045d800420620006e029000fe02900005000900cd
:1045e80042aad8008000780064004700014878009b
:1045f8001e0078006101b8000e80e80010407800c5
:104608000080fb00017122000102b800630047002e
:10461800104078000080fb00813e20000100b800b7
:10462800040240008582480064004700104078007a
:104638000080fb00410620000100b8000400400093
:104648008580480000025100818259006407980063
:1046580075079800a20020006e029000fe029000ec
:104668000500090042aad8008000780065004700cc
:10467800014878001e017800d0cc2c000010b8004a
:104688004308de00ea00b90000005100e6004700d8
:10469800804878006b004700104078000080fb00dd
:1046a80031042000810f50007e00320021052000d7
:1046b800810f5000d0003a006a004700104078008f
:1046c8000080fb00e30f500030003200e30f500081
:1046d80005003c00e10f50000a003200e20f5000d4
:1046e800190032006d003700e50f50004900320014
:1046f800e50f500036003500e60f50005600320036
:104708006600370063004700104078000043b0009f
:1047180095f1b70064004700104078000043b000ee
:1047280096f1b70065004700104078000043b000dc
:1047380097f1b70066004700104078000043b000ca
:1047480098f1b70056003700630047001040780022
:104758000043b00099f1b7006400470010407800aa
:104768000043b0009af1b700650047001040780098
:104778000043b0009bf1b700660047001040780086
:104788000043b0009cf1b7004500370063004700c4
:10479800104078000043b0009df1b7006400470066
:1047a800104078000043b0009ef1b7006500470054
:1047b800104078000043b0009ff1b7006600470042
:1047c800104078000043b000a0f1b7003400370073
:1047d80063004700104078000043b000a1f1b70023
:1047e80064004700104078000043b000a2f1b70011
:1047f80065004700104078000043b000a3f1b700ff
:1048080066004700104078000043b000a4f1b700ec
:104818002300370063004700104078000043b000d1
:10482800a5f1b70064004700104078000043b000cd
:10483800a6f1b70065004700104078000043b000bb
:10484800a7f1b70066004700104078000043b000a9
:10485800a8f1b70012003700630047001040780045
:104868000043b000a9f1b700640047001040780089
:104878000043b000aaf1b700650047001040780077
:104888000043b000abf1b700660047001040780065
:104898000043b000acf1b700010037000000000091
:1048a800560037006a004700104078000080fb007f
:1048b800e20f50001b003200e20f500003003c00e2
:1048c800e10f50000600320049003700e30f5000a6
:1048d80025003200e40f5000340032004400370055
:1048e80063004700104078000043b00095f1b7001e
:1048f80064004700104078000043b00096f1b7000c
:1049080065004700104078000043b00097f1b700f9
:1049180066004700104078000043b00098f1b700e7
:104928003300370063004700104078000043b000b0
:1049380099f1b70064004700104078000043b000c8
:104948009af1b70065004700104078000043b000b6
:104958009bf1b70066004700104078000043b000a4
:104968009cf1b70022003700630047001040780030
:104978000043b0009df1b700640047001040780084
:104988000043b0009ef1b700650047001040780072
:104998000043b0009ff1b700660047001040780060
:1049a8000043b000a0f1b7001100370063004700d2
:1049b800104078000043b000a1f1b7006400470040
:1049c800104078000043b000a2f1b700650047002e
:1049d800104078000043b000a3f1b700660047001c
:1049e800104078000043b000a4f1b70000000000b8
:1049f8000000000001003700000000000080fa00fd
:104a0800000006000200fa000040eb00004f7800aa
:104a18008040eb000e00e8000148780011d2bf008a
:104a28000080fb004700de0000407800f2f2b7008b
:104a380011d2bf000080fb004600de000040780075
:104a480061406000f3f2b70011d2bf000080fb00a4
:104a58004500de000040780061406000f6f2b700d3
:104a680011d2bf000080fb004400de000040780047
:104a780061406000f7f2b70011d2bf000080fb0070
:104a88000000d1000040780061406000f8f2b700f3
:104a9800f2d2bf00614060000080fb00610060004e
:104aa8004700dd00018880000170a100010070004e
:104ab80000888800f3d2bf00614060000080fb00de
:104ac800610060004600dd00018880000160a100ef
:104ad8000100700000888800f4d2bf0061406000c7
:104ae8000080fb00610060004500dd000188800057
:104af8000150a1000100700000888800f5d2bf00b5
:104b0800614060000080fb00610060004400dd003f
:104b1800018880000140a100010070000088880021
:104b2800f6d2bf00614060000080fb0061006000b9
:104b38004300dd00018880000130a1000100700001
:104b480000888800f7d2bf00614060000080fb0049
:104b5800610060004200dd00018880000120a100a2
:104b68000100700000888800f8d2bf006140600032
:104b78000080fb00610060000000400001888000a8
:104b88000110a1000100700000888800f9d2bf0060
:104b9800614060000080fb006100600001888000c7
:104ba8000100a100010070000088880011d2bf0038
:104bb8000080fb004300de00004078006140600098
:104bc800d2f1b70011d2bf000080fb004200de0026
:104bd8000040780061406000d5f1b700d2d1bf0035
:104be800614060000080fb00610060004700dd005c
:104bf800118880000170a1000100700010888800f1
:104c0800d3d1bf00614060000080fb0061006000fc
:104c18004600dd00118880000160a10001007000dd
:104c280010888800d4d1bf00614060000080fb007c
:104c3800610060004500dd00118880000150a1007e
:104c48000100700010888800d5d1bf006140600065
:104c58000080fb00610060004400dd0011888000d6
:104c68000140a1000100700010888800d6d1bf0063
:104c7800614060000080fb00610060004300dd00cf
:104c8800118880000130a1000100700010888800a0
:104c9800d7d1bf00614060000080fb006100600068
:104ca8004200dd00118880000120a1000100700091
:104cb80010888800d8d1bf00614060000080fb00e8
:104cc8006100600000004000118880000110a10010
:104cd8000100700010888800d9d1bf0061406000d1
:104ce8000080fb0061006000118880000100a100c5
:104cf800010070001088880004f1a90004d1a900ff
:104d080004b1a9000491a9000471a9000451a900e3
:104d18000431a9000411a90006f1a90006d1a900cf
:104d280006b1a9000691a9000671a9000651a900bb
:104d38000631a9000611a9001087800077800a00b3
:104d480000000000dbf1b7001087800066800a00d1
:104d580000000000dff1b7001087800055800a00ce
:104d680000000000e3f1b7001087800044800a00cb
:104d780000000000e7f1b7001087800033800a00c8
:104d880000000000ebf1b7001087800022800a00c5
:104d980000000000eff1b7001087800011800a00c2
:104da80000000000f3f1b7001087800000800a00bf
:104db80000000000f7f1b700dbd1bf0061406000e0
:104dc8000080fb00610060004700dd005197800013
:104dd8000170a1000100700050978800dfd1bf006a
:104de800614060000080fb00610060004600dd005b
:104df800519780000160a100010070005097880061
:104e0800e3d1bf00614060000080fb0061006000ea
:104e18004500dd00519780000150a100010070009d
:104e280050978800e7d1bf00614060000080fb0018
:104e3800610060004400dd00519780000140a1003e
:104e48000100700050978800ebd1bf0061406000fe
:104e58000080fb00610060004300dd005197800086
:104e68000130a1000100700050978800efd1bf0009
:104e7800614060000080fb00610060004200dd00ce
:104e8800519780000120a100010070005097880010
:104e9800f3d1bf00614060000080fb00610060004a
:104ea80000004000519780000110a100010070002f
:104eb80050978800f7d1bf00614060000080fb0078
:104ec80061006000519780000100a100010070009e
:104ed800509788002087800077800a000000000033
:104ee800dcf1b7002087800066800a00000000001f
:104ef800e0f1b7002087800055800a00000000001c
:104f0800e4f1b7002087800044800a000000000018
:104f1800e8f1b7002087800033800a000000000015
:104f2800ecf1b7002087800022800a000000000012
:104f3800f0f1b7002087800011800a00000000000f
:104f4800f4f1b7002087800000800a00000000000c
:104f5800f8f1b700dcd1bf00614060000080fb00c1
:104f6800610060004700dd00619780000170a100ca
:104f78000100700060978800e0d1bf0061406000c8
:104f88000080fb00610060004600dd006197800042
:104f98000160a1000100700060978800e4d1bf00a3
:104fa800614060000080fb00610060004500dd009a
:104fb800619780000150a10001007000609788008f
:104fc800e8d1bf00614060000080fb006100600024
:104fd8004400dd00619780000140a10001007000dd
:104fe80060978800ecd1bf00614060000080fb0042
:104ff800610060004300dd00619780000130a1007e
:105008000100700060978800f0d1bf006140600027
:105018000080fb00610060004200dd0061978000b5
:105028000120a1000100700060978800f4d1bf0042
:10503800614060000080fb006100600000004000eb
:10504800619780000110a10001007000609788003e
:10505800f8d1bf00614060000080fb006100600083
:10506800619780000100a10001007000609788002e
:105078003087800077800a0000000000ddf1b7006b
:105088003087800066800a0000000000e1f1b70068
:105098003087800055800a0000000000e5f1b70065
:1050a8003087800044800a0000000000e9f1b70062
:1050b8003087800033800a0000000000edf1b7005f
:1050c8003087800022800a0000000000f1f1b7005c
:1050d8003087800011800a0000000000f5f1b70059
:1050e8003087800000800a0000000000f9f1b70056
:1050f800ddd1bf00614060000080fb0061006000fe
:105108004700dd00719780000170a1000100700068
:1051180070978800e1d1bf00614060000080fb000b
:10512800610060004600dd00719780000160a10009
:105138000100700070978800e5d1bf0061406000f1
:105148000080fb00610060004500dd007197800071
:105158000150a1000100700070978800e9d1bf00dc
:10516800614060000080fb00610060004400dd00d9
:10517800719780000140a1000100700070978800bd
:10518800edd1bf00614060000080fb00610060005d
:105198004300dd00719780000130a100010070001c
:1051a80070978800f1d1bf00614060000080fb006b
:1051b800610060004200dd00719780000120a100bd
:1051c8000100700070978800f5d1bf006140600051
:1051d8000080fb00610060000000400071978000c3
:1051e8000110a1000100700070978800f9d1bf007c
:1051f800614060000080fb006100600071978000e2
:105208000100a100010070007097880040878000ad
:1052180077800a0000000000def1b70040878000b8
:1052280066800a0000000000e2f1b70040878000b5
:1052380055800a0000000000e6f1b70040878000b2
:1052480044800a0000000000eaf1b70040878000af
:1052580033800a0000000000eef1b70040878000ac
:1052680022800a0000000000f2f1b70040878000a9
:1052780011800a0000000000f6f1b70040878000a6
:1052880000800a0000000000faf1b700ded1bf007c
:10529800614060000080fb00610060004700dd00a5
:1052a800819780000170a10001007000809788003c
:1052b800e2d1bf00614060000080fb006100600037
:1052c8004600dd00819780000160a10001007000a8
:1052d80080978800e6d1bf00614060000080fb0035
:1052e800610060004500dd00819780000150a10049
:1052f8000100700080978800ead1bf00614060001b
:105308000080fb00610060004400dd0081978000a0
:105318000140a1000100700080978800eed1bf0015
:10532800614060000080fb00610060004300dd0018
:10533800819780000130a1000100700080978800eb
:10534800f2d1bf00614060000080fb006100600096
:105358004200dd00819780000120a100010070005b
:1053680080978800f6d1bf00614060000080fb0094
:105378006100600000004000819780000110a100da
:105388000100700080978800fad1bf00614060007a
:105398000080fb0061006000819780000100a1008f
:1053a80001007000809788000ed2bf006140600045
:1053b8000080fb00610060004700dd00418880003c
:1053c8000170a10001007000408888000fd2bf0062
:1053d800614060000080fb00610060004600dd0065
:1053e800418880000160a1000100700040888800a9
:1053f80010d2bf00614060000080fb0061006000c7
:105408004500dd00418880000150a10001007000c6
:10541800408888000891a9000871a9000851a900ce
:105428000831a9000811a9006087800077800a0068
:1054380000000000fbf1b7006087800066800a006a
:1054480000000000fff1b7007087800077800a0035
:1054580000000000fcf1b7007087800066800a0039
:105468000000000000f2b7008087800077800a0003
:1054780000000000fdf1b7008087800066800a0008
:105488000000000001f2b7009087800077800a00d2
