:020000040000fa
:080000000002040000000000f2
:020000040000fa
:04000800f4050000fb
:020000040000fa
:04000c0036060000b4
:020000040000fa
:040010007606000070
:020000040000fa
:0400140014060000ce
:020000040000fa
:040018005606000088
:020000040000fa
:04001c00e0060000fa
:020000040000fa
:040020009606000040
:020000040000fa
:04002400e0060000f2
:020000040000fa
:04002800e0060000ee
:020000040000fa
:04002c00d4040000f8
:020000040000fa
:04003000e0060000e6
:020000040000fa
:04003400e0060000e2
:020000040000fa
:04003800e0060000de
:020000040000fa
:04003c00e0060000da
:020000040000fa
:04004000e0060000d6
:020000040000fa
:04004400e0060000d2
:020000040000fa
:04004800e0060000ce
:020000040000fa
:04004c00e0060000ca
:020000040000fa
:04005000e0060000c6
:020000040000fa
:040054004a0400005a
:020000040000fa
:04005800ea030000b7
:020000040000fa
:04005c00e0060000ba
:020000040000fa
:04006000e0060000b6
:020000040000fa
:04006400e0060000b2
:020000040000fa
:04006800e0060000ae
:020000040000fa
:04006c00e0060000aa
:020000040000fa
:04007000e0060000a6
:020000040000fa
:04007400e0060000a2
:020000040000fa
:04007800e00600009e
:020000040000fa
:04007c00e00600009a
:020000040000fa
:04008000e006000096
:020000040000fa
:04008400e006000092
:020000040000fa
:04008800e00600008e
:020000040000fa
:04008c00e00600008a
:020000040000fa
:04009000e006000086
:020000040000fa
:040094006a050000f9
:020000040000fa
:040098000a05000055
:020000040000fa
:04009c00e00600007a
:020000040000fa
:0400a000e006000076
:020000040000fa
:0400a400e006000072
:020000040000fa
:0400a800e00600006e
:020000040000fa
:0400ac00e00600006a
:020000040000fa
:0400b000e006000066
:020000040000fa
:0400b400e006000062
:020000040000fa
:0400b800e00600005e
:020000040000fa
:0400bc00e00600005a
:020000040000fa
:0400c000e006000056
:020000040000fa
:0400c400e006000052
:020000040000fa
:0400c800e00600004e
:020000040000fa
:0400cc00e00600004a
:020000040000fa
:0400d000e006000046
:020000040000fa
:0400d400e006000042
:020000040000fa
:0400d800e00600003e
:020000040000fa
:0400dc00e00600003a
:020000040000fa
:0400e000e006000036
:020000040000fa
:0400e400e006000032
:020000040000fa
:0400e800e00600002e
:020000040000fa
:0400ec00b604000056
:020000040000fa
:0400f000d605000031
:020000040000fa
:0400f400e006000022
:020000040000fa
:0400f800e00600001e
:020000040000fa
:0400fc00e00600001a
:020000040000fa
:04010000e006000015
:020000040000fa
:04010400e006000011
:020000040000fa
:04010800e00600000d
:020000040000fa
:04010c00e006000009
:020000040000fa
:04011000e006000005
:020000040000fa
:04011400e006000001
:020000040000fa
:04011800e0060000fd
:020000040000fa
:04011c00e0060000f9
:020000040000fa
:04012000e0060000f5
:020000040000fa
:04012400e0060000f1
:020000040000fa
:04012800e0060000ed
:020000040000fa
:04012c00e0060000e9
:020000040000fa
:04013000e0060000e5
:020000040000fa
:04013400e0060000e1
:020000040000fa
:04013800e0060000dd
:020000040000fa
:04013c00e0060000d9
:020000040000fa
:04014000e0060000d5
:020000040000fa
:04014400e0060000d1
:020000040000fa
:04014800e0060000cd
:020000040000fa
:04014c00e0060000c9
:020000040000fa
:04015000e0060000c5
:020000040000fa
:04015400e0060000c1
:020000040000fa
:04015800e0060000bd
:020000040000fa
:04015c00e0060000b9
:020000040000fa
:04016000e0060000b5
:020000040000fa
:04016400e0060000b1
:020000040000fa
:04016800e0060000ad
:020000040000fa
:04016c00e0060000a9
:020000040000fa
:04017000e0060000a5
:020000040000fa
:04017400e0060000a1
:020000040000fa
:04017800e00600009d
:020000040000fa
:04017c00e006000099
:020000040000fa
:04018000e006000095
:020000040000fa
:04018400e006000091
:020000040000fa
:04018800e00600008d
:020000040000fa
:04018c00e006000089
:020000040000fa
:04019000e006000085
:020000040000fa
:04019400e006000081
:020000040000fa
:04019800e00600007d
:020000040000fa
:04019c00e006000079
:020000040000fa
:0401a000e006000075
:020000040000fa
:0401a400e006000071
:020000040000fa
:0401a800e00600006d
:020000040000fa
:0401ac00e006000069
:020000040000fa
:0401b000e006000065
:020000040000fa
:0401b400e006000061
:020000040000fa
:0401b800e00600005d
:020000040000fa
:0401bc00e006000059
:020000040000fa
:0401c000e006000055
:020000040000fa
:0401c400e006000051
:020000040000fa
:0401c800e00600004d
:020000040000fa
:0401cc00e006000049
:020000040000fa
:0401d000e006000045
:020000040000fa
:0401d400e006000041
:020000040000fa
:0401d800e00600003d
:020000040000fa
:0401dc00e006000039
:020000040000fa
:0401e000e006000035
:020000040000fa
:0401e400e006000031
:020000040000fa
:0401e800e00600002d
:020000040000fa
:0401ec00e006000029
:020000040000fa
:0401f000e006000025
:020000040000fa
:0401f400e006000021
:020000040000fa
:0401f800e00600001d
:020000040000fa
:0401fc00e006000019
:020000040000fa
:04020000e006000014
:020000040000fa
:04020400e006000010
:020000040000fa
:04020800e00600000c
:020000040000fa
:04020c00e006000008
:020000040000fa
:04021000e006000004
:020000040000fa
:04021400e006000000
:020000040000fa
:04021800e0060000fc
:020000040000fa
:04021c00e0060000f8
:020000040000fa
:04022000e0060000f4
:020000040000fa
:04022400e0060000f0
:020000040000fa
:04022800e0060000ec
:020000040000fa
:04022c00e0060000e8
:020000040000fa
:04023000e0060000e4
:020000040000fa
:04023400e0060000e0
:020000040000fa
:04023800e0060000dc
:020000040000fa
:04023c00e0060000d8
:020000040000fa
:04024000e0060000d4
:020000040000fa
:04024400e0060000d0
:020000040000fa
:04024800e0060000cc
:020000040000fa
:04024c00e0060000c8
:020000040000fa
:04025000e0060000c4
:020000040000fa
:04025400e0060000c0
:020000040000fa
:04025800e0060000bc
:020000040000fa
:04025c00e0060000b8
:020000040000fa
:04026000e0060000b4
:020000040000fa
:04026400e0060000b0
:020000040000fa
:04026800e0060000ac
:020000040000fa
:04026c00e0060000a8
:020000040000fa
:04027000e0060000a4
:020000040000fa
:04027400e0060000a0
:020000040000fa
:04027800e00600009c
:020000040000fa
:04027c00e006000098
:020000040000fa
:04028000e006000094
:020000040000fa
:04028400e006000090
:020000040000fa
:04028800e00600008c
:020000040000fa
:04028c00e006000088
:020000040000fa
:04029000e006000084
:020000040000fa
:04029400e006000080
:020000040000fa
:04029800e00600007c
:020000040000fa
:04029c00e006000078
:020000040000fa
:0402a000e006000074
:020000040000fa
:0402a400e006000070
:020000040000fa
:0402a800e00600006c
:020000040000fa
:0402ac00e006000068
:020000040000fa
:0402b000e006000064
:020000040000fa
:0402b400e006000060
:020000040000fa
:0402b800e00600005c
:020000040000fa
:0402bc00e006000058
:020000040000fa
:0402c000e006000054
:020000040000fa
:0402c400e006000050
:020000040000fa
:0402c800e00600004c
:020000040000fa
:0402cc00e006000048
:020000040000fa
:0402d000e006000044
:020000040000fa
:0402d400e006000040
:020000040000fa
:0402d800e00600003c
:020000040000fa
:0402dc00e006000038
:020000040000fa
:0402e000e006000034
:020000040000fa
:0402e400e006000030
:020000040000fa
:0402e800e00600002c
:020000040000fa
:0402ec00e006000028
:020000040000fa
:0402f000e006000024
:020000040000fa
:0402f400e006000020
:020000040000fa
:0402f800e00600001c
:020000040000fa
:0402fc00e006000018
:020000040000fa
:04030000e006000013
:020000040000fa
:04030400e00600000f
:020000040000fa
:04030800e00600000b
:020000040000fa
:04030c00e006000007
:020000040000fa
:04031000e006000003
:020000040000fa
:04031400e0060000ff
:020000040000fa
:04031800e0060000fb
:020000040000fa
:04031c00cc0400000d
:020000040000fa
:04032000ec050000e8
:020000040000fa
:100400008fb021000eff24000e01880000002000a4
:100410000000e000020032000001200020028800fd
:10042000140007008d0207000000e00003003a00fe
:1004300080a42900010020000200370000002000f5
:1004400001002000810f70004220ae000f00070065
:10045000000020000000e0004220ae00000002008a
:1004600000000000f6820200000000000040da00f8
:100470000000fe00c06920000000e0000200320021
:10048000002020009001880000000600a1028800e2
:10049000800478000000eb001f003700e284440075
:1004a00054a0b4009905ba00e284440054a0b400fa
:1004b0009906ba00e284440054a0b4000006eb00a0
:1004c000476fde00fd07b200ae018800636ce100fb
:1004d00003003a000ad801000000eb000e003700cc
:1004e000606ce10008003a00004deb000a05e800ee
:1004f000020039003420ec000af0a0008b05e9006e
:10050000f9ff3e00040037006168e100010032009d
:100510000086eb000b00070019c7ba001905ba00e6
:100520000e04e00003003a000a00e000dbff3a009e
:1005300000000600fe07b200ae0288008a047800c0
:10054000f5ff37000cd0a300e20f4d001c003b006c
:1005500089027800354dba000a05e800020039002a
:100560003420ec000af0a0008b05e9000f003200f7
:10057000254dba000a05e800020039003420ec00dd
:100580000af0a0008b05e900080032000c00e00032
:100590000600320015cdba000a05e8000200390055
:1005a0003420ec000af0a0008b05e9008984e80003
:1005b00054a0b4000b00e000e2ff3a000000060087
:1005c0009902ba00055d78008b05e900f7ff32005b
:1005d000c82ade00055d78008b05e900f3ff3200d4
:1005e0000c00e000f1ff320019ddba00eeff370029
:1005f0006100e10001003200100005005400f80025
:1006000010102000a002880000f925001000ba0098
:100610005400f9000700220000f0a6008703d10073
:100620000703780001c4fe000003eb001120200046
:1006300091018800c10a2a00111303008703e90011
:10064000fdff3a0000f0a7000000050000f0a00048
:1006500080c4fe0086037800f3ff37000408200002
:10066000010037000002eb006100e10001003200f0
:10067000100005003200f8003400f8008102780014
:10068000930188003200be000100e0000c0032003f
:100690000470a70000f0a00032037800c733de002a
:1006a000848343004220af008703e800a70188004d
:1006b000f607b2007f30e100040032002000200085
:1006c0003400f9003200f900000006008100e90062
:1006d0000500e00003003a00018009003210030029
:1006e000e8ff37000180090032900300d561ae00b9
:1006f000e4ff370030002000f1ff370050052000f4
:10070000b00e8800a00a2000b00e8800d3e1a80037
:100710000000060050052000b00e8800a00a20004e
:10072000b00e8800d3e1a900000006004c70040060
:10073000000000007870040000000000b8700400a1
:1007400000000000a270040000000000466f0400da
:1007500000000000646f040000000000f47004005a
:1007600000000000f66e040000000000428f04004c
:10077000000000006e8f040000000000ae8f040037
:1007800000000000988f040000000000068f0400a5
:1007900000000000248f040000000000ea8f040025
:1007a00000000000b68e0400000000005e6f040030
:1007b000000000007c6f040000000000de9b0400cd
:1007c000000000001e8f0400000000003c8f0400a9
:1007d000000000003600f800809fbe00829fbe002f
:1007e000849fbe00869fbe000000fa00a0848000a7
:1007f0000000e00002003200a08480000000010040
:10080000f1828000e0828000808f500002003a0078
:100810002188a900180037000188a90010003700be
:10082000f0828000904078008180fb0041128800b7
:100830000000e800f0828800f182800030972100fb
:10084000808f500002003a00a0962100f0828800bc
:10085000f1828000e0828000808f5000050032002d
:10086000f0118000700060000000e000ecff32003a
:1008700001003700000000000080fa004f03be00b6
:100880004f02be004f01be004f00be003600f9000f
:10089000004006003600f800809fbe00829fbe0028
:1008a000849fbe00869fbe000000fa000168a90078
:1008b0001e003700c18280002012800000407800b6
:1008c00080487800c1828000b0972100808f50005e
:1008d00009003200c08280000000e800d182800060
:1008e000810f500004003200c08280000000e80048
:1008f000c08288000d003700c1828000b0972100bf
:10090000808f500007003a00d1828000309721008c
:10091000808f50000300320030972100c082880091
:100920000200370010c0b30060f0b700f011800083
:10093000620060000000e000deff3200b084800052
:100940000000e00002003200b084800000000100de
:100950000080fa004f03be004f02be004f01be00f0
:100960004f00be003600f90000400600801f7800ee
:100970000000fa00e0118000620060000000e0006a
:10098000010032003c22a9000628a9000080fa00dc
:100990004f007800004006000000fa0017a8a900e8
:1009a0000080fa00004006003600f800809fbe007c
:1009b000829fbe00849fbe00869fbe000000fa009a
:1009c000e08680000000e00002003200e086800047
:1009d0000000010050b02100104078008040e80085
:1009e00050b021000148780040b0210011c0b30090
:1009f000014878000028a9000080fa004f03be00db
:100a00004f02be004f01be004f00be003600f9008d
:100a1000004006003600f800809fbe00829fbe00a6
:100a2000849fbe00869fbe000000fa0060868000a2
:100a30000000e0000200320060868000000001003b
:100a40004186800030868000808f500002003a008e
:100a50002388a900180037000388a9001000370078
:100a600040868000904078008180fb0081138800e0
:100a70000000e800408688004186800090ae21009a
:100a8000808f500002003a0000ae210040868800ae
:100a90004186800030868000808f50000500320043
:100aa00030138000700060000000e000ecff3200b6
:100ab00001003700000000000080fa004f03be0074
:100ac0004f02be004f01be004f00be003600f900cd
:100ad000004006003600f800809fbe00829fbe00e6
:100ae000849fbe00869fbe000000fa0070868000d2
:100af0000000e0000200320070868000000001006b
:100b00000368a9001e003700118680006013800072
:100b100000407800804878001186800010af2100e6
:100b2000808f500009003200108680000000e8002d
:100b300021868000810f5000040032001086800062
:100b40000000e800108688000d0037001186800044
:100b500010af2100808f500007003a0021868000ee
:100b600090ae2100808f50000300320090ae210033
:100b7000108688000200370010c0b300caf0b7002a
:100b800030138000620060000000e000deff3200f1
:100b90000080fa004f03be004f02be004f01be00ae
:100ba0004f00be003600f90000400600801f7800ac
:100bb0000000fa0020138000620060000000e000e6
:100bc000010032006422a9000648a9000080fa0052
:100bd0004f007800004006000000fa0017c8a90086
:100be0000080fa00004006003600f800809fbe003a
:100bf000829fbe00849fbe00869fbe000000fa0058
:100c0000c028a9000000eb00474d07000080fa0053
:100c10004f03be004f02be004f01be004f00be009a
:100c20003600f900004006003600f800809fbe0044
:100c3000829fbe00849fbe00869fbe000000fa0017
:100c40003e4d0700c048a90010002000364d0700a7
:100c50000080fa004f03be004f02be004f01be00ed
:100c60004f00be003600f900004006003600f800d4
:100c7000809fbe00829fbe00849fbe00869fbe00f4
:100c80000000fa00c068a90020002000264d0700df
:100c90000080fa004f03be004f02be004f01be00ad
:100ca0004f00be003600f900004006003600f80094
:100cb000809fbe00829fbe00849fbe00869fbe00b4
:100cc0000000fa00c088a90030002000164d07007f
:100cd0000080fa004f03be004f02be004f01be006d
:100ce0004f00be003600f900004006003600f80054
:100cf000809fbe00829fbe00849fbe00869fbe0074
:100d00000000fa00c608a90070002000064d070088
:100d10000080fa004f03be004f02be004f01be002c
:100d20004f00be003600f900004006003600f80013
:100d3000809fbe00829fbe00849fbe00869fbe0033
:100d40000000fa00214680000010200000806000b2
:100d50000000e00003003200c508a900c000200028
:100d6000f14c070021468000000220000080600056
:100d70000000e00003003200c4a8a9009000200099
:100d8000e94c070020468000700060000000e00091
:100d900003003200c488a900a0002000e24c070034
:100da00020468000610060000000e0000300320087
:100db000c408a900b0002000db4c0700ffff37008b
:100dc0000040da000000fe000a00fa00e4014700db
:100dd0008009780066004700010878006800470035
:100de000020878000e80e800e6004700110878004d
:100df0000000eb00000f78000f003700000000003b
:100e0000db3407000004a2000004e000fcff3a000d
:100e10000e80e80010007800104078008e80e80016
:100e2000910078000101e8008e80e80082087800d7
:100e3000af3407001e0fe80068004700100078007c
:100e40009e007800808f5000ecff3900680047005a
:100e5000100078000080fa00000006000000050085
:100e6000f4ff2f00ab0337000001be003f00070076
:100e70000470a70003f0a1006509b100160032005c
:100e80000d0035006828e10006003500f0ff2f0056
:100e9000f1ff27000300e00013003b0001002800e1
:100ea0000000050000004000818048008502e90044
:100eb000fcff3a0008003700f88f420002003c00b7
:100ec0008000eb00000005008100d1000080d3000d
:100ed0008502e800fcff3a000300e00002003b004e
:100ee00060001000e0801800000006000001be0055
:100ef0001e0007000470a70003f0a10003f8a30080
:100f000013003a006509b1001000320009003500f5
:100f10006928e100020035000100280000000500fa
:100f200000004000818048008502e900fcff3a0093
:100f300000000600f88f4200050035008100d10056
:100f40000080d3008502e800fcff3a0000000600a4
:100f50008000eb00000005004f89de008201780070
:100f600087033700040020006a033700c70ade0049
:100f7000f107b200f50fb20008003200e1cf4200e5
:100f8000020032000170a00024000500810f7000f3
:100f9000010032000408050044000500810f7000c4
:100fa00002003a00140005008502e900000040003c
:100fb00081c04800fcff3b000170a0002400050038
:100fc00007f82700078361000638e10004003a00b3
:100fd000f7072000878361008703710001003a0052
:100fe00003f0a200889fbe008a9fbe008c9fbe00b7
:100ff000470ade000480a100c71ade000580a100b8
:10100000070028000785600087856100f70f200032
:101010000720e1009e0032000728e1009c0032001a
:10102000010678000400e000b4003200f707200059
:10103000878060000170a0000500e000c000320061
:10104000f7072000878161000370a00005065200a9
:101050000f003a000b50e1000b0032000308e100e2
:1010600002003a000200e1007e003200020450005b
:1010700083845800040031000001fd008101fd005f
:101080008402fd008a05fd006044b800210037009d
:101090000520e10005003d000001fd008101fd008b
:1010a0008402fd008a05fd00050652007a60e10019
:1010b000050035000170a1004722dd00848070002a
:1010c0008a807000630037006044b800ef02660059
:1010d00007ff2f00070666000500e0000600340049
:1010e000f08312008714dd000511de00071bdd0010
:1010f000060171008519de007060e1000500350011
:101100000904780082047800030178008001eb0074
:10111000700656000b50e10003003a000200400048
:10112000838048000400370060041400e0841c0041
:1011300002005800838058000188a3000600320096
:101140008100d1000080d3008984d3000884d300bb
:101150000402e800270037000178a30025003a00c8
:101160000100e000030032008186cf00698656004e
:101170000a0037008c0020000000e00004003a0064
:1011800009007800880478000004eb007002520027
:101190008086cf000d0646000c06e9007060e10075
:1011a0000600350080007800090078008804780087
:1011b0000004eb0070065600700252000c00e000c4
:1011c0000c0034008c08dd00f00316000703de007d
:1011d000868070000c00dd00074bde00060070000a
:1011e0008c4cdd000743de00868474000c44dd0077
:1011f0000c0252006120e100200035006101600016
:101200000700280087816400f7ff270087836400b8
:10121000070374000300e00006003200820373003d
:10122000040032000000e800e08048000188a300cc
:101230000e003a00f70f20000720e1004a003d00b1
:101240000170a1004722dd00810072008a807000d9
:101250000000be004f06be004f05be004f04be009a
:10126000000006006000b800faff37008100d100de
:101270000080d3000402e800eeff3700040178008c
:1012800089017400a10107008a807000f1ff370016
:10129000f7010700070278000001fd008101fd0051
:1012a000f301070087027800850372000778a30026
:1012b000040032000001fd008101fd00060207006c
:1012c000e4ff3700850362000768a30008003200ce
:1012d0000b50e10003003200f0ff2f00f1ff270068
:1012e000dcff37000001fd008101fd00d9ff370060
:1012f0000468a300d7ff3200faff3700f8ff270089
:10130000888360000b003a000000e00009003a000a
:101310008303640082837300020032000200be0077
:10132000ccff37000b50e100ceff3a000200be00b8
:10133000c8ff370014002000810064003eff370022
:10134000f8ff27008883610004003a000200e000f3
:1013500002003a008c007800beff37001500200024
:101360008301640039ff370001f8270000002000e6
:1013700081007500b7ff3700889fbe008a9fbe00be
:101380008c9fbe001b0020000202be000586680084
:1013900006002800060666004709de00f20fb200cc
:1013a000820032000243e80080003200c729de00dc
:1013b000f30fb2007d0032000343e8007b003200ef
:1013c000f107b2000170a000f507b2000570a0009f
:1013d000c708dd004903de00868070004700dd009d
:1013e000c72add004923de00868272004722dd0025
:1013f00003055100040350008583580003003100a9
:1014000000004000818048000a05e9008c1f780038
:101410008a9fbe00040050008580580004024200ec
:1014200085824a0000004000818048000005eb00f2
:101430000004be006033b8000406be000d48e100a1
:1014400056003100050009004dccd8000c01b80051
:101450000d02b8008481410060824a0082835300fb
:1014600003045c0084845c0060055d000a00e00009
:1014700025003a00800578000d40e1004900310068
:101480008800780007007800050009004d88d80022
:101490000c01b8000d02b8008481410060824a004e
:1014a0006003110083835b0004045c00e0845c0043
:1014b0000900e00021003a004f01be000300e000f7
:1014c0002b003200e3016000070673008c8171007d
:1014d00001003200640070004200de004e5edd005c
:1014e0000c007000c258de0001e0a000830107007c
:1014f000cf017800818071004f06be004f05be000d
:101500004f04be00000006008c8343000d044c0015
:10151000e0844c0060054d000000e9000a00e00096
:10152000d4ff32008c8343000d044c00e0844c0057
:1015300060054d000000e900ceff37000c034300ba
:101540008d834b0060044c00e0844c000000e900f7
:101550000900e000d8ff32000c0343008d834b00ec
:1015600060044c00e0844c000000e900d2ff37002a
:101570004200de004e5edd000c007000c258de004e
:1015800001e0a000cf0178000300e000daff3200a4
:1015900060001000e0801800d7ff3700f0ff2f0038
:1015a000aaff3700f0ff2f00b9ff37000404be0088
:1015b0002f010700870678000004fd008104fd006c
:1015c0002b010700078366000678a30003003200a2
:1015d0000960a7000800be002c0037000d78a300aa
:1015e000020032000800be00280037000778a30080
:1015f00026003a0001f0a10009f0a1000668a3004e
:1016000003003200f1ff2700f0ff2f00baff370080
:101610000d68a300030032000800be008c8070003b
:10162000b5ff37000768a30007003a000648a3008b
:1016300003003200f1ff2700f0ff2f00aeff37005c
:101640000d48a300030032006000b8008c807000d9
:10165000a9ff37000748a3000400320001f8270063
:10166000000020008c807000a3ff37007601070087
:101670000004fd008104fd000205780072010700ee
:101680000802be008a01780059ff37000160a000ff
:10169000120220001287880097ff37000100e00047
:1016a000120032000500e00010003200889fbe00ea
:1016b0008a9fbe008c9fbe000006eb0001f8a300cd
:1016c0000300320060001000e08018000cf0a00061
:1016d00005f8a3000300320060021200e0821a0045
:1016e0000cf0a2008005eb0041ff37006000b8005d
:1016f0000200050003836800070028000703630059
:10170000470ade000480a100c71ade000580a100a0
:10171000f70f20000720e100420032000728e10017
:1017200040003200889fbe008a9fbe008c1f780058
:10173000f107b200f307b2000400e00064003200d9
:101740000170a0000500e000680032000370a000f6
:1017500085054200eb07b1000204b8000302b8009f
:101760008484440060854a00020ab80084844400ee
:101770000a854a00030ab800040545000400330046
:101780000804d0008984d2000a85d2008b05e900c4
:101790006158e1003d0035000210200009016100a0
:1017a0000308200089816100f70720008783640017
:1017b00008867300c84cde00c853dd0087847400bf
:1017c0004855de000300e000060032008203760088
:1017d000040032008904e80060054d000a88a30077
:1017e0000c003a00f70f20000758e10044003d00cc
:1017f0000a70a100c75ddd000a8575008a007300cc
:10180000090078004f0678004f05be004f04be0067
:10181000000006000a05d1008984d3008b05e8008a
:10182000f0ff3700881f780006047800900007005a
:10183000070278000001fd008101fd008c00070017
:1018400087027800850372000778a3000500320044
:101850000001fd008101fd009f0007004f0478009a
:1018600000000600850372000748a3000300320051
:10187000f0ff2f00f1ff2700f8ff370000002000e5
:1018800001f8270088807000f4ff37008801780095
:101890004848dd00808171004848de00c850dd0006
:1018a00001007000c850de00060478000b017800cb
:1018b0001600070088807000d2ff37000500e000a6
:1018c00005003200170020003a0007009dff370096
:1018d00081037000f9ff3a00860078004f06780017
:1018e0004f05be004f04be000000050083037100d9
:1018f000f9ff3200270020002e00070094ff370078
:1019000001f8270086807000f4ff37000100e00036
:1019100026003200610111007810e10023003c0034
:101920006022b8007010e1000400350080027800e9
:10193000010078008000eb00700151000200e0001f
:101940000900340070031100062add00822ade003f
:101950008603dd00878272000200de00860bdd0058
:10196000070070008208de0084817100f4ff270008
:101970000482620084817100040028008482620075
:101980006102600005f0a6000000060004827100fc
:10199000070032000000e800e08048000000060078
:1019a0000002be006000b800efff37006000b80022
:1019b00000000600889fbe000004eb006138e100d3
:1019c00016003a000100e00008003a00c800de00fe
:1019d0004800dd00880020000100e00003003a001c
:1019e000c800de004800dd00680444008184cf00a8
:1019f000e9845400060034008908dd00f0831400f7
:101a00008703de00878070000900dd0009044400c0
:101a1000610214004f04be00000006000300e00055
:101a200008003a00c811de004811dd0088002000df
:101a30000300e00003003a00c811de004811dd0099
:101a4000680444008384cf00e98454000600340015
:101a50008919dd00f08314008713de00878171008f
:101a60000911dd0009044400e1021400e9ff370018
:101a70002700200001f0a70017002000470bde0020
:101a8000f60fb200040032000643e8000a003200fc
:101a90004702b3000000060001037800f607b20019
:101aa0000603700002003a000703b30000000600be
:101ab0008702b3000000060001037800f607b200b9
:101ac00006037000020032000770a000000006004c
:101ad0000760a000000006000478a30004003200a4
:101ae0000578a300030032000168a30001003a005a
:101af0000200be000160a00000000600810170002d
:101b0000270032008002eb0001f8a300030032003e
:101b100060001000e080180015002000f40720008d
:101b20000202420020003400f70320008703600017
:101b30000604200000036300020820000001610089
:101b40004700de00c909dd0000807100c708de0023
:101b50000600e00008003200870371000600320032
:101b60001000b0000180b0000188a3000200320024
:101b7000c108de000402e800f107b200f30f200004
:101b80000320e10003003d004722dd0081007200d8
:101b90002900370001f827000000eb00260037007d
:101ba0006000b80000000600680212007f20e1001b
:101bb000020034006000b8001f0037006011b80058
:101bc0007020e100040035008001780001007800f9
:101bd0008000eb00700252000400e00009003400b5
:101be000f00312000719dd008419de000703dd0091
:101bf000868171000400de00070bdd000600700026
:101c00008408de00f7ff27008383630087037100e9
:101c10000600280003036300070032000700e0000d
:101c200003003a006101600002817300020032008b
:101c30001000b0000180b0000500a6000000060002
:101c400001f0a000000006004f0ade004709de0098
:101c5000f107b200f20fb2000b003200f207b10040
:101c60000170a000c708dd00c901de00838070009c
:101c70004700dd000400a600000006006000100020
:101c8000e080180000000600810f700001003a009b
:101c9000000006008182cf000500e00010003e0039
:101ca0008082cf00ee8242007028e10004003900fb
:101cb00007003e00800078000000eb000e003700b7
:101cc000708312008600de000500dd000a00370088
:101cd000708352008600dd000000eb000600370034
:101ce000e28252008508dd00708312000603de00e8
:101cf000868070000500dd007507b0000501ea0070
:101d00000400a6000000060060001000e08018003b
:101d100000000600889fbe008a9fbe00841f7800d6
:101d20007c0007004f00780011003300f0ff2f0007
:101d3000838f6c0006003b00040565000a00a700c5
:101d40000800370009f0a600100020000800370046
:101d5000820f5400838f5c000300390010002000c4
:101d600001003e000000200009f0a7000000ea008a
:101d70004f05be004f04be000000e000000006005a
:101d8000881f7800030478000300e00007003d008e
:101d900060001000e080180060011900e081190067
:101da00002003b0001f02d00030037000400070093
:101db00008f0a70001f0a0004f0478000000060022
:101dc000889fbe008a9fbe000082700004027100de
:101dd00004827100260032000004be000200be0032
:101de0006011b8006b092000950220000182cf002d
:101df0000a0039000541b1000082cf000700390018
:101e00000541b1000982cf00040039000541b1004d
:101e10000882cf00010039000541b100054252009f
:101e2000120032000a003b008281710061016400ef
:101e30008100d1000080d3008984d3000884d300be
:101e40008b05e8000442e800f7ff3a00070037007e
:101e50000804440089844c00000048008180480048
:101e60008b05e9000442e900f9ff3a00030007008e
:101e70004f05be004f04be00000006008100200098
:101e8000618055000b003d000b00200061fe2f001b
:101e90000100e1001d0034008281710061016400d5
:101ea0008904d1000884d3000000e800faff3a005a
:101eb00071002000610064000300700002006000f7
:101ec0000900320061044400e0844c000988a50048
:101ed000050032008b05e8006808e10002003a00c6
:101ee0008904d1000884d300f20f20000258e100d9
:101ef00005003d00c75ddd00f907b200898075006f
:101f000008007800000006000bf827008b0078001e
:101f1000000005000004be0014fc07000003be0022
:101f20000405be000200be0010fc0700844f7500cf
:101f3000000006000400fa00889fbe008a9fbe00d1
:101f40008c9fbe000004be004708de00f00fb20008
:101f500051092000810f500041003c000806be00de
:101f6000e00f5400e08f5c0003003d000805be0058
:101f70000bf0a200010037000805be00d1072000c9
:101f8000810f50000a003c000200200003b0240032
:101f90000a00be0013fc070080bf9f0091bf9f0096
:101fa0006011b8000800be00d2fd07002b0037000a
:101fb0000200200003b024000a00be0009fc070054
:101fc0000200200003b02400fdfb07000a01be0050
:101fd000fbfb07000004be000200200003f023000a
:101fe0009ffb07000000e000070034000a01be006c
:101ff0000800be00fbfb07000200200003f82300de
:10200000effb07000f0037000200200003f02b0059
:102010000800be00b40507000000e00006003c0018
:102020000a01be000800be00eefb0700020020000f
:1020300003f82300020037000a01be000800be00ba
:10204000e8fb0700e00f5600e08f5e0003003d0054
:102050000004be0009f0a200010037000004be0029
:102060000800be004f06be004f05be004f04be0074
:102070000080fa00000006008001780002003700ae
:10208000b15978000201e9000200e000fcff3a00cb
:10209000000006000000fa00cfb8970068815700e2
:1020a000e60107000080fa000000060004000700b7
:1020b0005d0007000f01070037010700910037009e
:1020c000ec874700889fbe008a9fbe008c9fbe00a1
:1020d0008e1f780000067800010478001807900031
:1020e0002805900098067800cdb79f00b8059000ad
:1020f0003202be002203be000400be000601be0084
:102100004f18de006011b8008000eb00d0b79f00d0
:10211000e1b79f00f2b79f0083bf9f008004780063
:102120000900e000060032006000b8006011b8004d
:102130000402500085825800060359008783590025
:102140000e00e000020035000d10a100cdb79f0089
:102150000900e00005003a004fb097000028a300f6
:1021600002003a000038a300020032008a00e900b1
:10217000010037008a007800f8815700a200200093
:1021800008007800890007000900e00003003a0019
:10219000cfb097000128a300080032000000e9003a
:1021a00000814500b1c2b3000900e0000100320027
:1021b000d1c2b30001497800060037000138a300fe
:1021c000040032000000e9008080450002c2b30034
:1021d00082487800480190000201e90000015100a6
:1021e000808045004fb297008a0178000c0078008b
:1021f000aa0107009c0090000188a300040032009f
:1022000098009000810f500001003d00010078000f
:102210004f0778004f06be004f05be004f04be00ba
:10222000cf00b100000006000200fa00889fbe0047
:102230008a9fbe0000057800010478000200780043
:1022400018019000a805900098007800b1bf9f0089
:10225000b80490000200e000020035000110a10067
:10226000b1bf9f00ea815700820020008b007800f8
:102270003002be002003be00080078004b000700bb
:102280003fb99700f0006100040032000000e9004f
:102290008080440002c3b300824878003fb99700b1
:1022a000e8006100040032000000e9008080440082
:1022b00002c2b30082487800480190000201e900a0
:1022c00000015100808044003fba97008b017800e4
:1022d0000a007800710107009a0090000188a300ad
:1022e0000400320098009000810f500001003d0072
:1022f000010078004f05be004f04be000080fa00c8
:1023000000000600ea874700889fbe008a9fbe0043
:102310008e1f780000047800030078007287570051
:1023200084e2260055c72600049fbe00c396220003
:10233000030f78006c875700004feb0011059000e9
:10234000a1049000910578000200e0000200320034
:102350000207780001003700728757000000e00094
:1023600002003a000e007800850307000a00e00032
:10237000030035008a0f5000010036000a00780083
:102380000b02780089017800000178008e00780047
:1023900008007800410107004f0778004f05be0094
:1023a0004f04be00af00b10000000600f4874700f4
:1023b000889fbe008a9fbe008c9fbe008e1f780043
:1023c0000605be000404be0081bf9f0082b79f00c7
:1023d000f3b79f00b0009000e1b79f0013017800b1
:1023e00092b79f0090069000400690000c06e9000e
:1023f0000d00e00001003d001d002000efb197003e
:102400000c8041000048eb001e0020001f00370038
:102410000c06e9000fb09700cf80de006109b9001b
:10242000a0b79f00b1b79f00c2b79f00d3b79f006e
:102430000203be000002be000800be000a01be008a
:102440005a05070000077800efb097000c804000a5
:1024500003c3b300034847008d06e9000fb8970097
:102460000000e90080bf9f002fb29700bfb2970025
:102470004fb39700dfb397000800be000a01be000b
:10248000430507000205be000004be000c00e0008a
:102490000d003200e00f5400e08f5c00e00f5d00a3
:1024a000e08f5d00daff3a000d00e000d8ff3c004d
:1024b0008fb897000100e000030034001fb19700bf
:1024c0000218a300d2ff3a000e00e00002003a001a
:1024d000ffb197001340a1000c0078004f0778006f
:1024e0004f06be004f05be004f04be004f01b100b5
:1024f000000006000200fa00889fbe008a9fbe000e
:10250000800478000104780002007800180190002f
:102510002805900098007800b1bf9f00b805900092
:102520000200e000020035000110a100b1bf9f00d1
:10253000ea815700a20020008a0078003002be0025
:102540002003be000800780098ff070048019000b3
:102550000201e90000015100808045003fba970068
:102560008a01780009007800cc00070099009000eb
:102570000188a3000400320098009000810f5000f1
:1025800001003d00010078004f05be004f04be0071
:102590000080fa0000000600fa874700889fbe000e
:1025a0008a9fbe008c9fbe008e1f7800800478003a
:1025b0000104780082057800180190002805900039
:1025c00018077800b80090000200e0000200350013
:1025d0000e10a100010037001200200070006700fb
:1025e000e0b79f00090032003b02be002b03be0093
:1025f000e00f5200e08f5a00e00f5b00e08f5b00bd
:10260000020032008a86e900010037008a0678005d
:10261000e8026700f5b79f00010032008d06e9006f
:102620003b02be002b03be00e4af9f00f5af9f004e
:1026300086b79f0097b79f00480690000c06e900f8
:102640000c8040000048eb00efb297007fb297008b
:102650008903780081047800d8af9f0002047800d5
:102660008bbf9f008a057800034578002b00370058
:102670000c06e9006fab97006f006300e90f500094
:1026800002003c000003b000010037007005b000fc
:102690000a03fb001604b100f90f53000c003e00c2
:1026a000000378000650a0001606b100f90f530091
:1026b00007003e00b4b79f00a5b79f00c7b79f00b3
:1026c00031030700cfb39700afb297003fb2970036
:1026d0000c834400004b78000804e9008d06e900f3
:1026e0006fa89700ffa897000fb197009fb19700c0
:1026f000460020008301d1000281d3008180d300f5
:102700000080d3000603e900faff3a00e0af9f0023
:10271000f1af9f0082b79f0093b79f00e10f560073
:102720000f0036006fa89700ffa897000fb1970021
:102730009fb19700e00f5000e08f5800e00f590064
:10274000e08f5900caff3a000800e000c8ff3c00d3
:102750000d00e000020034000e18a300c4ff3a0090
:1027600089007800f4b79f00870478005fac970079
:102770008a4178000b0578008fbd97000500e000c6
:10278000120032003b02be002b03be00e4af9f00ec
:10279000f5af9f0086b79f0097b79f00e00f5200ec
:1027a000e08f5a00e00f5b00e08f5b000700320013
:1027b0000c06e9000c804000034878000c06e90094
:1027c0000c80400002c3b30002487800ffb29700bb
:1027d0000500e000040032000c06e9000c80400017
:1027e00002c2b30002487800480190000201e900eb
:1027f0000c0151008c8040000e0278008a017800a4
:102800000900780025000700990090000188a300c6
:102810000400320098009000810f500001003d003c
:10282000010078004f0778004f06be004f05be003c
:102830004f04be00af01b100000006008201780025
:1028400001017800f1ff270065023700889fbe0074
:102850008a1f780080047800490090000204780004
:10286000800f540001003600000478000801780051
:102870006a8544001a007800fffd07001a00440032
:10288000000d7800e8844400990c14000048eb0027
:102890004f0578004f04be0000000600f287470095
:1028a000889fbe008a9fbe008c9fbe008e1f78004e
:1028b0008004780001057800020478008305780020
:1028c0006107620002003a008b0f540008003900d3
:1028d000080178008a00780009007800dbff070013
:1028e0008b0f540002003900880578001e00370065
:1028f000088655000c017800f00f560001003600e4
:1029000002012000010220007e805700b90107006b
:102910008c0678000500370002012000fe80570079
:1029200009007800c9ff0700f0865600ef8f5600b7
:10293000f9ff3e004461de0000ff2f008091b900e6
:102940000c014100fe80570009007800bfff07001e
:102950000e00e00004003a00080178008a007800c8
:1029600009007800b9ff07000b0078004f077800d6
:102970004f06be004f05be004f04be002f01b10040
:102980000000060000000500000005000000050032
:10299000000178000040eb008080fb008180400057
:1029a00063ab210081814100134278000404e00000
:1029b00004003a0070ab2100810040001140780013
:1029c0000000060092017800934f520005003a0083
:1029d00070ab210081004000114078000309e8003d
:1029e000010037000040e800ea4f5000eaff3600df
:1029f00000000600f6874700889fbe008a9fbe0041
:102a00008c9fbe008e1f780080047800010478003f
:102a100083057800040678000000eb00c0b79f0033
:102a20008080eb00d1b79f00e0b79f00f2b79f0016
:102a30000008200080bf9f00980078000100780007
:102a40000005eb00010037000a05e800304178007e
:102a50000204e0000300320053c2b300834f510070
:102a6000f9ff3a000a00e000040032000a01780091
:102a70000900780075ff0700180c4500180778005a
:102a800050c2b3009e4f100033013a000e07e80019
:102a90000e0c780010003700cfb097000100a000a6
:102aa0000b003700cfb097000110a00008003700de
:102ab000cfb097000120a00005003700cfb09700ed
:102ac0000130a00002003700cfb097000140a00005
:102ad000c1b79f00000ce800180078009040780013
:102ae000b2c2b30082cf5000f1ff320007003c00b9
:102af00002c2b30082cf5000f0ff320032c2b300f6
:102b000082cf500007003a00efff3700d2c2b30077
:102b100082cf5000e0ff320002c3b30082cf5000ea
:102b2000e0ff3200a2c2b30082cf50000d003a0095
:102b3000000ce8001c80e900000e7800100078000e
:102b4000e0b79f000000e0000f003d00cfb097000d
:102b50000100a200c1b79f000000ea00e0b79f009b
:102b600009003700db010700e0b79f0001003700d4
:102b7000000ce800180078009000fb000103b10091
:102b8000e98f5000faff36004fb097000008a3000d
:102b9000020032000010a100c0b79f0018007800aa
:102ba000e1c2b30090cf100016003a008000eb00a5
:102bb000d1b79f000000e800000c7800a1c2b3006c
:102bc00090cf100006003a00000ce8001c80e900dd
:102bd000000e780010007800d0b79f000900370081
:102be000bc010700d0b79f0001003700000ce800cf
:102bf000180078009000fb000103b100e98f50003d
:102c0000faff36000800780061ff07008046780070
:102c1000180078001000fb00d40107009106200086
:102c2000810f50003800320012003c0041062000a5
:102c3000810f5000340032000a003c0011062000d1
:102c4000810f50002000320031062000810f50001b
:102c50009a00320051022000810f5000ae003a006d
:102c6000a700370071062000810f5000aa003c0029
:102c70008200370001072000810f50005c00320005
:102c800007003c00e1062000810f50007400320074
:102c9000f1062000810f50009f003a0039003700f4
:102ca00051072000810f50002700320081072000cb
:102cb000810f50004200320031072000810f500088
:102cc00095003a00850037008d80fb000c017800ec
:102cd00000fe2f000f004000b20107000000e000de
:102ce0009c00320018007800000ce8009041780049
:102cf00002fe2f000f014100f88057000900780004
:102d000021ff07000e0037008d80fb008c0178004a
:102d10001200200000fe2f000f004000c00107003d
:102d20000000e0008b003200180ce80002fe2f00cb
:102d30000f014100f880570009007800e0fc07000f
:102d400000054500840037008d80fb008c01780071
:102d50000001eb0000fe2f000f004000b001070053
:102d60000000e0007b003200180ce80002fe2f009b
:102d70000f014100f880570009007800ddfd0700d1
:102d8000efff37008d80fb008c0178000001eb0025
:102d900000fe2f000f004000a10107000000e0002e
:102da0006c003200180ce80002fe2f000f014100f9
:102db000f8805700090078001bfd0700e0ff37008e
:102dc0008d80fb008c0178000001eb0000fe2f00dd
:102dd0000f004000920107000000e0005d0032009b
:102de00018007800000ce8009041780016003700c9
:102df0008c0178000001eb00010f200000fe2f0085
:102e00000f004000860107000000e0005100320082
:102e1000180ce8000fb097009fb097002fb19700f3
:102e2000bfb19700e00f5000e08f5800e00f59004d
:102e3000e08f590003003a008001eb0002ab210053
:102e40004000370083c7b30002fe2f000f0141008e
:102e5000f880570009007800cffd0700b8ff370061
:102e60000b0145008d80fb008c01780000fe2f00d7
:102e70000f004000c3010700360037008d80fb00c3
:102e80000c01780000fe2f000f00400045010700f4
:102e90000000e0002f00320018007800000ce8006d
:102ea0009041780002fe2f000f014100f88057008a
:102eb00009007800b4fe0700a1ff370000c8b30086
:102ec00080cf560023003a00180ce8001c80e9006f
:102ed000000e7800104078000d00370000c8b300e5
:102ee00080cf56001b003a00180ce8001c80e90057
:102ef000000e78008001eb0010017800110037000f
:102f000001c8b30081cf560012003a00180ce80047
:102f1000e0df9f000800370050c2b300e0df9f00f1
:102f20000e0c78000000eb00c0b79f00e0b79f00d8
:102f30008080eb00d1b79f0013002000e2fd2f003e
:102f40000f014100f880570009007800edfc0700f0
:102f50007bff3700180ce8000a0078004f07780064
:102f60004f06be004f05be004f04be006f01b1000a
:102f7000000006008200fa00889fbe008a1f7800c9
:102f80000005780082047800c13f9f000004eb0038
:102f9000100037000902780088017800a2f72f009e
:102fa0000f01410081f72f008f8040000a00780058
:102fb00090fe070008004000880f500004003d000c
:102fc000b004200030d888000084eb0004003700f3
:102fd000000478004f3897001004e000edff3a003d
:102fe000080078004f0578004f04be000080fa000a
:102ff00000000600889fbe008a9fbe008004780003
:103000000200e0005a00320001407800814c780054
:1030100082814400f1f99f00e20f51005400360014
:1030200091449800a1449800e1f99f00d1f99f00d4
:10303000e60f51004e003600b1449800c1f99f00e0
:10304000e80f51004a0036000905ea0063056500f3
:103050000a8444000a055100c1ff2f0001056500e4
:103060000080fb008000eb001210200013102000f5
:103070009f010700008cbe000a01440060b99f0058
:1030800071b99f00e80f5500390036002004980000
:1030900031049800400498005104980020b99f0022
:1030a00031b99f0040b99f0051b99f00f80f5500fa
:1030b0002f0036006004980071049800000c9800fe
:1030c000110c9800200c9800310c9800400c9800ce
:1030d000510c980020b19f0031b19f0040b19f007a
:1030e00051b19f0060b19f0071b19f0000b99f0076
:1030f00011b99f006401640078014100020444009a
:10310000020555006011b8000203be000002be00b7
:103110000403be006022b8000000720081807200cb
:1031200002017300838173000f00370008027800ea
:10313000009abe00029abe00009abe000292be0033
:10314000000c9800110c9800220c9800330c980089
:10315000400c9800510c9800620c9800730c980079
:103160000a02b1000802b000ff0f5500efff3e0059
:10317000090078004f05be004f04be0000000600a5
:1031800080007800040037003104e00002003a00bb
:103190000000510000000600010178000108a300b2
:1031a000f9ff3a008101780031017800f4ef2f0037
:1031b000020242000281ea000201620004082800c3
:1031c00004016100f7ff32008300780001017800fc
:1031d0003104e000fdff3a0000005100000006004d
:1031e000f28747008e1f7800020278000301780002
:1031f0000000e00002003200000778000100370004
:10320000728757008002eb000100e00001003200ed
:103210008102e90070805700060009000018eb00e9
:103220007280570000a8eb002310200093bf9f007e
:10323000aebf9f00b1bf9f00c5bf9f000100e0006f
:1032400004003d00b004200030d888000080eb006e
:1032500005003700004feb00eebf9f00debf9f0070
:1032600084007800030007004f0778002f01b100a9
:10327000000006000200fa00881f780000047800b1
:10328000e2bf9f00648157000800780039ff070003
:10329000980090000148a300010032000080eb007c
:1032a0004f0478000080fa000000060080007800db
:1032b0001000200002022000828f50000400320023
:1032c000e9805000e48f5000010036000000eb0060
:1032d00000000600889fbe008a1f780080047800e6
:1032e0000904780088047800394578000a00fb005a
:1032f000eeff07000000e000f9ff3a00b0c2b300a3
:10330000804f550005003200d0c2b3008000eb00b2
:10331000804f550005003a00020037008000eb00a6
:1033200001003700110020000804e8000000eb0055
:1033300003003700ea00b900020050000003b000ab
:103340003801fb0003fd2f0082814100e98f51000d
:10335000f8ff36000100e00001003a000000ea003a
:103360004f0578004f04be0000000600f1fb2f005f
:1033700080804000f98f500001003e000050a00006
:1033800000000600f9ff3700f1f92f0080804000af
:10339000f98f500001003e00f005b2000000060069
:1033a000f9ff3700881f780000047800000820002b
:1033b000808f50001700350010082000808f5000cb
:1033c0000b00340030082000808f500011003a00bc
:1033d0009200780068805000000978003002be003a
:1033e0002003be00049cbe000694be000700370008
:1033f0009202780064805200000978001000be003c
:103400009a000700009cbe000294be00100020003d
:10341000010037000000eb004f04780000000600b8
:1034200084082000848f50001d0032000d003c00f5
:1034300014082000848f50002700320002003c0056
:10344000040820000400370024082000848f500066
:103450002a00320044082000848f500048003a00bf
:103460003b003700040a2000848f50002c003200fb
:1034700004003c0004092000848f500040003a0002
:103480002d003700020c2000828f50001e003200f9
:10349000020f2000828f500039003a0030003700c0
:1034a0009380e9000200e000050032008109780005
:1034b0001102fb00cfa2de00612bb9002d00370006
:1034c00081097800114278000482fb008002eb0041
:1034d0006033b8002700370013027800e400520080
:1034e0000200e0000a003200810978001102be00eb
:1034f0004fabde00860378001e0037009302780091
:10350000e88052000e00370093027800e4805200f9
:10351000810978001102be006033b8001500370041
:103520009380e9008109780011027800cfa2de00c3
:10353000612bb9000f00370013037800e800530037
:10354000810978003102be002103be000900370066
:103550009380e9000200e00002003200f1ff370032
:103560009380e90081097800110278008002eb0065
:103570006033b8000498be000690be00100005003d
:103580000000050044082000848f5000270032000e
:103590000a003c0014082000848f50001c003200f8
:1035a00024082000848f50002600320004082000e8
:1035b000848f50002c003a001c00370004092000c2
:1035c000848f50001f00320004003c00840820005b
:1035d000848f500024003a0007003700040a2000be
:1035e000848f500011003200040c2000848f5000a2
:1035f0001d003a00060037009380e9008109780039
:1036000091007800010878008248780015003700a2
:103610009380e90081097800910078000108780022
:10362000cf91de008288be000e0037009380e90053
:1036300081097800910078000108780082087800fc
:10364000080037009380e900810978009100780034
:10365000010878006112b900612bb9008498be009e
:103660008690be0010000500000005008103780070
:103670003ef607000001be006000b8000478a30019
:1036800013003a006220e10015003e000d003900f1
:103690008301d1000281d3008180d3008301d10056
:1036a0000281d3008180d3008301d1000281d30045
:1036b0008180d3000538b000c42add00f300b200d9
:1036c0008381720007f0a70003f0a000000006004d
:1036d00083ff2700020020006110b900f9ff3700c6
:1036e00003ff2700f7ff37001400200089f9370097
:1036f000020ab900001bb9000200b80081004200b4
:103700008100430000000600889fbe008a9fbe0023
:1037100030044200b0844a0030054b0090854b00d5
:103720006000b1000898be000a90be000440e100ad
:1037300005c8e10006d0e10007d8e1000200310031
:10374000680040001008e8004f05be004f04be00ae
:1037500000000600889fbe008a9fbe003004be00a5
:103760002005be000418540005985c0006185d0092
:1037700007985d00110020000440e10005c8e10049
:1037800006d0e10007d8e100010039008000eb001d
:10379000108810004f05be004f04be000000060058
:1037a000f4874700889fbe008a9fbe008c9fbe00a2
:1037b0008e1f7800d0b79f00e1b79f00f2b79f003f
:1037c00083bf9f000605be000404be00cfae970075
:1037d0000000eb00c0b79f00b0b79f00a0b79f00ec
:1037e00090b79f0080b79f00000678004fb0970009
:1037f000000140000000e00006003d003c00070022
:103800000f074700450007000f004000beff0700fc
:1038100005003700360007000f0747003f0007008c
:103820000f004000cbff07004fb797000e00e000ed
:103830000c0035005fb29700efb297007fb397009e
:103840008fbb970010002000010020006011b8001d
:10385000000272008182720002037300838373008e
:103860001c0007000c06e80001042000810f560030
:10387000deff3a000e00e00005003d000802be0039
:103880000a03be0000fe2f000f0040009eff07004d
:103890000d00e00005003a000fb297009fb29700bc
:1038a0002fb39700bfb397000a0007005fb09700df
:1038b000efb097007fb197008fb997004f0778005e
:1038c0004f06be004f05be004f04be004f01b100c1
:1038d00000000600010007000000060094b79f00ea
:1038e000a5b79f00b6b79f00c7b79f0000000600ae
:1038f0009fb097004f08de0002017000a2b79f0042
:103900000fb097004f01de00818040008100710000
:1039100091b79f000efe2f0000000600de00780029
:103920004f09de00000040000000710080b79f00da
:103930006fa897004f01de0081804000010f7100e9
:103940000e0007004f3ade00000040000400700047
:10395000e0af9f00090007000402420085824a0090
:1039600006034b0087834b00dcff07000802be0004
:103970000a03be0000fe2f00000006001fb29700e1
:10398000afb297003fb39700cfb397000000060097
:10399000881f780018002000881f780080ff07002b
:1039a0008f87e9004f04780000000600801feb00bd
:1039b0007bff07008f87e90000000600889fbe009c
:1039c0008a9fbe00e00f5000e08f5800e00f5900c2
:1039d000e08f59000c003d006044b8006055b8000d
:1039e0000000540081805c0002015d0083815d0065
:1039f000180020001500070008003d00180007000f
:103a00000004eb00050037000004eb000f00070086
:103a100002003d001200070018002000dcff070034
:103a20000800e000060032006022b8006033b800f1
:103a30000000520081805a0002015b0083815b001c
:103a40004f05be004f04be0000000600e00f52000c
:103a5000e08f5a00e00f5b00e08f5b000000060083
:103a60006044b8006055b8000402540085825c00d0
:103a700006035d0087835d0000000600889fbe008e
:103a80008a9fbe008c1f7800e00f5000e08f580026
:103a9000e00f5900e08f59000d003d006044b80070
:103aa0006055b8000000540081805c0002015d0098
:103ab00083815d001c0020000820e10009a8e100ce
:103ac0000ab0e1000bb8e1000d003d00080037002e
:103ad0000006eb00e00f5200e08f5a00e00f5b00a1
:103ae000e08f5b0006003d006044b8006055b80000
:103af0000402540085825c0006035d0087835d003c
:103b0000aaff07000c00e000060032006022b800a7
:103b10006033b8000000520081805a0002015b004f
:103b200083815b004f0678004f05be004f04be0046
:043b3000000006008b
:020000040000fa
:103b3400202000005b480000464300002d330000b5
:103b440031300000304400005d20000020200000df
:103b5400004400006967000069740000616c0000a3
:103b64002043000068610000726700006572000075
:103b740020000000536500006f7500006c200000f9
:103b8400456c0000656300002e5000006f77000054
:103b94006572000000540000656c000029300000cc
:103ba400333200002d360000383100002d3800007b
:103bb4003431000031000000315d0000426100003a
:103bc400747400002e5600006f6c00007426000010
:103bd400416d000070200000002000002020000043
:103be40020200000202000002020000020200000d1
:103bf400202000002020000020000000426100007e
:103c0400747400003a200000202000002e200000e0
:103c14005620000020200000204100000032000057
:103c24005d4c00006f61000064200000566f0000ce
:103c34006c740000264100006d700000200000003c
:103c44004c6f0000616400003a2000002020000056
:103c54002e200000562000002020000020410000fb
:103c6400003300005d5300007973000074650000a8
:103c74006d20000053650000747500007020000082
:103c840020000000202000005b2a00002a2a0000f7
:103c94002a2a00002a2a00002a2a00005d200000a7
:103ca40020200000002000004e6f0000742000005f
:103cb4004d610000746300006820000021210000b1
:103cc4002120000020000000533000005d4400006b
:103cd40065620000756700002020000020200000bd
:103ce400202000002020000000530000315d00006f
:103cf40042610000747400002e4100006c610000f9
:103d0400726d000020200000200000004d610000c2
:103d1400782000003a20000020200000202000002d
:103d2400205600002020000020200000004d00004c
:103d3400696e0000203a00002020000020200000ce
:103d44002020000056200000202000002000000059
:103d5400533100005d42000061740000742e0000c5
:103d6400416c0000617200006d30000020200000f2
:103d740000530000315d00004261000074740000d3
:103d84002e4100006c610000726d000031200000c3
:103d940020000000533100005d4200006174000007
:103da400742e0000416c0000617200006d3200004e
:103db40020200000004d000061780000203a00003f
:103dc4002020000020200000202000002e200000e1
:103dd40020560000200000004d6900006e20000005
:103de4003a2000002020000020200000202e0000a7
:103df4002020000056200000004d000061780000e3
:103e0400203a000020200000205f00005f5f0000d7
:103e14005620000020200000200000004d69000012
:103e24006e2000003a200000202000005f5f0000a8
:103e34005f560000202000002020000000530000f6
:103e4400325d00005265000073740000617200006e
:103e540074200000546900006d650000200000001b
:103e6400202000002020000020200000202000004e
:103e74004d6900006e20000020200000202000007a
:103e840000530000345d0000496e000069740000b6
:103e94002e53000079730000746500006d2000004b
:103ea400200000002020000020200000202000002e
:103eb4004e4f0000202000002020000020200000a1
:103ec4002020000000530000355d00005061000018
:103ed40073730000776f00007264000020530000c9
:103ee40065740000200000004f4c000044200000d6
:103ef4003a200000202000002020000020200000a4
:103f04002020000020200000004e00004557000043
:103f1400203a0000202a00002a2a00002a2a000051
:103f24002a2a00002a2a000020000000533600003c
:103f34005d4100006c610000726d000020420000d1
:103f44005a20000053650000742000000020000087
:103f540020420000757a00007a650000722000009b
:103f64003a2000004f4e00002020000020000000f6
:103f740020200000427500007a7a0000657200007b
:103f8400203a0000204f0000464600002020000098
:103f94000020000020420000757a00007a650000cd
:103fa400722000003a2000002020000020200000a1
:103fb40020000000345d0000416c000061720000cc
:103fc4006d20000048690000737400006f720000e7
:103fd400792000000020000020200000204e000076
:103fe4006f740000686900006e6700002020000004
:103ff4002020000020000000443100005d42000049
:10400400617400007465000072790000205400009f
:104014007970000065200000003100002e5000007f
:10402400422d000031320000352000002020000025
:10403400202000002020000020000000322e00007c
:10404400504200002d3100003130000020200000db
:104054002020000020200000202000000033000069
:104064002e4c0000692d0000496f00006e200000f6
:10407400202000002020000020200000200000005c
:10408400312e0000504200002d3100003235000076
:104094002020000020200000202a00002020000012
:1040a400003200002e500000422d0000313100008b
:1040b4003020000020200000202000002a200000e2
:1040c40020000000332e00004c6900002d49000040
:1040d4006f6e00002020000020200000202a000035
:1040e40020200000002000002a2a0000496e000061
:1040f4007075000074200000566f00006c7400009e
:104104002a2a000020000000333800003056000046
:104114004143000020200000202000002020000057
:10412400202a00002020000000320000323000006d
:104134005641000043200000202000002020000001
:104144002020000020200000200000003338000060
:1041540030560000414300002020000020200000d1
:104164002020000020200000202000000032000059
:10417400323000005641000043200000202000009f
:1041840020200000202000002a2000002000000041
:10419400443200005d4f0000706500007261000051
:1041a4007465000020540000797000006520000050
:1041b400003100002e530000746100006e640000a2
:1041c4002d42000079200000202000002a20000059
:1041d40020000000312e000053740000616e0000c6
:1041e400642d0000427900002020000020200000ff
:1041f40020200000003200002e50000061720000f8
:10420400616c00006c6500006c2000002020000040
:104214002020000020000000322e00005061000029
:10422400726100006c6c0000656c000020200000ce
:10423400202a00002020000000440000335d00001c
:104244004d6f0000647500006c6500002054000090
:10425400797000006520000020000000312e00006d
:1042640044750000616c0000205400007970000067
:1042740065200000202a00002020000000310000fa
:104284002e440000756100006c2000005479000089
:1042940070650000202000002020000020000000a5
:1042a400322e0000536900006e6700006c65000048
:1042b40020540000797000006520000020200000d8
:1042c400003200002e530000696e0000676c00008d
:1042d4006520000054790000706500002a20000069
:1042e4002000000020200000203c000020200000ce
:1042f400202f000020200000203e0000202000008d
:104304002020000000200000202000002f200000ba
:10431400202f00002020000020200000203a000070
:10432400202000002000000023310000204900006c
:104334006e2e00002048000069670000682000001d
:10434400566f00006c740000002300003120000050
:10435400496e00002e2000004c6f00007720000002
:10436400205600006f6c0000740000002020000044
:1043740020230000312000004143000020460000bb
:10438400616900006c200000202000000023000070
:10439400312000004f750000742e000048690000b1
:1043a40067680000205600006f6c00007400000075
:1043b40023310000204f0000757400002e4c0000d3
:1043c4006f77000020200000566f00006c7400001e
:1043d40000230000312000004f750000742e0000ff
:1043e4004f760000657200002043000075720000e3
:1043f400720000002020000023310000204f000044
:104404007665000072200000546500006d700000a5
:10441400202000000023000032200000496e00002c
:104424002e20000048690000676800002056000044
:104434006f6c00007400000023320000204900006b
:104444006e2e0000204c00006f770000202000003a
:10445400566f00006c740000002000002020000053
:104464002332000020410000432000004661000088
:10447400696c0000202000002000000023320000ae
:10448400204f0000757400002e480000696700008a
:1044940068200000566f00006c74000000230000c8
:1044a400322000004f750000742e00004c6f000095
:1044b40077200000205600006f6c0000740000009c
:1044c40023320000204f0000757400002e4f0000be
:1044d40076650000722000004c6f000061640000eb
:1044e4000020000020230000322000004f7600004e
:1044f4006572000020540000656d0000702000000b
:104504002000000042610000747400006572000025
:10451400792000004869000067680000566f0000b9
:104524006c740000004200006174000074650000b7
:1045340072790000204c00006f77000020560000c4
:104544006f6c00007400000023310000204f000055
:10455400757400002e4800006967000068200000a0
:10456400416c00006d200000002300003120000099
:104574004f750000742e00004c6f0000772000007f
:10458400416c00006d200000200000002332000078
:10459400204f0000757400002e4800006967000079
:1045a40068200000416c00006d2000000023000022
:1045b400322000004f750000742e00004c6f000084
:1045c40077200000416c00006d20000020000000f6
:1045d400202000002023000031200000537400003c
:1045e400617200007475000070200000202000003b
:1045f400002000002020000023320000205300008f
:1046040074610000727400007570000020200000c6
:104614002000000023310000204600004c4f000021
:1046240041540000204300006861000072670000ec
:1046340065200000002300003120000045510000e7
:10464400554100004c2000004368000061720000e6
:1046540067650000200000002332000020460000af
:104664004c4f0000415400002043000068610000ea
:104674007267000065200000002300003220000063
:1046840045510000554100004c20000043680000e3
:104694006172000067650000200000002020000017
:1046a4002044000043200000477200006f750000a2
:1046b4006e64000020200000202000000023000081
:1046c40045720000726f000072200000202000007c
:1046d40020200000202000002020000020000000f6
:1046e400355d0000546900006d650000264400003b
:1046f40061740000652000002020000020200000dc
:10470400003500005d540000696d0000652600005e
:1047140044610000746500002053000065740000cb
:104724002000000044610000746500005b3200005a
:104734003025000030320000642f000025300000d6
:10474400326400002f25000030320000645d000058
:1047540000540000696d0000655b00002530000016
:10476400326400003a25000030320000643a000050
:1047740025300000326400005d20000020000000ad
:1047840045720000726f0000722000005254000055
:1047940043200000646100007461000021200000d7
:1047a400000000005379000073740000656d000080
:1047b400204200006f6f0000746900006e67000003
:1047c4002e2000000053000074650000703a0000c1
:1047d400253000003264000020200000202000006a
:1047e4002020000020200000200000005072000063
:1047f4006f6700007265000073730000203a0000c8
:10480400202500003364000025250000200000005e
:104814004c70000078700000b8700000a2700000b6
:10482400466f0000646f0000f4700000f66e000034
:10483400428f00006e8f0000ae8f0000988f000042
:10484400068f0000248f0000ea8f0000b68e00005f
:10485400800700008e07000080be000090fe00006c
:08486400c0fd00001f00000070
:020000040000fa
:10486c000600fa000e81e800004978006400470059
:10487c00010878000e80e80010407800e7406000e6
:10488c000e80e800014878000e80e80010407800a7
:10489c000080fb004300dd000060a0002401070045
:1048ac000000eb00000f7800070037009e00780036
:1048bc0064004700100078000100400010407800b0
:1048cc00fd0007001e0fe8001e007800e70f5000e7
:1048dc00f6ff34000080fa00000006000000fa0029
:1048ec000040eb00470107003e2ea9003e4ea900f8
:1048fc009001200001002000fa3d07003e4ea80068
:10490c0000362e0061012000f63d070080022000d9
:10491c0007010700c000200005010700600020000f
:10492c00030107007700070010c0b3000080fa00f5
:10493c00000006000400fa00000f78000e80e8006a
:10494c00010878000a0037001e007800104078003b
:10495c000000fb000000e000140032001e00780094
:10496c00104078001e0fe800130007000000000044
:10497c000e80e8001000780000f0a7000000ea00ac
:10498c000000ea004f00de00004078008e80e80056
:10499c00910078000101e9008e80e800820878001f
:1049ac000004e000e8ff3a000100370000000000be
:1049bc000080fa00000006000200fa00004f7800a8
:1049cc001e00fb00ea0f50000e003200ea0f5000f0
:1049dc0003003c00e80f5000150032001b003700ac
:1049ec00ec0f500017003200ed0f500017003a008a
:1049fc00c0d0bf00ea4f50003c0032005600070008
:104a0c003b003700c0d0bf00ed4f5000010032001a
:104a1c005100070098d0bf000004e00002003a00eb
:104a2c009a000700320037008d0007003000370075
:104a3c005500070000c2b300dfff0700520007005b
:104a4c002b0037002f0007002900370099d0bf003a
:104a5c00f04f50001f003a009970ef0098d0bf0043
:104a6c000004e00005003a00000c2000b000070034
:104a7c0010c0b30098f0b7001600370098d0bf00f4
:104a8c00e14f500005003a0000092000a800070083
:104a9c0020c0b30098f0b7000e00370098d0bf00cc
:104aac00e24f500005003a00000d2000a000070066
:104abc0030c0b30098f0b7000600370098d0bf00a4
:104acc00e34f500003003a00000820009800070054
:104adc009870ef001e4078007700070099d0bf0057
:104aec000040e80099f0b70001003700000000001a
:104afc001e417800010c2100824878000080fa00e9
:104b0c00000006000000fa001000200088000700da
:104b1c0020002000860007009870ef009970ef00cd
:104b2c000080fa00000006000200fa00004f780036
:104b3c001e4078000004e00003003200f00020006a
:104b4c007b00070002003700c0002000780007003f
:104b5c000080fa00000006000000fa0098d0bf00a8
:104b6c000004e00003003a00000820007000070079
:104b7c0002003700000c20006d0007009970ef0058
:104b8c000080fa00000006000200fa0099d0bf0075
:104b9c000004e00014003a0098d0bf000004e000cc
:104bac0005003a00000c20006100070010c0b300a3
:104bbc0098f0b70003003700000820005c000700e5
:104bcc009870ef000040eb00004f780002003700b7
:104bdc000c0007001e4fe8001e407800ee4f5000fe
:104bec00fbff36000500370099d0bf000040e900fc
:104bfc0099f0b700000120004d0007000080fa007a
:104c0c00000006000000fa004001200048000700e8
:104c1c0099d0bf000040e80099f0b70099d0bf00d0
:104c2c00f04f50000c003a009970ef0098d0bf0084
:104c3c000004e00005003a00000c20003c000700d6
:104c4c0010c0b30098f0b700030037000008200034
:104c5c00370007009870ef000080fa000000060093
:104c6c000200fa000040eb00004f78000200370011
:104c7c00c5ff07001e4fe8001e407800ef4f5000a4
:104c8c00fbff36000080fa00000006000200fa006c
:104c9c000040eb00004f780002003700d9ff0700fe
:104cac001e4fe8001e407800ef4f5000fbff36000f
:104cbc000080fa00000006000200fa00004f7800a5
:104ccc003e2ea8001e00fb004480de000040780051
:104cdc004c0007009001200001002000013d07005e
:104cec003e4ea8009001200001002000fd3c070072
:104cfc003e4ea9001e4078004200070090012000a3
:104d0c0001002000f73c07003e4ea8009001200057
:104d1c0001002000f33c07003e4ea900204e20006d
:104d2c0001002000ef3c07000080fa0000000600a4
:104d3c000200fa00000f78003e2ea9001e00780039
:104d4c004400de00004078002e0007003e4ea80014
:104d5c009001200001002000e23c0700900120009f
:104d6c0001002000df3c07003e4ea9003e2ea900aa
:104d7c001e00780000407800220007003e4ea8007c
:104d8c009001200001002000d63c0700900120007b
:104d9c0001002000d33c07003e4ea9001e00780005
:104dac00f40f50000d003200f40f500005003e00cf
:104dbc00ec0f500009003200f00f500007003200d9
:104dcc000a00370081022000810f500003003200de
:104ddc0081032000810f500004003a00204e200077
:104dec0001002000bf3c07000400370000c429006c
:104dfc0001002000bb3c0700000000000080fa000e
:104e0c00000006000200fa00004f78001e80fb0034
:104e1c0061006000004078000004e00002003200f5
:104e2c00060ea80001003700060ea9001e80fb002c
:104e3c00620060000000e00002003200062ea800b4
:104e4c0001003700062ea9001e80fb0064006000e4
:104e5c000000e00002003200064ea80001003700fe
:104e6c00064ea9001e80fb00680060000000e000f8
:104e7c0002003200066ea80001003700066ea90081
:104e8c000080fa00000006000200fa00004f7800d3
:104e9c000e00e800014878000e00e8001040780091
:104eac000080fb00e10f50000e003200e10f5000bb
:104ebc0003003c000000e000060032001500370043
:104ecc00e20f50000b003200e30f50000d003200d7
:104edc00100037001e80fb000008b00094ff070094
:104eec000c0037001e80fb00000cb00090ff070088
:104efc00080037001e80fb000009b0008cff070083
:104f0c00040037001e80fb00000db00088ff070076
:104f1c0000000000020007000080fa0000000600fc
:104f2c000400fa000000eb00000f780006003700c8
:104f3c000e80e800100078008000e8000e80e80089
:104f4c00010878001e0fe800700c20009e0078000d
:104f5c00808f5000f6ff34000080fa00000006003d
:104f6c000200fa00004f78001e40780052ff070044
:104f7c000080fa00000006000000fa00a2d0bf007a
:104f8c000080fb006101b9000080eb008080eb0029
:104f9c000200400083804800b20220000300200081
:104fac00820f5000838f580065003e000006010000
:104fbc002b0037002c0037002d0037002e00370057
:104fcc0045003700460037005d0037005c003700b5
:104fdc005b0037002a0037002b0037002e0037000b
:104fec0041003700300037003300370036003700ff
:104ffc0053003700520037005100370024003700af
:10500c00270037002a0037002d003700300037000a
:10501c004b0037004a003700490037004800370082
:10502c0047003700320037003500370038003700b2
:10503c003b0037003e00370041003700400037008e
:10504c003f0037003e0037003d0037002a00370094
:10505c002d003700300037003300370036003700a2
:10506c003b000700380037006a00070036003700a5
:10507c00a301070034003700db02070032003700c1
:10508c001403070030003700a90607002e00370074
:10509c006d0707002c003700920e07002a0037001e
:1050ac00fb0e0700280037009d0f07002600370075
:1050bc00d50f0700240037004810070022003700e6
:1050cc00ae10070020003700101207001e0037003a
:1050dc00501207001c003700b41207001a003700ea
:1050ec00431b070018003700d51b070016003700bc
:1050fc00a504070014003700de0407001200370077
:10510c00c413070010003700141407000e003700fa
:10511c00291507000c0037007e1507000a00370020
:10512c00d3150700080037001f16070006003700cc
:10513c007816070004003700c41607000200370079
:10514c0003000700000000000080fa0000000600c9
:10515c000000fa0012012000a1d92900409f210073
:10516c00c2f3070012012000b1da290050a021007f
:10517c00bef3070012012000c1db290060a1210051
:10518c00baf3070012012000d1dc290070a2210023
:10519c00b6f30700f1350700e40f5000140032009d
:1051ac00e40f500005003e00e20f500012003200e8
:1051bc00e20f500008003e0014003700e90f5000c9
:1051cc000f003200e90f50000f003e00e50f5000b9
:1051dc00040032000d00370060c0b300a2f0b7002d
:1051ec000a00370020c0b300a2f0b7000700370058
:1051fc00000000000500370000000000030037002d
:10520c000000000001003700000000000080fa00e0
:10521c00000006000a00fa00889fbe000400090086
:10522c00001feb00ae00b100308380004183800092
:10523c0002002000031224002bf1070002002000c2
:10524c00a347240049f0070025ef07000040780031
:10525c00004f7800308380004183800002002000e2
:10526c000312240020f107000004be001e40780049
:10527c008080fb00803e20008088b900cf80de005b
:10528c0032ef07000001be000800be0049ef070026
:10529c0002002000832c240034f0070010ef0700dc
:1052ac00804078000e00e8000148780030838000d0
:1052bc004183800002002000031224000af1070041
:1052cc000004be001e4078008080fb00803e200061
:1052dc008088b900cf80de001cef07000001be0003
:1052ec000800be0033ef07000004be000e00e8000b
:1052fc00104078008080fb00400620008088b900b8
:10530c00cf80de0011ef07000001be000800be00d8
:10531c0028ef0700020020000312240013f00700fe
:10532c00efee0700804078000e80e800014878001e
:10533c00308380004183800002002000031224008f
:10534c00e9f007000004be001e4078008080fb00de
:10535c00803e20008088b900cf80de00fbee070085
:10536c000001be000800be0012ef07000004be00e2
:10537c000e00e800104078008080fb004006200002
:10538c008088b900cf80de00f0ee07000001be007f
:10539c000800be0007ef07000004be000e80e80006
:1053ac00104078000080fb00ea00b900cf80de00de
:1053bc00e6ee07000001be000800be00fdee07008f
:1053cc00c7ee070080407800630047000148780072
:1053dc0050838000618380000200200003122400af
:1053ec00c1f0070002002000a3472400dfef0700f4
:1053fc00bbee07008040780064004700014878004d
:10540c00508380006183800002002000031224007e
:10541c00b5f007000004be0064004700104078009f
:10542c008080fb00803e20008088b900cf80de00a9
:10543c00c6ee07000001be000800be00ddee07004e
:10544c0002002000832c2400c8ef0700a4ee070004
:10545c008040780065004700014878005083800048
:10546c006183800002002000031224009ef00700dc
:10547c000004be0064004700104078008080fb00f0
