:020000040000fa
:080000000002040000000000f2
:020000040000fa
:040008006a06000084
:020000040000fa
:04000c00aa06000040
:020000040000fa
:04001000e606000000
:020000040000fa
:04001400880600005a
:020000040000fa
:04001800c806000016
:020000040000fa
:04001c006207000077
:020000040000fa
:0400200004070000d1
:020000040000fa
:04002400620700006f
:020000040000fa
:04002800620700006b
:020000040000fa
:04002c00400600008a
:020000040000fa
:040030006207000063
:020000040000fa
:04003400620700005f
:020000040000fa
:04003800620700005b
:020000040000fa
:04003c006207000057
:020000040000fa
:040040006207000053
:020000040000fa
:04004400620700004f
:020000040000fa
:04004800620700004b
:020000040000fa
:04004c006207000047
:020000040000fa
:040050006207000043
:020000040000fa
:040054002005000083
:020000040000fa
:04005800d4040000cc
:020000040000fa
:04005c006207000037
:020000040000fa
:040060006207000033
:020000040000fa
:04006400620700002f
:020000040000fa
:04006800620700002b
:020000040000fa
:04006c006207000027
:020000040000fa
:040070006207000023
:020000040000fa
:04007400620700001f
:020000040000fa
:04007800620700001b
:020000040000fa
:04007c006207000017
:020000040000fa
:040080006207000013
:020000040000fa
:04008400620700000f
:020000040000fa
:04008800620700000b
:020000040000fa
:04008c004007000029
:020000040000fa
:040090006207000003
:020000040000fa
:04009400d60500008d
:020000040000fa
:040098008a050000d5
:020000040000fa
:04009c0062070000f7
:020000040000fa
:0400a00062070000f3
:020000040000fa
:0400a40062070000ef
:020000040000fa
:0400a80062070000eb
:020000040000fa
:0400ac0062070000e7
:020000040000fa
:0400b00062070000e3
:020000040000fa
:0400b40062070000df
:020000040000fa
:0400b80062070000db
:020000040000fa
:0400bc0062070000d7
:020000040000fa
:0400c00062070000d3
:020000040000fa
:0400c40062070000cf
:020000040000fa
:0400c80062070000cb
:020000040000fa
:0400cc0062070000c7
:020000040000fa
:0400d00062070000c3
:020000040000fa
:0400d40062070000bf
:020000040000fa
:0400d80062070000bb
:020000040000fa
:0400dc0062070000b7
:020000040000fa
:0400e00062070000b3
:020000040000fa
:0400e40062070000af
:020000040000fa
:0400e80062070000ab
:020000040000fa
:0400ec007c0500008f
:020000040000fa
:0400f00032060000d4
:020000040000fa
:0400f400620700009f
:020000040000fa
:0400f800620700009b
:020000040000fa
:0400fc006207000097
:020000040000fa
:040100006207000092
:020000040000fa
:04010400620700008e
:020000040000fa
:04010800620700008a
:020000040000fa
:04010c006207000086
:020000040000fa
:040110006207000082
:020000040000fa
:04011400620700007e
:020000040000fa
:04011800620700007a
:020000040000fa
:04011c006207000076
:020000040000fa
:040120006207000072
:020000040000fa
:04012400620700006e
:020000040000fa
:04012800620700006a
:020000040000fa
:04012c006207000066
:020000040000fa
:040130006207000062
:020000040000fa
:04013400620700005e
:020000040000fa
:04013800620700005a
:020000040000fa
:04013c006207000056
:020000040000fa
:040140006207000052
:020000040000fa
:04014400620700004e
:020000040000fa
:04014800620700004a
:020000040000fa
:04014c006207000046
:020000040000fa
:040150006207000042
:020000040000fa
:04015400620700003e
:020000040000fa
:04015800620700003a
:020000040000fa
:04015c006207000036
:020000040000fa
:040160006207000032
:020000040000fa
:04016400620700002e
:020000040000fa
:04016800620700002a
:020000040000fa
:04016c006207000026
:020000040000fa
:040170006207000022
:020000040000fa
:04017400620700001e
:020000040000fa
:04017800620700001a
:020000040000fa
:04017c006207000016
:020000040000fa
:040180006207000012
:020000040000fa
:04018400620700000e
:020000040000fa
:04018800620700000a
:020000040000fa
:04018c006207000006
:020000040000fa
:040190006207000002
:020000040000fa
:0401940062070000fe
:020000040000fa
:0401980062070000fa
:020000040000fa
:04019c0062070000f6
:020000040000fa
:0401a00062070000f2
:020000040000fa
:0401a40062070000ee
:020000040000fa
:0401a80062070000ea
:020000040000fa
:0401ac0062070000e6
:020000040000fa
:0401b00062070000e2
:020000040000fa
:0401b40062070000de
:020000040000fa
:0401b80062070000da
:020000040000fa
:0401bc0062070000d6
:020000040000fa
:0401c00062070000d2
:020000040000fa
:0401c40062070000ce
:020000040000fa
:0401c80062070000ca
:020000040000fa
:0401cc0062070000c6
:020000040000fa
:0401d00062070000c2
:020000040000fa
:0401d400da0300004a
:020000040000fa
:0401d8000c04000013
:020000040000fa
:0401dc003e040000dd
:020000040000fa
:0401e00070040000a7
:020000040000fa
:0401e400a204000071
:020000040000fa
:0401e80062070000aa
:020000040000fa
:0401ec0062070000a6
:020000040000fa
:0401f00062070000a2
:020000040000fa
:0401f400620700009e
:020000040000fa
:0401f800620700009a
:020000040000fa
:0401fc006207000096
:020000040000fa
:040200006207000091
:020000040000fa
:04020400620700008d
:020000040000fa
:040208006207000089
:020000040000fa
:04020c006207000085
:020000040000fa
:040210006207000081
:020000040000fa
:04021400620700007d
:020000040000fa
:040218006207000079
:020000040000fa
:04021c006207000075
:020000040000fa
:040220006207000071
:020000040000fa
:04022400620700006d
:020000040000fa
:040228006207000069
:020000040000fa
:04022c006207000065
:020000040000fa
:040230006207000061
:020000040000fa
:04023400620700005d
:020000040000fa
:040238006207000059
:020000040000fa
:04023c006207000055
:020000040000fa
:040240006207000051
:020000040000fa
:04024400620700004d
:020000040000fa
:040248006207000049
:020000040000fa
:04024c006207000045
:020000040000fa
:040250006207000041
:020000040000fa
:04025400620700003d
:020000040000fa
:040258006207000039
:020000040000fa
:04025c006207000035
:020000040000fa
:040260006207000031
:020000040000fa
:04026400620700002d
:020000040000fa
:040268006207000029
:020000040000fa
:04026c006207000025
:020000040000fa
:040270006207000021
:020000040000fa
:04027400620700001d
:020000040000fa
:040278006207000019
:020000040000fa
:04027c006207000015
:020000040000fa
:040280006207000011
:020000040000fa
:04028400620700000d
:020000040000fa
:040288006207000009
:020000040000fa
:04028c006207000005
:020000040000fa
:040290006207000001
:020000040000fa
:0402940062070000fd
:020000040000fa
:0402980062070000f9
:020000040000fa
:04029c0062070000f5
:020000040000fa
:0402a00062070000f1
:020000040000fa
:0402a40062070000ed
:020000040000fa
:0402a80062070000e9
:020000040000fa
:0402ac0062070000e5
:020000040000fa
:0402b00062070000e1
:020000040000fa
:0402b40062070000dd
:020000040000fa
:0402b80062070000d9
:020000040000fa
:0402bc0062070000d5
:020000040000fa
:0402c00062070000d1
:020000040000fa
:0402c40062070000cd
:020000040000fa
:0402c80062070000c9
:020000040000fa
:0402cc0062070000c5
:020000040000fa
:0402d00062070000c1
:020000040000fa
:0402d40062070000bd
:020000040000fa
:0402d80062070000b9
:020000040000fa
:0402dc0062070000b5
:020000040000fa
:0402e00062070000b1
:020000040000fa
:0402e40062070000ad
:020000040000fa
:0402e80062070000a9
:020000040000fa
:0402ec0062070000a5
:020000040000fa
:0402f00062070000a1
:020000040000fa
:0402f400620700009d
:020000040000fa
:0402f8006207000099
:020000040000fa
:0402fc006207000095
:020000040000fa
:040300006207000090
:020000040000fa
:04030400620700008c
:020000040000fa
:040308006207000088
:020000040000fa
:04030c006207000084
:020000040000fa
:040310006207000080
:020000040000fa
:04031400620700007c
:020000040000fa
:040318006207000078
:020000040000fa
:04031c008605000052
:020000040000fa
:040320003c06000097
:020000040000fa
:100400000f3221000eff24000e01880000002000a2
:100410000000e000020032000001200020028800fd
:1004200014000700a90207000000e00003003a00e2
:1004300020d62d000100200002003700000020001f
:1004400001002000810f70004220ae000f00070065
:10045000000020000000e0004220ae00000002008a
:100460000000000024c60200000000000040da0086
:100470000000fe00206323000000e00002003200c4
:10048000002020009001880000000600a1028800e2
:10049000800478000000eb001f003700e284440075
:1004a00054a0b4009905ba00e284440054a0b400fa
:1004b0009906ba00e284440054a0b4000006eb00a0
:1004c000476fde00fd07b200ae018800636ce100fb
:1004d00003003a000ad801000000eb000e003700cc
:1004e000606ce10008003a00004deb000a05e800ee
:1004f000020039003420ec000af0a0008b05e9006e
:10050000f9ff3e00040037006168e100010032009d
:100510000086eb000b00070019c7ba001905ba00e6
:100520000e04e00003003a000a00e000dbff3a009e
:1005300000000600fe07b200ae0288008a047800c0
:10054000f5ff37000cd0a300e20f4d001c003b006c
:1005500089027800354dba000a05e800020039002a
:100560003420ec000af0a0008b05e9000f003200f7
:10057000254dba000a05e800020039003420ec00dd
:100580000af0a0008b05e900080032000c00e00032
:100590000600320015cdba000a05e8000200390055
:1005a0003420ec000af0a0008b05e9008984e80003
:1005b00054a0b4000b00e000e2ff3a000000060087
:1005c0009902ba00055d78008b05e900f7ff32005b
:1005d000c82ade00055d78008b05e900f3ff3200d4
:1005e0000c00e000f1ff320019ddba00eeff370029
:1005f0006100e10001003200100005005400f80025
:1006000010102000a002880000f925001000ba0098
:100610005400f9000700220000f0a6008703d10073
:100620000703780001c4fe000003eb001120200046
:1006300091018800e1e62d00111303008703e90012
:10064000fdff3a0000f0a7000000050000f0a00048
:1006500080c4fe0086037800f3ff37000408200002
:10066000010037000002eb006100e10001003200f0
:10067000100005003200f8003400f8008102780014
:10068000930188003200be000100e0000c0032003f
:100690000470a70000f0a00032037800c733de002a
:1006a000848343004220af008703e800a70188004d
:1006b000f607b2007f30e100040032002000200085
:1006c0003400f9003200f900000006008100e90062
:1006d0000500e00003003a00018009003210030029
:1006e000e8ff37000180090032900300d561ae00b9
:1006f000e4ff370030002000f1ff370050052000f4
:10070000b00e8800a00a2000b00e8800d3e1a80037
:100710000000060050052000b00e8800a00a20004e
:10072000b00e8800d3e1a900000006000ed8040036
:100730000000000010d804000000000012d80400df
:100740000000000014d804000000000016d80400c7
:100750000000000018d80400000000001ad80400af
:10076000000000001cd80400000000001ed8040097
:100770000000000020d804000000000022d804007f
:100780000000000024d8040000000000bad30400d8
:1007900000000000bcd3040000000000e4d5040009
:1007a00000000000e6d5040000000000fcdb0400af
:1007b000000000003600f800809fbe00829fbe004f
:1007c000849fbe00869fbe003200f8003400f8000f
:1007d00010002000a00188000020200000d0fe00b2
:1007e00060618000519880000100e000010032004b
:1007f000010001000d68a9003400f9003200f90081
:100800004f03be004f02be004f01be004f00be00ae
:100810003600f900004006003600f800809fbe0058
:10082000829fbe00849fbe00869fbe003200f800fb
:100830003400f80010002000a001880000202000f3
:1008400000d0fe0070618000419880000100e0004f
:1008500001003200010001000d88a9003400f900f8
:100860003200f9004f03be004f02be004f01be0030
:100870004f00be003600f900004006003600f800c8
:10088000809fbe00829fbe00849fbe00869fbe00e8
:100890003200f8003400f80010002000a0018800a9
:1008a0000020200000d0fe00806180003198800090
:1008b0000100e00001003200010001000da8a900c4
:1008c0003400f9003200f9004f03be004f02be00b1
:1008d0004f01be004f00be003600f9000040060088
:1008e0003600f800809fbe00829fbe00849fbe003d
:1008f000869fbe003200f8003400f800100020008f
:10090000a00188000020200000d0fe00906180003f
:10091000219880000100e000010032000100010088
:100920000dc8a9003400f9003200f9004f03be00e1
:100930004f02be004f01be004f00be003600f9005e
:10094000004006003600f800809fbe00829fbe0077
:10095000849fbe00869fbe003200f8003400f8007d
:1009600010002000a00188000020200000d0fe0020
:10097000a0618000119880000100e00001003200b9
:10098000010001000de8a9003400f9003200f9006f
:100990004f03be004f02be004f01be004f00be001d
:1009a0003600f900004006003600f800809fbe00c7
:1009b000829fbe00849fbe00869fbe001094800070
:1009c0000000e000010032000000010050948000af
:1009d00062948000820f500002003a002188a90032
:1009e000110037000188a900032a21007429210081
:1009f0000b00370050948000b080fb00411288004b
:100a00005094880050948000830f500001003a00f9
:100a10005494880050948000800f510002003200ee
:100a20003e82ab00f3ff32004f03be004f02be0018
:100a30004f01be004f00be003600f9000040060026
:100a40003600f800809fbe00829fbe00849fbe00db
:100a5000869fbe00209480000000e000010032006c
:100a6000000001000168a900339480006229210080
:100a7000052a210014c0b300e62821001600370023
:100a8000409480002112800001487800409480004a
:100a9000820f500008003200409480000000e800ff
:100aa000808f510004003200409480000000e80074
:100ab000409488000800370040948000820f500066
:100ac00004003a00868f51000200320046948800ec
:100ad00001003700844a78003e22ab00e8ff320074
:100ae0004f03be004f02be004f01be004f00be00cc
:100af0003600f900004006003c22ab000100320045
:100b00003c22a9000628a9000040060017a8a90059
:100b1000004006003600f800809fbe00829fbe00a5
:100b2000849fbe00869fbe00109580000000e000fc
:100b300001003200000001005095800062958000a5
:100b4000820f500002003a002388a90011003700ec
:100b50000388a900032c2100742b21000b0037000f
:100b600050958000b080fb0081138800509588006c
:100b700050958000830f500001003a005495880082
:100b800050958000800f5100020032006682ab0059
:100b9000f3ff32004f03be004f02be004f01be0004
:100ba0004f00be003600f900004006003600f80095
:100bb000809fbe00829fbe00849fbe00869fbe00b5
:100bc000209580000000e0000100320000000100dc
:100bd0000368a90033958000622b2100052c2100b9
:100be00014c0b300e62a21001600370040958000ab
:100bf000611380000148780040958000820f50000a
:100c000008003200409580000000e800808f51000d
:100c100004003200409580000000e8004095880004
:100c20000800370040958000820f500004003a0011
:100c3000868f51000200320046958800010037007f
:100c4000844a78006622ab00e8ff32004f03be0002
:100c50004f02be004f01be004f00be003600f9003b
:100c6000004006006422ab00010032006422a900ab
:100c70000648a9000040060017c8a9000040060069
:100c80003600f800809fbe00829fbe00849fbe0099
:100c9000869fbe00d09880000000e0000100320076
:100ca00000000100d03121001048e80011c0b3005d
:100cb000c0312100014878000028a9004f03be0080
:100cc0004f02be004f01be004f00be003600f900cb
:100cd000004006003600f800809fbe00829fbe00e4
:100ce000849fbe00869fbe00c028a9000000eb00c4
:100cf0006ade0200000000004f03be004f02be008b
:100d00004f01be004f00be003600f9000040060053
:100d10003600f800809fbe00829fbe00849fbe0008
:100d2000869fbe0060de020000000000c048a900ef
:100d3000100020006ade0200000000004f03be0029
:100d40004f02be004f01be004f00be003600f9004a
:100d5000004006003600f800809fbe00829fbe0063
:100d6000849fbe00869fbe00c068a90020002000ae
:100d70006ade0200000000004f03be004f02be000a
:100d80004f01be004f00be003600f90000400600d3
:100d90003600f800809fbe00829fbe00849fbe0088
:100da000869fbe00c088a900300020006ade0200d5
:100db000000000004f03be004f02be004f01be0006
:100dc0004f00be003600f900004006003600f80073
:100dd000809fbe00829fbe00849fbe00869fbe0093
:100de000c608a900700020006ade020000000000b2
:100df0004f03be004f02be004f01be004f00be00b9
:100e00003600f900004006003600f800809fbe0062
:100e1000829fbe00849fbe00869fbe00c508ab00b7
:100e200004003200c508a900c00020006ade0200ec
:100e300000000000c4a8ab0004003200c4a8a90050
:100e4000900020006ade020000000000c488ab00b1
:100e500004003200c488a900a00020006ade02005d
:100e600000000000c408ab0004003200c408a90060
:100e7000b00020006ade020000000000ffff370023
:100e80003600f800809fbe00829fbe00849fbe0097
:100e9000869fbe00ddc5ab000300320046db0200ca
:100ea00000000000ddc5a9000328a9004f03be0013
:100eb0004f02be004f01be004f00be003600f900d9
:100ec000004006000040da000000fe0000000500bf
:100ed000140020008c033700f4ff2f008a03370032
:100ee0000001be001e0007000470a70003f0a1006f
:100ef00003f8a30013003a006509b10010003200a6
:100f0000090035006928e1000200350001002800d1
:100f10000000050000004000818048008502e900d3
:100f2000fcff3a0000000600f88f42000500350083
:100f30008100d1000080d3008502e800fcff3a0068
:100f4000000006008000eb00000005004f89de0075
:100f500082017800870337006011b80095033700dd
:100f6000c70ade00f107b200f50fb2000800320038
:100f7000e1cf4200020032000170a0002400050011
:100f8000810f7000010032000408050044000500d4
:100f9000810f700002003a00140005008502e9008c
:100fa0000000400081c04800fcff3b000170a00031
:100fb0002400050007f82700078361000638e100d8
:100fc00004003a00f707200087836100870371005f
:100fd00001003a0003f0a200889fbe008a9fbe0075
:100fe0008c9fbe00470ade000480a100c71ade0005
:100ff0000580a10007002800078560008785610043
:10100000f70f20000720e1009e0032000728e100d2
:101010009c003200010678000400e000b4003200b9
:10102000f7072000878060000170a0000500e00045
:10103000c0003200f7072000878161000370a00024
:10104000050652000f003a000b50e1000b00320081
:101050000308e10002003a000200e1007e003200d5
:101060000204500083845800040031000001fd0098
:101070008101fd008402fd008a05fd006044b80086
:10108000210037000520e10005003d000001fd00c2
:101090008101fd008402fd008a05fd000506520065
:1010a0007a60e100050035000170a1004722dd00f3
:1010b000848070008a807000630037006044b8004c
:1010c000ef02660007ff2f00070666000500e0003c
:1010d00006003400f08312008714dd000511de00e5
:1010e000071bdd00060171008519de007060e1005c
:1010f00005003500090478008204780003017800b7
:101100008001eb00700656000b50e10003003a002e
:10111000020040008380480004003700600414008f
:10112000e0841c0002005800838058000188a3005e
:10113000060032008100d1000080d3008984d300f2
:101140000884d3000402e800270037000178a300d8
:1011500025003a000100e000030032008186cf0044
:10116000698656000a0037008c0020000000e0006d
:1011700004003a0009007800880478000004eb00bd
:10118000700252008086cf000d0646000c06e90072
:101190007060e100060035008000780009007800ea
:1011a000880478000004eb007006560070025200bc
:1011b0000c00e0000c0034008c08dd00f003160089
:1011c0000703de00868070000c00dd00074bde00a8
:1011d000060070008c4cdd000743de00868474003e
:1011e0000c44dd000c0252006120e10020003500bb
:1011f000610160000700280087816400f7ff270075
:1012000087836400070374000300e00006003200d7
:1012100082037300040032000000e800e080480010
:101220000188a3000e003a00f70f20000720e1001c
:101230004a003d000170a1004722dd0081007200dc
:101240008a8070000000be004f06be004f05be0041
:101250004f04be00000006006000b800faff37002f
:101260008100d1000080d3000402e800eeff3700c7
:101270000401780089017400a10107008a807000d0
:10128000f1ff3700f7010700070278000001fd00b9
:101290008101fd00f30107008702780085037200d9
:1012a0000778a300040032000001fd008101fd0069
:1012b00006020700e4ff3700850362000768a30009
:1012c000080032000b50e10003003200f0ff2f0055
:1012d000f1ff2700dcff37000001fd008101fd0068
:1012e000d9ff37000468a300d7ff3200faff3700a8
:1012f000f8ff2700888360000b003a000000e00040
:1013000009003a0083036400828373000200320004
:101310000200be00ccff37000b50e100ceff3a00c8
:101320000200be00c8ff37001400200081006400e6
:101330003eff3700f8ff27008883610004003a0071
:101340000200e00002003a008c007800beff370087
:10135000150020008301640039ff370001f82700e1
:101360000000200081007500b7ff3700889fbe0095
:101370008a9fbe008c9fbe001b0020000202be00a0
:101380000586680006002800060666004709de009c
:10139000f20fb200820032000243e8008000320007
:1013a000c729de00f30fb2007d0032000343e800de
:1013b0007b003200f107b2000170a000f507b20017
:1013c0000570a000c708dd004903de0086807000bc
:1013d0004700dd00c72add004923de008682720057
:1013e0004722dd00030551000403500085835800a7
:1013f0000300310000004000818048000a05e90038
:101400008c1f78008a9fbe00040050008580580021
:101410000402420085824a000000400081804800aa
:101420000005eb000004be006033b8000406be00f7
:101430000d48e10056003100050009004dccd800f0
:101440000c01b8000d02b8008481410060824a009e
:101450008283530003045c0084845c0060055d00ab
:101460000a00e00025003a00800578000d40e10008
:101470004900310088007800070078000500090065
:101480004d88d8000c01b8000d02b80084814100dd
:1014900060824a006003110083835b0004045c00e7
:1014a000e0845c000900e00021003a004f01be002a
:1014b0000300e0002b003200e30160000706730028
:1014c0008c81710001003200640070004200de0077
:1014d0004e5edd000c007000c258de0001e0a0008e
:1014e00083010700cf017800818071004f06be00a4
:1014f0004f05be004f04be00000006008c83430071
:101500000d044c00e0844c0060054d000000e90033
:101510000a00e000d4ff32008c8343000d044c002d
:10152000e0844c0060054d000000e900ceff37006c
:101530000c0343008d834b0060044c00e0844c009e
:101540000000e9000900e000d8ff32000c0343006e
:101550008d834b0060044c00e0844c000000e900e7
:10156000d2ff37004200de004e5edd000c0070004e
:10157000c258de0001e0a000cf0178000300e000c7
:10158000daff320060001000e0801800d7ff37005b
:10159000f0ff2f00aaff3700f0ff2f00b9ff370040
:1015a0000404be002f010700870678000004fd0038
:1015b0008104fd002b010700078366000678a30065
:1015c000030032000960a7000800be002c003700ad
:1015d0000d78a300020032000800be00280037008a
:1015e0000778a30026003a0001f0a10009f0a1004d
:1015f0000668a30003003200f1ff2700f0ff2f0070
:10160000baff37000d68a300030032000800be00d7
:101610008c807000b5ff37000768a30007003a0010
:101620000648a30003003200f1ff2700f0ff2f005f
:10163000aeff37000d48a300030032006000b80081
:101640008c807000a9ff37000748a3000400320017
:1016500001f82700000020008c807000a3ff3700f5
:10166000760107000004fd008104fd0002057800fa
:10167000720107000802be008a01780059ff370096
:101680000160a000120220000280880097ff37004e
:101690000100e000120032000500e00010003200fe
:1016a000889fbe008a9fbe008c9fbe000006eb0094
:1016b00001f8a3000300320060001000e080180071
:1016c0000cf0a00005f8a300030032006002120035
:1016d000e0821a000cf0a2008005eb0041ff370009
:1016e0006000b800020005000383680007002800be
:1016f00007036300470ade000480a100c71ade006a
:101700000580a100f70f20000720e1004200320011
:101710000728e10040003200889fbe008a9fbe007b
:101720008c1f7800f107b200f307b2000400e0005c
:10173000640032000170a0000500e0006800320083
:101740000370a00085054200eb07b1000204b80059
:101750000302b8008484440060854a00020ab8008d
:10176000848444000a854a00030ab8000405450041
:10177000040033000804d0008984d2000a85d20016
:101780008b05e9006158e1003d00350002102000a2
:10179000090161000308200089816100f70720002a
:1017a0008783640008867300c84cde00c853dd00e0
:1017b000878474004855de000300e0000600320014
:1017c00082037600040032008904e80060054d00c1
:1017d0000a88a3000c003a00f70f20000758e10028
:1017e00044003d000a70a100c75ddd000a85750058
:1017f0008a007300090078004f0678004f05be008c
:101800004f04be00000006000a05d1008984d30001
:101810008b05e800f0ff3700881f78000604780089
:1018200090000700070278000001fd008101fd0023
:101830008c00070087027800850372000778a300f8
:10184000050032000001fd008101fd009f0007003e
:101850004f04780000000600850372000748a300cb
:1018600003003200f0ff2f00f1ff2700f8ff3700e0
:101870000000200001f8270088807000f4ff370086
:10188000880178004848dd00808171004848de000a
:10189000c850dd0001007000c850de00060478006a
:1018a0000b0178001600070088807000d2ff370017
:1018b0000500e00005003200170020003a00070094
:1018c0009dff370081037000f9ff3a008600780021
:1018d0004f0678004f05be004f04be000000050013
:1018e00083037100f9ff3200270020002e0007005b
:1018f00094ff370001f8270086807000f4ff37005e
:101900000100e00026003200610111007810e100c2
:1019100023003c006022b8007010e1000400350094
:1019200080027800010078008000eb007001510017
:101930000200e0000900340070031100062add00f7
:10194000822ade008603dd00878272000200de004c
:10195000860bdd00070070008208de0084817100c4
:10196000f4ff2700048262008481710004002800d3
:10197000848262006102600005f0a600000006009b
:1019800004827100070032000000e800e080480097
:10199000000006000002be006000b800efff370044
:1019a0006000b80000000600889fbe000004eb0045
:1019b0006138e10016003a000100e00008003a003a
:1019c000c800de004800dd00880020000100e000c3
:1019d00003003a00c800de004800dd00680444004f
:1019e0008184cf00e9845400060034008908dd00ba
:1019f000f08314008703de00878070000900dd009b
:101a000009044400610214004f04be0000000600f7
:101a10000300e00008003a00c811de004811dd00b4
:101a2000880020000300e00003003a00c811de0037
:101a30004811dd00680444008384cf00e984540029
:101a4000060034008919dd00f08314008713de00de
:101a5000878171000911dd0009044400e1021400ce
:101a6000e9ff37002700200001f0a7001700200041
:101a7000470bde00f60fb200040032000643e80018
:101a80000a0032004702b30000000600010378009c
:101a9000f607b2000603700002003a000703b30025
:101aa000000006008702b300000006000103780072
:101ab000f607b20006037000020032000770a000b3
:101ac000000006000760a000000006000478a300e4
:101ad000040032000578a300030032000168a3006f
:101ae00001003a000200be000160a00000000600f4
:101af00081017000270032008002eb0001f8a30092
:101b00000300320060001000e08018001500200083
:101b1000f40720000202420020003400f7032000f6
:101b20008703600006042000000363000208200011
:101b3000000161004700de00c909dd00008071007e
:101b4000c708de000600e0000800320087037100cd
:101b5000060032001000b0000180b0000188a30030
:101b600002003200c108de000402e800f107b20002
:101b7000f30f20000320e10003003d004722dd00b9
:101b8000810072002900370001f827000000eb00f7
:101b9000260037006000b80000000600680212004e
:101ba0007f20e100020034006000b8001f00370011
:101bb0006011b8007020e100040035008001780059
:101bc000010078008000eb00700252000400e00089
:101bd00009003400f00312000719dd008419de004b
:101be0000703dd00868171000400de00070bdd00c5
:101bf000060070008408de00f7ff2700838363007f
:101c00008703710006002800030363000700320009
:101c10000700e00003003a006101600002817300e8
:101c2000020032001000b0000180b0000500a600e4
:101c30000000060001f0a000000006004f0ade00d0
:101c40004709de00f107b200f20fb2000b003200cc
:101c5000f207b1000170a000c708dd00c901de0075
:101c6000838070004700dd000400a600000006002d
:101c700060001000e080180000000600810f700076
:101c800001003a00000006008182cf000500e0005c
:101c900010003e008082cf00ee8242007028e100fa
:101ca0000400390007003e00800078000000eb00cf
:101cb0000e003700708312008600de000500dd0094
:101cc0000a003700708352008600dd000000eb0040
:101cd00006003700e28252008508dd0070831200a2
:101ce0000603de00868070000500dd007507b00089
:101cf0000501ea000400a6000000060060001000d4
:101d0000e080180000000600889fbe008a9fbe0089
:101d1000841f78007c0007004f007800110033001a
:101d2000f0ff2f00838f6c0006003b000405650068
:101d30000a00a7000800370009f0a60010002000e4
:101d400008003700820f5400838f5c0003003900c5
:101d50001000200001003e000000200009f0a70054
:101d60000000ea004f05be004f04be000000e00086
:101d700000000600881f7800030478000300e000dc
:101d800007003d0060001000e080180060011900ad
:101d9000e081190002003b0001f02d000300370034
:101da0000400070008f0a70001f0a0004f0478002d
:101db00000000600889fbe008a9fbe00008270005f
:101dc0000402710004827100260032000004be008b
:101dd0000200be006011b8006b09200095022000cf
:101de0000182cf000a0039000541b1000082cf0016
:101df000070039000541b1000982cf000400390015
:101e00000541b1000882cf00010039000541b10051
:101e100005425200120032000a003b00828171002c
:101e2000610164008100d1000080d3008984d30067
:101e30000884d3008b05e8000442e800f7ff3a006d
:101e4000070037000804440089844c000000480063
:101e5000818048008b05e9000442e900f9ff3a005f
:101e6000030007004f05be004f04be00000006003f
:101e700081002000618055000b003d000b00200018
:101e800061fe2f000100e1001d003400828171001d
:101e9000610164008904d1000884d3000000e800d7
:101ea000faff3a0071002000610064000300700036
:101eb000020060000900320061044400e0844c002c
:101ec0000988a500050032008b05e8006808e100dc
:101ed00002003a008904d1000884d300f20f2000e8
:101ee0000258e10005003d00c75ddd00f907b200c2
:101ef0008980750008007800000006000bf82700b4
:101f00008b007800000005000004be0014fc0700f0
:101f10000003be000405be000200be0010fc070066
:081f2000844f7500000006006b
:020000040000fa
:101f280000000000000000000000000000000000a9
:101f380000000000000000005f000000000000003a
:101f480000000000795500005350000077000000a1
:101f580000000000147f0000147f0000140000003f
:101f680000000000242a00007f2a00001200000060
:101f78000000000023130000086400006200000055
:101f88000000000036490000552200005000000003
:101f98000000000005030000000000000000000031
:101fa80000000000001c00002241000000000000aa
:101fb8000000000000410000221c0000000000009a
:101fc80000000000140800003e0800001400000093
:101fd80000000000080800003e080000080000009b
:101fe80000000000000000000000000000000000e9
:101ff80000000000080800000808000008000000b1
:102008000000000000600000600000000000000008
:10201800004000002010000008040000020000003a
:10202800000000003e510000494500003e0000004d
:102038000000000000000000427f00004000000097
:102048000000000042610000514900004600000005
:10205800000000002241000049490000360000004d
:102068000000000018140000127f0000100000009b
:102078000000000027450000454500003900000029
:10208800000000003c4a0000494900003000000000
:1020980000000000010100007109000007000000b5
:1020a80000000000364900004949000036000000e1
:1020b8000000000006490000492900001e00000039
:1020c800000000000000000036360000000000009c
:1020d800000000000000000056360000000000006c
:1020e8000000000008140000224100000000000069
:1020f8000000000014140000141400001400000074
:102108000000000041220000140800000000000048
:102118000000000002010000510900000600000054
:102128000000000032490000794100003e00000034
:10213800000000007e110000111100007e00000068
:10214800000000007f4900004949000036000000f7
:10215800000000003e410000414100002200000054
:10216800000000007f410000412200001c00000028
:10217800000000007f4900004949000041000000bc
:10218800000000007f0900000909000001000000ac
:10219800000000003e410000494900003a000000ec
:1021a800000000007f080000080800007f00000011
:1021b80000000000004100007f4100000000000016
:1021c8000000000020400000413f00000100000026
:1021d800000000003f080000142200004100000039
:1021e800000000007f400000404000004000000068
:1021f800000000007f020000040200007f000000d1
:10220800000000007f040000081000007f000000ac
:10221800000000003e410000414100003e00000077
:10222800000000007f090000090900000600000006
:10223800000000003e410000512100005e00000047
:10224800000000007f090000192900004600000076
:102258000000000026490000494900003200000043
:1022680000000000010100007f01000001000000e3
:10227800000000003f400000404000003f00000018
:10228800000000001f200000402000001f00000088
:10229800000000003f400000384000003f00000000
:1022a8000000000063140000081400006300000030
:1022b8000000000007080000700800000700000088
:1022c8000000000061510000494500004300000083
:1022d80000000000007f00004141000000000000f5
:1022e80000000000033b00004444000028000000f8
:1022f8000000000000410000417f000000000000d5
:1023080000000000040200000102000004000000b8
:102318000000000040400000404000004000000075
:102328007f4100004141000041410000417f000021
:102338007f4100005d5d00005d5d0000417f0000a1
:1023480059450000534e00004f2000004e4f00003a
:1023580020590000455300004f4e0000204f000058
:1023680046460000333800003032000032300000aa
:102378005042000031500000423200004c49000039
:102388002000000000000000000000000000000025
:102398000000000000000000000000000000000035
:1023a80000000000000000000000000000800000a5
:1023b80080800000c0c00000c060000060600000b5
:1023c80030300000301800001818000018180000fd
:1023d8008c8c00008c8c00008cc60000c6c60000e7
:1023e800c6c60000c6c60000c6e30000e3e300005e
:1023f800e3e30000e3e30000e3e30000e3e30000bd
:10240800e3e30000e3e30000e3e30000e3e30000ac
:10241800e3e30000e3e30000c3c60000c6c6000013
:10242800c6c60000c6c60000868c00008c8c000062
:102438008c0c000018180000181800001830000054
:10244800303000006060000060c00000c0c00000c4
:1024580080800000800000000000000000000000f4
:102468000000000000000000000000000000000064
:102478000000000000000000000000000000000054
:102488000000000000000000000000000000000044
:102498000000000080c00000e06000003030000054
:1024a800181c00000c0600000643000063630000cf
:1024b8007171000078780000787c00007c7c000056
:1024c8007e7e00007e7f00007f7f00007f7f00000f
:1024d8007f7f00007f7f00007f7f00007f7f0000fc
:1024e8007f7f00007f7f00007f7f00007f7f0000ec
:1024f8007f7f00007f7f00007f7f00007f7f0000dc
:102508007f7f00007f7f00007f7f00007f7f0000cb
:102518007f7f00007f7f00007f7f00007f7f0000bb
:102528007f7f00007f7f00007f7f00007f7f0000ab
:102538007f7f00007f7f00007f7f00007e7e00009d
:102548007e7c00007c7c00007878000078700000b9
:10255800716100004343000003060000060c000000
:102568001c1800003030000060e00000c08000004f
:102578000000000000000000000000000000000053
:102588000000000000800000e0700000381c00001f
:102598000603000003010000000000000000000026
:1025a8000000000000000000000000000000000023
:1025b80000000000000000000000000080e00000b3
:1025c800f0380000180800000c040000040c00009b
:1025d80008080000181800003cfc0000e08000001b
:1025e80000000000000000000808000008080000c3
:1025f800f8f80000f8f800001808000008080000c3
:1026080008080000080800001818000038780000c2
:10261800f8f00000800000000000000000800000ca
:10262800e0f0000038180000080c00000404000066
:102638000c08000008180000183c0000fce000002e
:102648008000000000000000000000000000000002
:102658000000000000000000000000000000000072
:10266800000000000000000000000000010300005e
:10267800030600001c38000070e000008000000025
:1026880000f00000fe0f0000010000000000000044
:102698000000000000000000000000000000000032
:1026a8000000000000000000000000000000000022
:1026b800000000000000000000000000071f0000ec
:1026c8003f3c00007870000070e00000e0e000008f
:1026d800c0c00000c0c000008080000001010000f0
:1026e80000000000000000000000000000000000e2
:1026f800ffff0000ffff00008080000080800000d6
:1027080080c00000c0f00000fcfc000000000000d9
:1027180000010000010000000000000000070000a8
:102728001f3f00003c78000070700000e0e00000ef
:10273800e0c00000c0c00000c080000080010000b0
:102748000100000000000000000000000000000080
:102758000000000000000000000000000000000071
:102768000000000000000000000000000000000061
:102778000000000000000000000100000ffe000043
:10278800f00f00007ff00000800000000000000053
:102798000000000000000000000000000000000031
:1027a8000000000000000000000000000000000021
:1027b800000000000000000000200000e0c0000051
:1027c8008000000000000000000000000000000081
:1027d800000100000101000003070000fffe0000e7
:1027e800fc000000000000000000000000000000e5
:1027f800ffff0000ffff00000000000000000000d5
:1028080000000000010300000f0f0000000000009e
:1028180000800000c04000000000000020e0000030
:10282800c080000000000000000000000000000060
:1028380000000000010100000103000007ff000084
:10284800fefc000000000000000000000000000086
:102858000000000000000000000000000000000070
:102868000000000000000000000000000000000060
:10287800000000000000000000800000f07f000061
:102888000f00000000010000070e00001c380000c7
:1028980060c00000c08000000000000000000000d0
:1028a8000000000000000000000000000000000020
:1028b8000000000000000000000000000007000009
:1028c8000f0f00000e0c0000080800001810000090
:1028d80010100000180800000c0600000703000094
:1028e80000000000000000000808000008080000c0
:1028f8000f0f00000f0f00000c0800000808000070
:102908000808000008080000080c00000c0e000071
:102918000f0f000001000000000000000000000090
:10292800070f00000f0e00000c0800000818000038
:102938001010000010180000080c00000607000026
:10294800030000000000000000000000000000007c
:10295800000000000000000000000000000000006f
:1029680000000000000000000000000080c000001f
:10297800c0600000381c00000e07000001000000c5
:10298800000000000000000000000000000000003f
:102998000000000001030000070600000c0c000006
:1029a800183800003060000060c20000c6c6000091
:1029b8008e8e00001e1e00001e3e00003e3e0000df
:1029c8007e7e00007efe0000fefe0000fefe00008f
:1029d800fefe0000fefe0000fefe0000fefe0000ff
:1029e800fefe0000fefe0000fefe0000fefe0000ef
:1029f800fefe0000fefe0000fefe0000fefe0000df
:102a0800fefe0000fefe0000fefe0000fefe0000ce
:102a1800fefe0000fefe0000fefe0000fefe0000be
:102a2800fefe0000fefe0000fefe0000fefe0000ae
:102a3800fefe0000fefe0000fefe00007e7e00009e
:102a48007e3e00003e3e00001e1e00001e0e0000de
:102a58008e860000c6c20000c06000006030000022
:102a6800381800000c0c00000607000003010000e5
:102a7800000000000000000000000000000000004e
:102a8800000000000000000000000000000000003e
:102a9800000000000000000000000000000000002e
:102aa800000000000000000000000000000100001d
:102ab80001010000030300000306000006060000f1
:102ac8000c0c00000c180000181800001818000062
:102ad80031310000313100003163000063630000d0
:102ae800636300006363000063c70000c7c700009a
:102af800c7c70000c7c70000c7c70000c7c7000096
:102b0800c7c70000c7c70000c7c70000c7c7000085
:102b1800c7c70000c7c70000c363000063630000a5
:102b2800636300006363000061310000313100001d
:102b3800313000001818000018180000180c0000a8
:102b48000c0c00000606000006030000030300004a
:102b5800010100000100000000000000000000006a
:102b6800000000000000000000000000000000005d
:102b7800000000000000000000000000000000004d
:102b88000000000000c0000020100000100000003d
:102b980010300000f0f00000f0f00000e00000004d
:102ba800f80c0000e41400009494000094940000d1
:102bb800949400009494000094940000949400006d
:102bc80014e40000040400000404000004040000ed
:102bd800a4a40000a464000074640000a4a400007d
:102be800a4040000040400000404000024240000dd
:102bf80024e4000024240000a4840000e40400006d
:102c0800040400000404000024240000242400001c
:102c180024240000e4040000e4040000040400008c
:102c28000404000024240000a4640000a42400007c
:102c380024840000e40400000404000004e400000c
:102c480084840000848400008484000084e40000fc
:102c5800040400000404000004040000040c000044
:102c6800f8000000e0f00000f0f00000f030000094
:102c7800100000001010000020c00000000000003c
:102c88000000000000ff000000000000000000003d
:102c980000000000000300000f3f0000ff000000dc
:102ca800ff0000007f800000898100008989000002
:102cb80081890000898100008989000081890000dc
:102cc800807f0000000000000000000000000000fd
:102cd800728a00008a8a00008e8a00008a8a0000b0
:102ce8007200000000000000000000007482000074
:102cf800818000008182000084800000870000003d
:102d0800000000000000000080800000402000005b
:102d18001008000007000000ff000000000000008d
:102d2800000000007289000088880000888900007f
:102d38008a88000073000000000000000083000083
:102d48008484000084e400008484000084870000f8
:102d5800000000000000000000000000000000006b
:102d6800ff000000ff3f00000f030000000000000c
:102d7800000000000000000000ff0000000000004c
:102d88000000000000ff000000000000000000003c
:102d9800000000000000000000000000000000002b
:102da800010300000202000002020000020200000b
:102db80002020000020200000202000002020000fb
:102dc80002020000020200000202000002020000eb
:102dd80002020000020200000202000002020000db
:102de80002020000020200000202000002020000cb
:102df80002020000020200000202000002020000bb
:102e080002020000020200000202000002020000aa
:102e1800020200000202000002020000020200009a
:102e2800020200000202000002020000020200008a
:102e3800020200000202000002020000020200007a
:102e4800020200000202000002020000020200006a
:102e58000202000002020000020200000203000059
:102e68000100000000000000000000000000000059
:102e7800000000000000000000ff0000000000004b
:102e88000000000000ff000000000000000000003b
:102e98008080000080800000c080000080800000ea
:102ea800800000000080000080800000808000001a
:102eb800808000000080000000000000808000008a
:102ec80080800000808000008000000080000000fa
:102ed800008000008080000080800000808000006a
:102ee80000800000000000000080000080800000da
:102ef800808000000000000080000000000000004a
:102f080000000000000000000000000000000000b9
:102f180000000000000000000000000000000000a9
:102f28000000000000000000000000000000000099
:102f38000000000000000000000000000000000089
:102f48000000000000000000000000000000000079
:102f58000000000000000000000000000000000069
:102f68000000000000000000000000000000000059
:102f7800000000000000000000ff0000000000004a
:102f88000000000000ff000000000000000000003a
:102f9800ca2a00002a290000392900002a2a00002c
:102fa800ca00000000d0000008040000030400006c
:102fb80008120000021f00000000000000000000ce
:102fc80080400000201000000f000000ff000000fb
:102fd80000d00000080400000304000008120000ec
:102fe800021f000000000000e748000048480000f9
:102ff8004848000047400000ef02000000000000c1
:1030080000000000000000000000000000000000b8
:1030180000000000000000000000000000000000a8
:103028000000000000000000000000000000000098
:103038000000000000000000000000000000000088
:103048000000000000000000000000000000000078
:103058000000000000000000001f000020400000e9
:10306800201f000000000000000000000000000019
:10307800000000000000000000ff00000000000049
:103088000000000000ff0000000000000000000039
:103098008081000081810000c181000081810000e1
:1030a8008000000000800000818100008181000014
:1030b8008181000001810000000000008181000082
:1030c80080800000808000008000000081000000f7
:1030d8000080000081810000818100008181000062
:1030e80001810000000000000081000081810000d3
:1030f80081810000818100000100000000000000c3
:1031080000000000000000000000000000000000b7
:1031180000000000000000000000000000000000a7
:103128000000000000000000000000000000000097
:103138000000000000000000000000000000000087
:103148000000000000000000000000000000000077
:103158000000000000000000000000000000000067
:103168000000000000000000000000000000000057
:10317800000000000000000000ff00000000000048
:103188000000000000ff0000000000000000000038
:10319800ca2a00002a290000392900002a2a00002a
:1031a800ca00000000d0000008040000030400006a
:1031b80008120000021f00000000000000000000cc
:1031c80080400000201000000f000000ff000000f9
:1031d80000d00000080400000304000008120000ea
:1031e800021f00000000000020260000ea2a00005c
:1031f8002a2a0000ea2b000020000000000000003e
:1032080000000000000000000000000000000000b6
:1032180000000000000000000000000000000000a6
:103228000000000000000000000000000000000096
:103238000000000000000000000000000000000086
:103248000000000000000000000000000000000076
:103258000000000000000000007e000011110000c6
:10326800117e0000000000000000000000000000c7
:10327800000000000000000000ff00000000000047
:1032880000000000000700000810000010100000f7
:10329800101100001111000011110000111100009f
:1032a8001010000010100000111100001111000092
:1032b8001111000011110000101000001111000080
:1032c8001010000010100000101000001110000075
:1032d8001010000011110000111100001111000060
:1032e8001111000010100000101000001110000053
:1032f8001010000011100000101000001010000045
:103308001010000010100000101000001010000035
:103318001010000010100000101000001010000025
:103328001010000010100000101000001010000015
:103338001010000010100000101000001010000005
:1033480010100000101000001010000010100000f5
:1033580010100000101000001010000010100000e5
:1033680010100000101000001010000010100000d5
:1033780010100000101000000807000000000000f6
:103388000000000000c00000201000001000000035
:1033980010300000f0f00000f0f00000e000000045
:1033a800f80c0000e41400001494000054540000c9
:1033b80094140000141400001414000014140000e5
:1033c80014e40000040400000404000004040000e5
:1033d800c42400002424000024240000c4040000a5
:1033e800e4040000040400000404000004040000d5
:1033f80004040000a4a40000a4a40000e404000045
:1034080004440000e4040000040400000404000074
:1034180004040000040400000424000024a40000a4
:1034280064a400002424000084e4000004040000d4
:1034380004040000040400000404000004e4000084
:1034480084840000848400008484000084e40000f4
:10345800040400000404000004040000040c00003c
:10346800f8000000e0f00000f0f00000f03000008c
:10347800100000001010000020c000000000000034
:103488000000000000ff0000000000000000000035
:1034980000000000000300000f3f0000ff000000d4
:1034a800ff0000007f8400008784000084840000ff
:1034b800848700009ca40000c4c40000a49c0000f1
:1034c800847f0000000000000000000000000000f1
:1034d8007992000092920000929200009190000070
:1034e800fb000000000000000000000000000000d9
:1034f800000000001112000012120000121000005b
:1035080010110000e30000000000000000000000af
:103518000000000000000000007200008988000020
:1035280088880000898a0000887300000000000075
:103538000000000000000000000000000083000000
:103548008484000084e400008484000084870000f0
:103558000000000000000000000000000000000063
:10356800ff000000ff3f00000f0300000000000004
:10357800000000000000000000ff00000000000044
:103588000000000000ff0000000000000000000034
:103598000000000000000000000000000000000023
:1035a8000103000002020000020200000202000003
:1035b80002020000020200000202000002020000f3
:1035c80002020000020200000202000002020000e3
:1035d80002e2000012d20000d2d20000d2d20000d3
:1035e80032e20000020200008282000082820000b3
:1035f80082820000828200008282000082820000b3
:103608008282000082820000828200008202000022
:1036180002e2000032d20000d2d20000d2d2000072
:10362800b2e20000020200008282000082820000f2
:103638008282000082820000828200008282000072
:1036480082820000828200008282000082020000e2
:1036580002e20000d2d20000d2120000d2d3000051
:10366800d1e00000000000000000000000000000a1
:10367800000000000000000000ff00000000000043
:103688000000000000ff0000000000000000000033
:1036980080800000808000008080000080000000a2
:1036a8008000000000000000808000008080000092
:1036b8000000000080000000000000000000000082
:1036c80000000000000000000000000000000000f2
:1036d800000f0000101e00001e1e00001c1a000033
:1036e800170f0000000000000302000002020000a3
:1036f80002020000020200000202000002020000b2
:1037080002020000020200000202000003000000a2
:10371800000f00001b160000161600001616000009
:10372800190f000000000000030200000202000060
:103738000202000002020000020200000202000071
:103748000202000002020000020200000300000062
:10375800000f00001f1f00001f1000001f1f0000a7
:103768001f0f000000000000000000000000000023
:10377800000000000000000000ff00000000000042
:103788000000000000ff0000000000000000000032
:10379800d008000004030000040800001202000022
:1037a8001f00000000e700004848000048480000eb
:1037b80047400000ef020000000000000000000089
:1037c80000000000000000000000000000000000f1
:1037d80000000000000000000000000000000000e1
:1037e80000000000000000000000000000000000d1
:1037f80000000000000000000000000000000000c1
:1038080000000000000000000000000000000000b0
:1038180000000000000000000000000000000000a0
:103828000000000000000000000000000000000090
:103838000000000000000000000000000000000080
:103848000000000000000000000000000000000070
:103858000000000000000000000000000000000060
:103868000000000000000000000000000000000050
:10387800000000000000000000ff00000000000041
:103888000000000000ff0000000000000000000031
:103898000001000001010000010100000101000019
:1038a800010000000000000001010000010100000b
:1038b80001010000010000000000000000000000fd
:1038c80000000000000000000000000000000000f0
:1038d80000000000000000000000000000000000e0
:1038e80000000000000000000000000000000000d0
:1038f80000000000000000000000000000000000c0
:1039080000000000000000000000000000000000af
:10391800000000000000000000000000000000009f
:10392800000000000000000000000000000000008f
:10393800000000000000000000000000000000007f
:10394800000000000000000000000000000000006f
:10395800000000000000000000000000000000005f
:10396800000000000000000000000000000000004f
:10397800000000000000000000ff00000000000040
:103988000000000000ff0000000000000000000030
:10399800000000000000000000000000000000001f
:1039a800000000000000000000000000000000000f
:1039b80000000000000000000000000000000000ff
:1039c80000000000000000000000000000000000ef
:1039d80000000000000000000000000000000000df
:1039e80000000000000000000000000000000000cf
:1039f80000000000000000000000000000000000bf
:103a080000000000000000000000000000000000ae
:103a1800000000000000000000000000000000009e
:103a2800000000000000000000000000000000008e
:103a3800000000000000000000000000000000007e
:103a4800000000000000000000000000000000006e
:103a5800000000000000000000000000000000005e
:103a6800000000000000000000000000000000004e
:103a7800000000000000000000ff0000000000003f
:103a880000000000000700000810000010100000ef
:103a9800101000001010000010100000101000009e
:103aa800101000001010000010100000101000008e
:103ab800101000001010000010100000101000007e
:103ac800101000001010000010100000101000006e
:103ad800101000001010000010100000101000005e
:103ae800101000001010000010100000101000004e
:103af800101000001010000010100000101000003e
:103b0800101000001010000010100000101000002d
:103b1800101000001010000010100000101000001d
:103b2800101000001010000010100000101000000d
:103b380010100000101000001010000010100000fd
:103b480010100000101000001010000010100000ed
:103b580010100000101000001010000010100000dd
:103b680010100000101000001010000010100000cd
:103b780010100000101000000807000000000000ee
:103b88000000000000c0000020100000100000002d
:103b980010300000f0f00000f0f00000e00000003d
:103ba800f80c0000e4f4000074b4000054b4000001
:103bb800b4d4000054d40000b4b4000054b40000dd
:103bc80074e400000404000004040000040400007d
:103bd80024a40000b4b40000a4240000048400005d
:103be800e4040000040400000404000004040000cd
:103bf8000404000024240000e4240000240400003d
:103c0800e4040000e40400000404000004040000cc
:103c1800040400000404000004040000040400007c
:103c2800e40400000404000004e4000004040000ac
:103c3800040400000404000004040000042400003c
:103c4800242400002424000024e4000004e40000ec
:103c5800840400000404000004040000040c0000b4
:103c6800f8000000e0f00000f0f00000f030000084
:103c7800100000001010000020c00000000000002c
:103c88000000000000ff000000000000000000002d
:103c980000000000000300000f3f0000ff000000cc
:103ca800ff0000007fff0000f9b60000afdf000052
:103cb800dfbd0000b8bd0000dddd0000afb60000cc
:103cc800f97f000000000000000000000000000074
:103cd80073840000848400008483000080820000d4
:103ce8008700000000000000000000000000000045
:103cf80000000000f804000003040000f8000000c1
:103d0800ff040000ff0000000000000000000000a9
:103d1800000000000000000000f00000080400009f
:103d28000304000008f0000000ff0000000000008d
:103d38000000000000000000000000000074000007
:103d48008484000084840000828100008087000051
:103d5800000000000000000000000000000000005b
:103d6800ff000000ff3f00000f03000000000000fc
:103d7800000000000000000000ff0000000000003c
:103d88000000000000ff000000000000000000002c
:103d9800000000000000000000000000000000001b
:103da80001030000020200000202000002020000fb
:103db80002020000020200000202000002020000eb
:103dc80002020000020200000202000002020000db
:103dd80002020000020200000202000002020000cb
:103de80002020000020200000202000002020000bb
:103df80002020000020200000202000002020000ab
:103e0800020200000202000002020000020200009a
:103e1800020200000202000002020000020200008a
:103e2800020200000202000002020000020200007a
:103e3800020200000202000002020000020200006a
:103e4800020200000202000002020000020200005a
:103e58000202000002020000020200000203000049
:103e68000100000000000000000000000000000049
:103e7800000000000000000000ff0000000000003b
:103e88000000000000ff000000000000000000002b
:103e9800800000000000000000000000000000009a
:103ea800800000000000000000000000000000008a
:103eb800000000000080000080800000808000007a
:103ec800808000000080000000000000000000006a
:103ed80000000000000000000000000000000000da
:103ee80000000000000000000000000000000000ca
:103ef80000000000000000000000000000000000ba
:103f080000000000000000000000000000000000a9
:103f18000000000000000000000000000000000099
:103f28000000000000000000000000000000000089
:103f38000000000000000000000000000000000079
:103f48000000000000000000000000000000000069
:103f58000000000000000000000000000000000059
:103f68000000000000000000000000000000000049
:103f7800000000000000000000ff0000000000003a
:103f88000000000000ff000000000000000000002a
:103f9800d3540000545400005454000054500000fe
:103fa8007701000000000000000000000000000091
:103fb8000000000000800000403f0000887f0000f3
:103fc80010e0000000ff00000800000000000000f2
:103fd80000000000000000000000000000000000d9
:103fe80000000000000000000000000000000000c9
:103ff80000000000000000000000000000000000b9
:1040080000000000000000000000000000000000a8
:104018000000000000000000000000000000000098
:104028000000000000000000000000000000000088
:104038000000000000000000000000000000000078
:104048000000000000000000000000000000000068
:104058000000000000000000000000000000000058
:104068000000000000000000000000000000000048
:10407800000000000000000000ff00000000000039
:104088000000000000ff0000000000000000000029
:104098000001000001810000010100000101000091
:1040a8008100000000000000000000000000000087
:1040b8000000000000810000808000008180000076
:1040c8008081000000810000000000000000000066
:1040d80000000000000000000000000000000000d8
:1040e80000000000000000000000000000000000c8
:1040f80000000000000000000000000000000000b8
:1041080000000000000000000000000000000000a7
:104118000000000000000000000000000000000097
:104128000000000000000000000000000000000087
:104138000000000000000000000000000000000077
:104148000000000000000000000000000000000067
:104158000000000000000000000000000000000057
:104168000000000000000000000000000000000047
:10417800000000000000000000ff00000000000038
:104188000000000000ff0000000000000000000028
:10419800c0200000100f000010200000c000000028
:1041a800ff00000000000000000000000000000008
:1041b8000000000000d000001010000010100000e7
:1041c80008070000001f00000200000000000000b7
:1041d80000000000000000000000000000000000d7
:1041e80000000000000000000000000000000000c7
:1041f80000000000000000000000000000000000b7
:1042080000000000000000000000000000000000a6
:104218000000000000000000000000000000000096
:104228000000000000000000000000000000000086
:104238000000000000000000000000000000000076
:104248000000000000000000000000000000000066
:104258000000000000000000000000000000000056
:104268000000000000000000000000000000000046
:10427800000000000000000000ff00000000000037
:1042880000000000000700000810000010100000e7
:104298001110000010100000101000001110000094
:1042a8001110000010100000101000001010000085
:1042b8001010000010100000111100001111000072
:1042c8001111000011110000101000001010000062
:1042d8001010000010100000101000001010000056
:1042e8001010000010100000101000001010000046
:1042f8001010000010100000101000001010000036
:104308001010000010100000101000001010000025
:104318001010000010100000101000001010000015
:104328001010000010100000101000001010000005
:1043380010100000101000001010000010100000f5
:1043480010100000101000001010000010100000e5
:1043580010100000101000001010000010100000d5
:1043680010100000101000001010000010100000c5
:1043780010100000101000000807000000000000e6
:104388000000000000c00000201000001000000025
:1043980010300000f0f00000f0f00000e000000035
:1043a800f80c0000e4140000d4d4000014940000b9
:1043b800d4d40000545400009414000014140000d5
:1043c80014e40000040400000404000004040000d5
:1043d8000404000004c40000242400002424000075
:1043e8002424000024c40000040400000404000085
:1043f8000404000004040000040400000404000095
:104408000404000004040000040400000404000084
:104418000404000004040000040400000404000074
:104428000404000004040000040400000404000064
:10443800040400000404000004c400002424000054
:104448002424000024240000242400000404000084
:10445800040400000404000004040000040c00002c
:10446800f8000000e0f00000f0f00000f03000007c
:10447800100000001010000020c000000000000024
:104488000000000000ff0000000000000000000025
:1044980000000000000300000f3f0000ff000000c4
:1044a800ff0000007f800000808000009ebf0000a9
:1044b800b3a00000a0a00000908000008080000051
:1044c800807f0000000000000000000000000000e5
:1044d800000000000034000045450000454700008a
:1044e80045450000454400000000000000000000b1
:1044f80000000000000000000000000000000000b4
:1045080000000000000000000000000000000000a3
:104518000000000000000000000000000000000093
:104528000000000000000000000000000000000083
:1045380000000000000000000043000044440000a8
:10454800447400004444000044440000000000009b
:104558000000000000000000000000000000000053
:10456800ff000000ff3f00000f03000000000000f4
:10457800000000000000000000ff00000000000034
:104588000000000000ff0000000000000000000024
:104598000000000000000000000000000000000013
:1045a80001030000020200000202000002020000f3
:1045b80002020000020200000202000002020000e3
:1045c80002020000020200000202000002020000d3
:1045d80002020000020200000202000002020000c3
:1045e80002020000020200000202000002020000b3
:1045f80002020000020200000202000002020000a3
:104608000202000002020000020200000202000092
:104618000202000002020000020200000202000082
:104628000202000002020000020200000202000072
:104638000202000002020000020200000202000062
:104648000202000002020000020200000202000052
:104658000202000002020000020200000203000041
:104668000100000000000000000000000000000041
:10467800000000000000000000ff00000000000033
:104688000000000000ff0000000000000000000023
:104698000000000080800000808000008080000012
:1046a8008000000000000000000000000000000082
:1046b80000000000000000000000000000000000f2
:1046c80000000000000000000000000000000000e2
:1046d8000000000000800000808000008080000052
:1046e8008080000080000000000000000000000042
:1046f80000000000000000000000000000000000b2
:1047080000000000000000000000000000000000a1
:104718000000000000000000000000000000000091
:104728000000000000000000000000000000000081
:104738000000000000000000000000000000000071
:104748000000000000000000000000000000000061
:10475800000000000000000000c00000c0000000d1
:104768000000000000000000000000000000000041
:10477800000000000000000000ff00000000000032
:104788000000000000ff0000000000000000000022
:1047980000d3000014140000141c000014140000be
:1047a80014130000000000000000000000000000da
:1047b80000000000000000000000000000000000f1
:1047c80000000000000000000000000000000000e1
:1047d800000000000f10000010100000d0100000b2
:1047e8001010000010000000000000000000000091
:1047f80000000000000000000000000000000000b1
:1048080000000000000000000000000000000000a0
:104818000000000000000000000000000000000090
:104828000000000000000000000000000000000080
:104838000000000000000000000000000000000070
:104848000000000000000000000000000000000060
:10485800000000000000000000000000007c0000d4
:1048680082820000820000000000000000000000ba
:10487800000000000000000000ff00000000000031
:104888000000000000ff0000000000000000000021
:10489800000000000101000001010000010100000a
:1048a80001010000000000000000000000000000fe
:1048b80000000000000000000000000000000000f0
:1048c80000000000000000000000000000000000e0
:1048d80000000000010100000101000001010000ca
:1048e80001010000010000000000000000000000bd
:1048f80000000000000000000000000000000000b0
:10490800000000000000000000000000000000009f
:10491800000000000000000000000000000000008f
:10492800000000000000000000000000000000007f
:10493800000000000000000000000000000000006f
:10494800000000000000000000000000000000005f
:10495800000000000000000000000000000000004f
:10496800000000000000000000000000000000003f
:10497800000000000000000000ff00000000000030
:104988000000000000ff0000000000000000000020
:10499800000000000000000000000000000000000f
:1049a80000000000000000000000000000000000ff
:1049b80000000000000000000000000000000000ef
:1049c80000000000000000000000000000000000df
:1049d80000000000000000000000000000000000cf
:1049e80000000000000000000000000000000000bf
:1049f80000000000000000000000000000000000af
:104a0800000000000000000000000000000000009e
:104a1800000000000000000000000000000000008e
:104a2800000000000000000000000000000000007e
:104a3800000000000000000000000000000000006e
:104a4800000000000000000000000000000000005e
:104a5800000000000000000000000000000000004e
:104a6800000000000000000000000000000000003e
:104a7800000000000000000000ff0000000000002f
:104a880000000000000700000810000010100000df
:104a9800101000001010000010100000101000008e
:104aa800101000001010000010100000101000007e
:104ab800101000001010000010100000101000006e
:104ac800101000001010000010100000101000005e
:104ad800101000001010000010100000101000004e
:104ae800101000001010000010100000101000003e
:104af800101000001010000010100000101000002e
:104b0800101000001010000010100000101000001d
:104b1800101000001010000010100000101000000d
:104b280010100000101000001010000010100000fd
:104b380010100000101000001010000010100000ed
:104b480010100000101000001010000010100000dd
:104b580010100000101000001010000010100000cd
:104b680010100000101000001010000010100000bd
:104b780010100000101000000807000000000000de
:104b88000000000000c0000020100000100000001d
:104b980010300000f0f00000f0f00000e00000002d
:104ba800f80c0000e4140000141400001494000031
:104bb80054540000545400009414000014140000cd
:104bc80014e40000040400000404000004040000cd
:104bd8000404000004e400000404000004040000cd
:104be800e4040000040400000404000004040000bd
:104bf80004040000e40400000404000004040000ad
:104c08000404000004040000e4a40000a4a40000bc
:104c180004840000e4040000e4040000040400002c
:104c280004040000040400008464000084040000fc
:104c380004440000e404000004040000042400000c
:104c480024a4000064a400002424000084e40000dc
:104c5800040400000404000004040000040c000024
:104c6800f8000000e0f00000f0f00000f030000074
:104c7800100000001010000020c00000000000001c
:104c88000000000000ff000000000000000000001d
:104c980000000000000300000f3f0000ff000000bc
:104ca800ff0000007f80000080800000bebf000081
:104cb800beba0000babe0000bfbe0000808000007f
:104cc800807f0000000000000000000000000000dd
:104cd800f00800000403000004080000f0000000d1
:104ce800ff0000000000000000000000b884000081
:104cf800828100008081000082840000b8000000ea
:104d08000000000000000000798a00008a8a000084
:104d1800888800008b880000fb000000000000006d
:104d28000000000069a90000a8a80000a8a90000c8
:104d3800a9a80000b90000000000000000720000ef
:104d48008988000088880000898a0000887300002c
:104d5800000000000000000000000000000000004b
:104d6800ff000000ff3f00000f03000000000000ec
:104d7800000000000000000000ff0000000000002c
:104d88000000000000ff000000000000000000001c
:104d9800000000000000000000000000000000000b
:104da80001030000020200000202000002020000eb
:104db80002020000020200000202000002020000db
:104dc80002020000020200000202000002020000cb
:104dd80002020000020200000202000002020000bb
:104de80002020000020200000202000002020000ab
:104df800020200000202000002020000020200009b
:104e0800020200000202000002020000020200008a
:104e1800020200000202000002020000020200007a
:104e2800020200000202000002020000020200006a
:104e3800020200000202000002020000020200005a
:104e4800020200000202000002020000020200004a
:104e58000202000002020000020200000203000039
:104e68000100000000000000000000000000000039
:104e7800000000000000000000ff0000000000002b
:104e88000000000000ff000000000000000000001b
:104e9800000000000000000000000000000000000a
:104ea80000f0000018880000c8e8000068680000ea
:104eb800e8c8000088180000f000000000000000aa
:104ec80000000000000000000000000000000000da
:104ed80000000000000000000000000000000000ca
:104ee80000000000000000000000000000000000ba
:104ef80000000000000000000000000000000000aa
:104f08000000000000000000000000000000000099
:104f18000000000000000000000000000000000089
:104f28000000000000000000000000000000000079
:104f38000000000000000000000000000000000069
:104f48000000000000000000000000000000000059
:104f58000000000000000000000000000000000049
:104f68000000000000000000000000000000000039
:104f7800000000000000000000ff0000000000002a
:104f88000000000000ff000000000000000000001a
:104f98000000000000000000000000000000000009
:104fa800001f000070e30000070e0000fcfc00007a
:104fb8008e87000023300000ff0000000000000082
:104fc80000000000000000000000000000000000d9
:104fd80000000000000000000000000000000000c9
:104fe80000000000000000000000000000000000b9
:104ff80000000000000000000000000000000000a9
:105008000000000000000000000000000000000098
:105018000000000000000000000000000000000088
:105028000000000000000000000000000000000078
:105038000000000000000000000000000000000068
:105048000000000000000000000000000000000058
:105058000000000000000000000000000000000048
:105068000000000000000000000000000000000038
:10507800000000000000000000ff00000000000029
:105088000000000000ff0000000000000000000019
:105098000000000000000000000000000000000008
:1050a80000000000003f0000604000005f5f00005b
:1050b8004d4d0000406000003f00000080c000002f
:1050c80000c0000060200000202000002020000018
:1050d80020200000202000002020000020200000c8
:1050e80020200000202000002020000020200000b8
:1050f80020200000202000002020000020200000a8
:105108002020000020200000202000002020000097
:105118002020000020200000202000002020000087
:105128002020000020200000202000002020000077
:105138002020000020200000202000002020000067
:105148002020000060c0000000c0000080000000b7
:105158000000000000000000000000000000000047
:105168000000000000000000000000000000000037
:10517800000000000000000000ff00000000000028
:105188000000000000ff0000000000000000000018
:105198000000000000000000000000000000000007
:1051a80000000000000000000000000000000000f7
:1051b80000000000000000000000000000000000e7
:1051c80000000000000000000000000000000000d7
:1051d80000000000000000000000000000000000c7
:1051e80000000000000000000000000000000000b7
:1051f80000000000000000000000000000000000a7
:105208000000000000000000000000000000000096
:105218000000000000000000000000000000000086
:105228000000000000000000000000000000000076
:105238000000000000000000000000000000000066
:105248000000000000000000000000000000000056
:105258000000000000000000000000000000000046
:105268000000000000000000000000000000000036
:10527800000000000000000000ff00000000000027
:1052880000000000000700000810000010100000d7
:105298001010000010100000101000001010000086
:1052a8001010000010100000101000001010000076
:1052b8001010000010100000101000001010000066
:1052c8001010000010100000101000001010000056
:1052d8001010000010100000101000001010000046
:1052e8001010000010100000101000001010000036
:1052f8001010000010100000101000001010000026
:105308001010000010100000101000001010000015
:105318001010000010100000101000001010000005
:1053280010100000101000001010000010100000f5
:1053380010100000101000001010000010100000e5
:1053480010100000101000001010000010100000d5
:1053580010100000101000001010000010100000c5
:1053680010100000101000001010000010100000b5
:1053780010100000101000000807000000000000d6
:105388000000000000000000000000000000000015
:105398000000000000000000000000000000000005
:1053a80000000000000000000000000000000000f5
:1053b80000000000000000000000000000000000e5
:106b88000000000000c000002010000010000000fd
:106b980010300000f0f00000f0f00000e00000000d
:106ba800f80c0000e41400001414000054d4000091
:106bb800d45400001414000054d4000054140000ed
:106bc80014e40000040400000404000004040000ad
:106bd800a4a40000a464000074640000a4a400003d
:106be800a40400000424000024240000e42400007d
:106bf80024a4000084e4000004040000242400000d
:106c080024e4000024240000a4840000e40400001c
:106c180004c40000242400002424000024c400002c
:106c280004e40000840400000404000084640000fc
:106c38008404000004840000e4040000042400002c
:106c480024a4000064a400002424000084e40000bc
